{
  "contractName": "BToken",
  "abi": [
    {
      "anonymous": false,
      "inputs": [
        {
          "indexed": false,
          "internalType": "uint256",
          "name": "cashPrior",
          "type": "uint256"
        },
        {
          "indexed": false,
          "internalType": "uint256",
          "name": "interestAccumulated",
          "type": "uint256"
        },
        {
          "indexed": false,
          "internalType": "uint256",
          "name": "borrowIndex",
          "type": "uint256"
        },
        {
          "indexed": false,
          "internalType": "uint256",
          "name": "totalBorrows",
          "type": "uint256"
        }
      ],
      "name": "AccrueInterest",
      "type": "event"
    },
    {
      "anonymous": false,
      "inputs": [
        {
          "indexed": true,
          "internalType": "address",
          "name": "owner",
          "type": "address"
        },
        {
          "indexed": true,
          "internalType": "address",
          "name": "spender",
          "type": "address"
        },
        {
          "indexed": false,
          "internalType": "uint256",
          "name": "amount",
          "type": "uint256"
        }
      ],
      "name": "Approval",
      "type": "event"
    },
    {
      "anonymous": false,
      "inputs": [
        {
          "indexed": false,
          "internalType": "address",
          "name": "borrower",
          "type": "address"
        },
        {
          "indexed": false,
          "internalType": "uint256",
          "name": "borrowAmount",
          "type": "uint256"
        },
        {
          "indexed": false,
          "internalType": "uint256",
          "name": "accountBorrows",
          "type": "uint256"
        },
        {
          "indexed": false,
          "internalType": "uint256",
          "name": "totalBorrows",
          "type": "uint256"
        }
      ],
      "name": "Borrow",
      "type": "event"
    },
    {
      "anonymous": false,
      "inputs": [
        {
          "indexed": false,
          "internalType": "address",
          "name": "burner",
          "type": "address"
        },
        {
          "indexed": false,
          "internalType": "uint256",
          "name": "burnAmount",
          "type": "uint256"
        },
        {
          "indexed": false,
          "internalType": "uint256",
          "name": "redeemTokens",
          "type": "uint256"
        }
      ],
      "name": "Burn",
      "type": "event"
    },
    {
      "anonymous": false,
      "inputs": [
        {
          "indexed": false,
          "internalType": "address",
          "name": "minter",
          "type": "address"
        },
        {
          "indexed": false,
          "internalType": "uint256",
          "name": "mintAmount",
          "type": "uint256"
        },
        {
          "indexed": false,
          "internalType": "uint256",
          "name": "mintTokens",
          "type": "uint256"
        }
      ],
      "name": "Mint",
      "type": "event"
    },
    {
      "anonymous": false,
      "inputs": [
        {
          "indexed": false,
          "internalType": "contract ComptrollerInterface",
          "name": "oldComptroller",
          "type": "address"
        },
        {
          "indexed": false,
          "internalType": "contract ComptrollerInterface",
          "name": "newComptroller",
          "type": "address"
        }
      ],
      "name": "NewComptroller",
      "type": "event"
    },
    {
      "anonymous": false,
      "inputs": [
        {
          "indexed": false,
          "internalType": "address",
          "name": "redeemer",
          "type": "address"
        },
        {
          "indexed": false,
          "internalType": "uint256",
          "name": "redeemAmount",
          "type": "uint256"
        },
        {
          "indexed": false,
          "internalType": "uint256",
          "name": "redeemTokens",
          "type": "uint256"
        }
      ],
      "name": "Redeem",
      "type": "event"
    },
    {
      "anonymous": false,
      "inputs": [
        {
          "indexed": false,
          "internalType": "address",
          "name": "payer",
          "type": "address"
        },
        {
          "indexed": false,
          "internalType": "address",
          "name": "borrower",
          "type": "address"
        },
        {
          "indexed": false,
          "internalType": "uint256",
          "name": "repayAmount",
          "type": "uint256"
        },
        {
          "indexed": false,
          "internalType": "uint256",
          "name": "accountBorrows",
          "type": "uint256"
        },
        {
          "indexed": false,
          "internalType": "uint256",
          "name": "totalBorrows",
          "type": "uint256"
        }
      ],
      "name": "RepayBorrow",
      "type": "event"
    },
    {
      "anonymous": false,
      "inputs": [
        {
          "indexed": true,
          "internalType": "address",
          "name": "from",
          "type": "address"
        },
        {
          "indexed": true,
          "internalType": "address",
          "name": "to",
          "type": "address"
        },
        {
          "indexed": false,
          "internalType": "uint256",
          "name": "amount",
          "type": "uint256"
        }
      ],
      "name": "Transfer",
      "type": "event"
    },
    {
      "inputs": [],
      "name": "accrualBlockNumber",
      "outputs": [
        {
          "internalType": "uint256",
          "name": "",
          "type": "uint256"
        }
      ],
      "stateMutability": "view",
      "type": "function"
    },
    {
      "inputs": [],
      "name": "admin",
      "outputs": [
        {
          "internalType": "address payable",
          "name": "",
          "type": "address"
        }
      ],
      "stateMutability": "view",
      "type": "function"
    },
    {
      "inputs": [],
      "name": "borrowIndex",
      "outputs": [
        {
          "internalType": "uint256",
          "name": "",
          "type": "uint256"
        }
      ],
      "stateMutability": "view",
      "type": "function"
    },
    {
      "inputs": [],
      "name": "comptroller",
      "outputs": [
        {
          "internalType": "contract ComptrollerInterface",
          "name": "",
          "type": "address"
        }
      ],
      "stateMutability": "view",
      "type": "function"
    },
    {
      "inputs": [],
      "name": "decimals",
      "outputs": [
        {
          "internalType": "uint8",
          "name": "",
          "type": "uint8"
        }
      ],
      "stateMutability": "view",
      "type": "function"
    },
    {
      "inputs": [],
      "name": "isBToken",
      "outputs": [
        {
          "internalType": "bool",
          "name": "",
          "type": "bool"
        }
      ],
      "stateMutability": "view",
      "type": "function"
    },
    {
      "inputs": [],
      "name": "name",
      "outputs": [
        {
          "internalType": "string",
          "name": "",
          "type": "string"
        }
      ],
      "stateMutability": "view",
      "type": "function"
    },
    {
      "inputs": [],
      "name": "symbol",
      "outputs": [
        {
          "internalType": "string",
          "name": "",
          "type": "string"
        }
      ],
      "stateMutability": "view",
      "type": "function"
    },
    {
      "inputs": [],
      "name": "totalBorrows",
      "outputs": [
        {
          "internalType": "uint256",
          "name": "",
          "type": "uint256"
        }
      ],
      "stateMutability": "view",
      "type": "function"
    },
    {
      "inputs": [],
      "name": "totalReserves",
      "outputs": [
        {
          "internalType": "uint256",
          "name": "",
          "type": "uint256"
        }
      ],
      "stateMutability": "view",
      "type": "function"
    },
    {
      "inputs": [],
      "name": "totalSupply",
      "outputs": [
        {
          "internalType": "uint256",
          "name": "",
          "type": "uint256"
        }
      ],
      "stateMutability": "view",
      "type": "function"
    },
    {
      "inputs": [],
      "name": "underlying",
      "outputs": [
        {
          "internalType": "address",
          "name": "",
          "type": "address"
        }
      ],
      "stateMutability": "view",
      "type": "function"
    },
    {
      "inputs": [],
      "name": "underlyingContract",
      "outputs": [
        {
          "internalType": "address",
          "name": "",
          "type": "address"
        }
      ],
      "stateMutability": "view",
      "type": "function"
    },
    {
      "inputs": [
        {
          "internalType": "address",
          "name": "underlyingContract_",
          "type": "address"
        },
        {
          "internalType": "contract ComptrollerInterface",
          "name": "comptroller_",
          "type": "address"
        },
        {
          "internalType": "string",
          "name": "name_",
          "type": "string"
        },
        {
          "internalType": "string",
          "name": "symbol_",
          "type": "string"
        },
        {
          "internalType": "uint8",
          "name": "decimal_",
          "type": "uint8"
        }
      ],
      "name": "initialize",
      "outputs": [],
      "stateMutability": "nonpayable",
      "type": "function"
    },
    {
      "inputs": [
        {
          "internalType": "address",
          "name": "dst",
          "type": "address"
        },
        {
          "internalType": "uint256",
          "name": "amount",
          "type": "uint256"
        }
      ],
      "name": "transfer",
      "outputs": [
        {
          "internalType": "bool",
          "name": "success",
          "type": "bool"
        }
      ],
      "stateMutability": "nonpayable",
      "type": "function"
    },
    {
      "inputs": [
        {
          "internalType": "address",
          "name": "src",
          "type": "address"
        },
        {
          "internalType": "address",
          "name": "dst",
          "type": "address"
        },
        {
          "internalType": "uint256",
          "name": "amount",
          "type": "uint256"
        }
      ],
      "name": "transferFrom",
      "outputs": [
        {
          "internalType": "bool",
          "name": "success",
          "type": "bool"
        }
      ],
      "stateMutability": "nonpayable",
      "type": "function"
    },
    {
      "inputs": [
        {
          "internalType": "address",
          "name": "owner",
          "type": "address"
        }
      ],
      "name": "balanceOf",
      "outputs": [
        {
          "internalType": "uint256",
          "name": "",
          "type": "uint256"
        }
      ],
      "stateMutability": "view",
      "type": "function"
    },
    {
      "inputs": [
        {
          "internalType": "address",
          "name": "spender",
          "type": "address"
        },
        {
          "internalType": "uint256",
          "name": "amount",
          "type": "uint256"
        }
      ],
      "name": "approve",
      "outputs": [
        {
          "internalType": "bool",
          "name": "",
          "type": "bool"
        }
      ],
      "stateMutability": "nonpayable",
      "type": "function"
    },
    {
      "inputs": [
        {
          "internalType": "address",
          "name": "owner",
          "type": "address"
        },
        {
          "internalType": "address",
          "name": "spender",
          "type": "address"
        }
      ],
      "name": "allowance",
      "outputs": [
        {
          "internalType": "uint256",
          "name": "",
          "type": "uint256"
        }
      ],
      "stateMutability": "view",
      "type": "function"
    },
    {
      "inputs": [
        {
          "internalType": "uint256",
          "name": "mintAmount",
          "type": "uint256"
        }
      ],
      "name": "mint",
      "outputs": [
        {
          "internalType": "uint256",
          "name": "",
          "type": "uint256"
        }
      ],
      "stateMutability": "nonpayable",
      "type": "function"
    },
    {
      "inputs": [
        {
          "internalType": "uint256",
          "name": "redeemTokens",
          "type": "uint256"
        }
      ],
      "name": "redeem",
      "outputs": [
        {
          "internalType": "uint256",
          "name": "",
          "type": "uint256"
        }
      ],
      "stateMutability": "nonpayable",
      "type": "function"
    },
    {
      "inputs": [
        {
          "internalType": "uint256",
          "name": "redeemAmount",
          "type": "uint256"
        }
      ],
      "name": "redeemUnderlying",
      "outputs": [
        {
          "internalType": "uint256",
          "name": "",
          "type": "uint256"
        }
      ],
      "stateMutability": "nonpayable",
      "type": "function"
    },
    {
      "inputs": [],
      "name": "accrueInterest",
      "outputs": [
        {
          "internalType": "uint256",
          "name": "",
          "type": "uint256"
        }
      ],
      "stateMutability": "nonpayable",
      "type": "function"
    },
    {
      "inputs": [
        {
          "internalType": "uint256",
          "name": "borrowAmount",
          "type": "uint256"
        }
      ],
      "name": "borrow",
      "outputs": [
        {
          "internalType": "uint256",
          "name": "",
          "type": "uint256"
        }
      ],
      "stateMutability": "nonpayable",
      "type": "function"
    },
    {
      "inputs": [
        {
          "internalType": "uint256",
          "name": "repayAmount",
          "type": "uint256"
        }
      ],
      "name": "repayBorrow",
      "outputs": [
        {
          "internalType": "uint256",
          "name": "",
          "type": "uint256"
        }
      ],
      "stateMutability": "nonpayable",
      "type": "function"
    },
    {
      "inputs": [
        {
          "internalType": "address",
          "name": "borrower",
          "type": "address"
        },
        {
          "internalType": "uint256",
          "name": "repayAmount",
          "type": "uint256"
        }
      ],
      "name": "repayBorrowBehalf",
      "outputs": [
        {
          "internalType": "uint256",
          "name": "",
          "type": "uint256"
        }
      ],
      "stateMutability": "nonpayable",
      "type": "function"
    },
    {
      "inputs": [
        {
          "internalType": "address",
          "name": "burner",
          "type": "address"
        },
        {
          "internalType": "uint256",
          "name": "amount",
          "type": "uint256"
        }
      ],
      "name": "burn",
      "outputs": [
        {
          "internalType": "bool",
          "name": "",
          "type": "bool"
        }
      ],
      "stateMutability": "nonpayable",
      "type": "function"
    },
    {
      "inputs": [
        {
          "internalType": "address",
          "name": "account",
          "type": "address"
        }
      ],
      "name": "getAccountInfo",
      "outputs": [
        {
          "internalType": "uint256",
          "name": "",
          "type": "uint256"
        },
        {
          "internalType": "uint256",
          "name": "",
          "type": "uint256"
        },
        {
          "internalType": "uint256",
          "name": "",
          "type": "uint256"
        },
        {
          "internalType": "uint256",
          "name": "",
          "type": "uint256"
        }
      ],
      "stateMutability": "view",
      "type": "function"
    },
    {
      "inputs": [
        {
          "internalType": "contract ComptrollerInterface",
          "name": "newComptroller",
          "type": "address"
        }
      ],
      "name": "_setComptroller",
      "outputs": [
        {
          "internalType": "uint256",
          "name": "",
          "type": "uint256"
        }
      ],
      "stateMutability": "nonpayable",
      "type": "function"
    }
  ],
  "bytecode": "0x608060405234801561001057600080fd5b50613dc4806100206000396000f3fe608060405234801561001057600080fd5b50600436106101ec576000357c0100000000000000000000000000000000000000000000000000000000900480637b510fe811610121578063a6afed95116100bf578063db006a751161008e578063db006a75146105b8578063dd62ed3e146105e8578063f851a44014610618578063fbb6233714610636576101ec565b8063a6afed951461051c578063a9059cbb1461053a578063aa5af0fd1461056a578063c5ebeaec14610588576101ec565b80638f840ddd116100fb5780638f840ddd1461048057806395d89b411461049e5780639dc29fac146104bc578063a0712d68146104ec576101ec565b80637b510fe8146104015780638420ce9914610434578063852a12e314610450576101ec565b8063313ce5671161018e5780635fe3b567116101685780635fe3b567146103775780636c540baf146103955780636f307dc3146103b357806370a08231146103d1576101ec565b8063313ce5671461030b5780634576b5db1461032957806347bd371814610359576101ec565b806310cfe906116101ca57806310cfe9061461026f57806318160ddd1461028d57806323b872dd146102ab5780632608f818146102db576101ec565b806306fdde03146101f1578063095ea7b31461020f5780630e7527021461023f575b600080fd5b6101f9610654565b6040516102069190612aef565b60405180910390f35b61022960048036038101906102249190612bb9565b6106e2565b6040516102369190612c14565b60405180910390f35b61025960048036038101906102549190612c2f565b6107d9565b6040516102669190612c6b565b60405180910390f35b6102776107ed565b6040516102849190612c95565b60405180910390f35b610295610813565b6040516102a29190612c6b565b60405180910390f35b6102c560048036038101906102c09190612cb0565b610819565b6040516102d29190612c14565b60405180910390f35b6102f560048036038101906102f09190612bb9565b610b91565b6040516103029190612c6b565b60405180910390f35b610313610ba7565b6040516103209190612d1f565b60405180910390f35b610343600480360381019061033e9190612d78565b610bba565b6040516103509190612c6b565b60405180910390f35b610361610d89565b60405161036e9190612c6b565b60405180910390f35b61037f610d8f565b60405161038c9190612e04565b60405180910390f35b61039d610db5565b6040516103aa9190612c6b565b60405180910390f35b6103bb610dbb565b6040516103c89190612c95565b60405180910390f35b6103eb60048036038101906103e69190612e1f565b610de1565b6040516103f89190612c6b565b60405180910390f35b61041b60048036038101906104169190612e1f565b610e2a565b60405161042b9493929190612e4c565b60405180910390f35b61044e60048036038101906104499190612ff2565b610e8c565b005b61046a60048036038101906104659190612c2f565b611168565b6040516104779190612c6b565b60405180910390f35b61048861117c565b6040516104959190612c6b565b60405180910390f35b6104a6611182565b6040516104b39190612aef565b60405180910390f35b6104d660048036038101906104d19190612bb9565b611210565b6040516104e39190612c14565b60405180910390f35b61050660048036038101906105019190612c2f565b6113c7565b6040516105139190612c6b565b60405180910390f35b6105246113db565b6040516105319190612c6b565b60405180910390f35b610554600480360381019061054f9190612bb9565b611445565b6040516105619190612c14565b60405180910390f35b61057261145a565b60405161057f9190612c6b565b60405180910390f35b6105a2600480360381019061059d9190612c2f565b611460565b6040516105af9190612c6b565b60405180910390f35b6105d260048036038101906105cd9190612c2f565b611474565b6040516105df9190612c6b565b60405180910390f35b61060260048036038101906105fd91906130a5565b611488565b60405161060f9190612c6b565b60405180910390f35b61062061150f565b60405161062d9190613106565b60405180910390f35b61063e611535565b60405161064b9190612c14565b60405180910390f35b6003805461066190613150565b80601f016020809104026020016040519081016040528092919081815260200182805461068d90613150565b80156106da5780601f106106af576101008083540402835291602001916106da565b820191906000526020600020905b8154815290600101906020018083116106bd57829003601f168201915b505050505081565b60008033905082600d60008373ffffffffffffffffffffffffffffffffffffffff1673ffffffffffffffffffffffffffffffffffffffff16815260200190815260200160002060008673ffffffffffffffffffffffffffffffffffffffff1673ffffffffffffffffffffffffffffffffffffffff168152602001908152602001600020819055508373ffffffffffffffffffffffffffffffffffffffff168173ffffffffffffffffffffffffffffffffffffffff167f8c5be1e5ebec7d5bd14f71427d1e84f3dd0314c0f7b2291e5b200ac8c7c3b925856040516107c69190612c6b565b60405180910390a3600191505092915050565b60006107e48261153a565b60009050919050565b600b60009054906101000a900473ffffffffffffffffffffffffffffffffffffffff1681565b600a5481565b600080821161085d576040517f08c379a0000000000000000000000000000000000000000000000000000000008152600401610854906131ce565b60405180910390fd5b8273ffffffffffffffffffffffffffffffffffffffff168473ffffffffffffffffffffffffffffffffffffffff1614156108cc576040517f08c379a00000000000000000000000000000000000000000000000000000000081526004016108c39061323a565b60405180910390fd5b60006108d785610de1565b90508281101561091c576040517f08c379a0000000000000000000000000000000000000000000000000000000008152600401610913906132a6565b60405180910390fd5b6000600d60008773ffffffffffffffffffffffffffffffffffffffff1673ffffffffffffffffffffffffffffffffffffffff16815260200190815260200160002060003373ffffffffffffffffffffffffffffffffffffffff1673ffffffffffffffffffffffffffffffffffffffff168152602001908152602001600020549050838110156109e0576040517f08c379a00000000000000000000000000000000000000000000000000000000081526004016109d790613312565b60405180910390fd5b83600c60008873ffffffffffffffffffffffffffffffffffffffff1673ffffffffffffffffffffffffffffffffffffffff1681526020019081526020016000206000828254610a2f9190613361565b9250508190555083600c60008773ffffffffffffffffffffffffffffffffffffffff1673ffffffffffffffffffffffffffffffffffffffff1681526020019081526020016000206000828254610a859190613395565b9250508190555083600d60008873ffffffffffffffffffffffffffffffffffffffff1673ffffffffffffffffffffffffffffffffffffffff16815260200190815260200160002060003373ffffffffffffffffffffffffffffffffffffffff1673ffffffffffffffffffffffffffffffffffffffff1681526020019081526020016000206000828254610b189190613361565b925050819055508473ffffffffffffffffffffffffffffffffffffffff168673ffffffffffffffffffffffffffffffffffffffff167fddf252ad1be2c89b69c2b068fc378daa952ba7f163c4a11628f55a4df523b3ef86604051610b7c9190612c6b565b60405180910390a36001925050509392505050565b6000610b9d83836115d3565b6000905092915050565b600560009054906101000a900460ff1681565b60008060019054906101000a900473ffffffffffffffffffffffffffffffffffffffff1673ffffffffffffffffffffffffffffffffffffffff163373ffffffffffffffffffffffffffffffffffffffff1614610c1557600080fd5b6000600260009054906101000a900473ffffffffffffffffffffffffffffffffffffffff1690508273ffffffffffffffffffffffffffffffffffffffff16627e3dd26040518163ffffffff167c0100000000000000000000000000000000000000000000000000000000028152600401602060405180830381865afa158015610ca2573d6000803e3d6000fd5b505050506040513d601f19601f82011682018060405250810190610cc69190613417565b610d05576040517f08c379a0000000000000000000000000000000000000000000000000000000008152600401610cfc90613490565b60405180910390fd5b82600260006101000a81548173ffffffffffffffffffffffffffffffffffffffff021916908373ffffffffffffffffffffffffffffffffffffffff1602179055507f7ac369dbd14fa5ea3f473ed67cc9d598964a77501540ba6751eb0b3decf5870d8184604051610d779291906134b0565b60405180910390a16000915050919050565b60085481565b600260009054906101000a900473ffffffffffffffffffffffffffffffffffffffff1681565b60065481565b600160009054906101000a900473ffffffffffffffffffffffffffffffffffffffff1681565b6000600c60008373ffffffffffffffffffffffffffffffffffffffff1673ffffffffffffffffffffffffffffffffffffffff168152602001908152602001600020549050919050565b6000806000806000600c60008773ffffffffffffffffffffffffffffffffffffffff1673ffffffffffffffffffffffffffffffffffffffff16815260200190815260200160002054610e7b8761166d565b600093509350935093509193509193565b600060019054906101000a900473ffffffffffffffffffffffffffffffffffffffff1673ffffffffffffffffffffffffffffffffffffffff163373ffffffffffffffffffffffffffffffffffffffff1614610f1c576040517f08c379a0000000000000000000000000000000000000000000000000000000008152600401610f139061354b565b60405180910390fd5b6000600654148015610f3057506000600754145b610f6f576040517f08c379a0000000000000000000000000000000000000000000000000000000008152600401610f66906135dd565b60405180910390fd5b6000610f7a85610bba565b905060008114610fbf576040517f08c379a0000000000000000000000000000000000000000000000000000000008152600401610fb690613649565b60405180910390fd5b84600260006101000a81548173ffffffffffffffffffffffffffffffffffffffff021916908373ffffffffffffffffffffffffffffffffffffffff1602179055506110086116be565b60068190555083600390805190602001906110249291906129b3565b50826004908051906020019061103b9291906129b3565b5081600560006101000a81548160ff021916908360ff16021790555060016000806101000a81548160ff02191690831515021790555085600160006101000a81548173ffffffffffffffffffffffffffffffffffffffff021916908373ffffffffffffffffffffffffffffffffffffffff160217905550600160009054906101000a900473ffffffffffffffffffffffffffffffffffffffff1673ffffffffffffffffffffffffffffffffffffffff166318160ddd6040518163ffffffff167c0100000000000000000000000000000000000000000000000000000000028152600401602060405180830381865afa15801561113b573d6000803e3d6000fd5b505050506040513d601f19601f8201168201806040525081019061115f919061367e565b50505050505050565b6000611173826116c6565b60009050919050565b60095481565b6004805461118f90613150565b80601f01602080910402602001604051908101604052809291908181526020018280546111bb90613150565b80156112085780601f106111dd57610100808354040283529160200191611208565b820191906000526020600020905b8154815290600101906020018083116111eb57829003601f168201915b505050505081565b6000808211611254576040517f08c379a000000000000000000000000000000000000000000000000000000000815260040161124b906131ce565b60405180910390fd5b6000600b60009054906101000a900473ffffffffffffffffffffffffffffffffffffffff16905060008173ffffffffffffffffffffffffffffffffffffffff1663a9059cbb86866040518363ffffffff167c01000000000000000000000000000000000000000000000000000000000281526004016112d49291906136ab565b6020604051808303816000875af11580156112f3573d6000803e3d6000fd5b505050506040513d601f19601f820116820180604052508101906113179190613417565b905080611329576000925050506113c1565b83600c60008773ffffffffffffffffffffffffffffffffffffffff1673ffffffffffffffffffffffffffffffffffffffff16815260200190815260200160002060008282546113789190613361565b925050819055507f49995e5dd6158cf69ad3e9777c46755a1a826a446c6416992167462dad033b2a8585866040516113b2939291906136d4565b60405180910390a16001925050505b92915050565b60006113d28261175f565b60009050919050565b6000806113e66116be565b905060006006549050816006819055507f4dec04e750ca11537cabcd8a9eab06494de08da3735bc8871cd41250e190bc0461141f6117f6565b60008060006040516114349493929190613746565b60405180910390a160009250505090565b6000611452338484610819565b905092915050565b60075481565b600061146b826118ba565b60009050919050565b600061147f82611951565b60009050919050565b6000600d60008473ffffffffffffffffffffffffffffffffffffffff1673ffffffffffffffffffffffffffffffffffffffff16815260200190815260200160002060008373ffffffffffffffffffffffffffffffffffffffff1673ffffffffffffffffffffffffffffffffffffffff16815260200190815260200160002054905092915050565b600060019054906101000a900473ffffffffffffffffffffffffffffffffffffffff1681565b600181565b60008054906101000a900460ff16611587576040517f08c379a000000000000000000000000000000000000000000000000000000000815260040161157e906137d7565b60405180910390fd5b60008060006101000a81548160ff0219169083151502179055506115a96113db565b506115b53333836119ea565b5060016000806101000a81548160ff02191690831515021790555050565b60008054906101000a900460ff16611620576040517f08c379a0000000000000000000000000000000000000000000000000000000008152600401611617906137d7565b60405180910390fd5b60008060006101000a81548160ff0219169083151502179055506116426113db565b5061164e3383836119ea565b5060016000806101000a81548160ff0219169083151502179055505050565b600080600e60008473ffffffffffffffffffffffffffffffffffffffff1673ffffffffffffffffffffffffffffffffffffffff16815260200190815260200160002090508060000154915050919050565b600043905090565b60008054906101000a900460ff16611713576040517f08c379a000000000000000000000000000000000000000000000000000000000815260040161170a906137d7565b60405180910390fd5b60008060006101000a81548160ff0219169083151502179055506117356113db565b5061174233600083611c93565b60016000806101000a81548160ff02191690831515021790555050565b60008054906101000a900460ff166117ac576040517f08c379a00000000000000000000000000000000000000000000000000000000081526004016117a3906137d7565b60405180910390fd5b60008060006101000a81548160ff0219169083151502179055506117ce6113db565b506117d9338261209c565b60016000806101000a81548160ff02191690831515021790555050565b600080600160009054906101000a900473ffffffffffffffffffffffffffffffffffffffff1690508073ffffffffffffffffffffffffffffffffffffffff166370a08231306040518263ffffffff167c01000000000000000000000000000000000000000000000000000000000281526004016118739190612c95565b602060405180830381865afa158015611890573d6000803e3d6000fd5b505050506040513d601f19601f820116820180604052508101906118b4919061367e565b91505090565b60008054906101000a900460ff16611907576040517f08c379a00000000000000000000000000000000000000000000000000000000081526004016118fe906137d7565b60405180910390fd5b60008060006101000a81548160ff0219169083151502179055506119296113db565b506119343382612348565b60016000806101000a81548160ff02191690831515021790555050565b60008054906101000a900460ff1661199e576040517f08c379a0000000000000000000000000000000000000000000000000000000008152600401611995906137d7565b60405180910390fd5b60008060006101000a81548160ff0219169083151502179055506119c06113db565b506119cd33826000611c93565b60016000806101000a81548160ff02191690831515021790555050565b600080600260009054906101000a900473ffffffffffffffffffffffffffffffffffffffff1673ffffffffffffffffffffffffffffffffffffffff166324008a62308787876040518563ffffffff167c0100000000000000000000000000000000000000000000000000000000028152600401611a6a94939291906137f7565b6020604051808303816000875af1158015611a89573d6000803e3d6000fd5b505050506040513d601f19601f82011682018060405250810190611aad919061367e565b905060008114611af2576040517f08c379a0000000000000000000000000000000000000000000000000000000008152600401611ae990613888565b60405180910390fd5b611afa6116be565b60065414611b3d576040517f08c379a0000000000000000000000000000000000000000000000000000000008152600401611b34906138f4565b60405180910390fd5b6000611b488561166d565b905060007fffffffffffffffffffffffffffffffffffffffffffffffffffffffffffffffff8514611b795784611b7b565b815b90506000611b8988836125f6565b905060008184611b999190613361565b9050600082600854611bab9190613361565b905081600e60008b73ffffffffffffffffffffffffffffffffffffffff1673ffffffffffffffffffffffffffffffffffffffff16815260200190815260200160002060000181905550600754600e60008b73ffffffffffffffffffffffffffffffffffffffff1673ffffffffffffffffffffffffffffffffffffffff16815260200190815260200160002060010181905550806008819055507f1a2a22cb034d26d1854bdc6666a5b91fe25efbbb5dcad3b0355478d6f5c362a18a8a858585604051611c7b959493929190613914565b60405180910390a18296505050505050509392505050565b6000821480611ca25750600081145b611ce1576040517f08c379a0000000000000000000000000000000000000000000000000000000008152600401611cd8906139d9565b60405180910390fd5b6000806000841115611cf857839150839050611cff565b8290508291505b6000600260009054906101000a900473ffffffffffffffffffffffffffffffffffffffff1673ffffffffffffffffffffffffffffffffffffffff1663eabe7d913088866040518463ffffffff167c0100000000000000000000000000000000000000000000000000000000028152600401611d7c93929190613a1a565b6020604051808303816000875af1158015611d9b573d6000803e3d6000fd5b505050506040513d601f19601f82011682018060405250810190611dbf919061367e565b905060008114611e04576040517f08c379a0000000000000000000000000000000000000000000000000000000008152600401611dfb90613888565b60405180910390fd5b611e0c6116be565b60065414611e4f576040517f08c379a0000000000000000000000000000000000000000000000000000000008152600401611e46906138f4565b60405180910390fd5b81611e586117f6565b1015611e99576040517f08c379a0000000000000000000000000000000000000000000000000000000008152600401611e9090613a9d565b60405180910390fd5b82600a54611ea79190613361565b600a8190555082600c60008873ffffffffffffffffffffffffffffffffffffffff1673ffffffffffffffffffffffffffffffffffffffff16815260200190815260200160002054611ef89190613361565b600c60008873ffffffffffffffffffffffffffffffffffffffff1673ffffffffffffffffffffffffffffffffffffffff16815260200190815260200160002081905550611f45868361287c565b3073ffffffffffffffffffffffffffffffffffffffff168673ffffffffffffffffffffffffffffffffffffffff167fddf252ad1be2c89b69c2b068fc378daa952ba7f163c4a11628f55a4df523b3ef85604051611fa29190612c6b565b60405180910390a37fe5b754fb1abb7f01b499791d0b820ae3b6af3424ac1c59768edb53f4ec31a929868385604051611fdd93929190613abd565b60405180910390a1600260009054906101000a900473ffffffffffffffffffffffffffffffffffffffff1673ffffffffffffffffffffffffffffffffffffffff166351dff989308885876040518563ffffffff167c01000000000000000000000000000000000000000000000000000000000281526004016120629493929190613af4565b600060405180830381600087803b15801561207c57600080fd5b505af1158015612090573d6000803e3d6000fd5b50505050505050505050565b6000600260009054906101000a900473ffffffffffffffffffffffffffffffffffffffff1673ffffffffffffffffffffffffffffffffffffffff16634ef4c3e13085856040518463ffffffff167c010000000000000000000000000000000000000000000000000000000002815260040161211993929190613b39565b6020604051808303816000875af1158015612138573d6000803e3d6000fd5b505050506040513d601f19601f8201168201806040525081019061215c919061367e565b9050600081146121a1576040517f08c379a000000000000000000000000000000000000000000000000000000000815260040161219890613bbc565b60405180910390fd5b6121a96116be565b600654146121ec576040517f08c379a00000000000000000000000000000000000000000000000000000000081526004016121e390613c28565b60405180910390fd5b60006121f884846125f6565b9050600081905080600a5461220d9190613395565b600a8190555080600c60008773ffffffffffffffffffffffffffffffffffffffff1673ffffffffffffffffffffffffffffffffffffffff1681526020019081526020016000205461225e9190613395565b600c60008773ffffffffffffffffffffffffffffffffffffffff1673ffffffffffffffffffffffffffffffffffffffff168152602001908152602001600020819055507f4c209b5fc8ad50758f13e2e1088ba56a560dff690a1c6fef26394f4c03821c4f8583836040516122d4939291906136d4565b60405180910390a18473ffffffffffffffffffffffffffffffffffffffff163073ffffffffffffffffffffffffffffffffffffffff167fddf252ad1be2c89b69c2b068fc378daa952ba7f163c4a11628f55a4df523b3ef836040516123399190612c6b565b60405180910390a35050505050565b6000600260009054906101000a900473ffffffffffffffffffffffffffffffffffffffff1673ffffffffffffffffffffffffffffffffffffffff1663da3d454c3085856040518463ffffffff167c01000000000000000000000000000000000000000000000000000000000281526004016123c593929190613a1a565b6020604051808303816000875af11580156123e4573d6000803e3d6000fd5b505050506040513d601f19601f82011682018060405250810190612408919061367e565b90506000811461244d576040517f08c379a000000000000000000000000000000000000000000000000000000000815260040161244490613888565b60405180910390fd5b6124556116be565b60065414612498576040517f08c379a000000000000000000000000000000000000000000000000000000000815260040161248f906138f4565b60405180910390fd5b816124a16117f6565b116124e1576040517f08c379a00000000000000000000000000000000000000000000000000000000081526004016124d890613a9d565b60405180910390fd5b60006124ec8461166d565b9050600083826124fc9190613395565b905060008460085461250e9190613395565b905081600e60008873ffffffffffffffffffffffffffffffffffffffff1673ffffffffffffffffffffffffffffffffffffffff16815260200190815260200160002060000181905550600754600e60008873ffffffffffffffffffffffffffffffffffffffff1673ffffffffffffffffffffffffffffffffffffffff16815260200190815260200160002060010181905550806008819055506125b1868661287c565b7f13ed6866d4e1ee6da46f845c46d7e54120883d75c5ea9a2dacc1c4ca8984ab80868684846040516125e69493929190613c48565b60405180910390a1505050505050565b600080600160009054906101000a900473ffffffffffffffffffffffffffffffffffffffff169050600081905060008273ffffffffffffffffffffffffffffffffffffffff166370a08231306040518263ffffffff167c010000000000000000000000000000000000000000000000000000000002815260040161267a9190612c95565b602060405180830381865afa158015612697573d6000803e3d6000fd5b505050506040513d601f19601f820116820180604052508101906126bb919061367e565b90508173ffffffffffffffffffffffffffffffffffffffff166323b872dd8730886040518463ffffffff167c010000000000000000000000000000000000000000000000000000000002815260040161271693929190613b39565b6020604051808303816000875af1158015612735573d6000803e3d6000fd5b505050506040513d601f19601f820116820180604052508101906127599190613417565b5060003d60008114612772576020811461277c57600080fd5b6000199150612788565b60206000803e60005191505b50806127c9576040517f08c379a00000000000000000000000000000000000000000000000000000000081526004016127c090613cd9565b60405180910390fd5b60008473ffffffffffffffffffffffffffffffffffffffff166370a08231306040518263ffffffff167c01000000000000000000000000000000000000000000000000000000000281526004016128209190612c95565b602060405180830381865afa15801561283d573d6000803e3d6000fd5b505050506040513d601f19601f82011682018060405250810190612861919061367e565b9050828161286f9190613361565b9550505050505092915050565b6000600160009054906101000a900473ffffffffffffffffffffffffffffffffffffffff1690508073ffffffffffffffffffffffffffffffffffffffff1663a9059cbb84846040518363ffffffff167c01000000000000000000000000000000000000000000000000000000000281526004016128fa929190613cf9565b6020604051808303816000875af1158015612919573d6000803e3d6000fd5b505050506040513d601f19601f8201168201806040525081019061293d9190613417565b5060003d60008114612956576020811461296057600080fd5b600019915061296c565b60206000803e60005191505b50806129ad576040517f08c379a00000000000000000000000000000000000000000000000000000000081526004016129a490613d6e565b60405180910390fd5b50505050565b8280546129bf90613150565b90600052602060002090601f0160209004810192826129e15760008555612a28565b82601f106129fa57805160ff1916838001178555612a28565b82800160010185558215612a28579182015b82811115612a27578251825591602001919060010190612a0c565b5b509050612a359190612a39565b5090565b5b80821115612a52576000816000905550600101612a3a565b5090565b600081519050919050565b600082825260208201905092915050565b60005b83811015612a90578082015181840152602081019050612a75565b83811115612a9f576000848401525b50505050565b6000601f19601f8301169050919050565b6000612ac182612a56565b612acb8185612a61565b9350612adb818560208601612a72565b612ae481612aa5565b840191505092915050565b60006020820190508181036000830152612b098184612ab6565b905092915050565b6000604051905090565b600080fd5b600080fd5b600073ffffffffffffffffffffffffffffffffffffffff82169050919050565b6000612b5082612b25565b9050919050565b612b6081612b45565b8114612b6b57600080fd5b50565b600081359050612b7d81612b57565b92915050565b6000819050919050565b612b9681612b83565b8114612ba157600080fd5b50565b600081359050612bb381612b8d565b92915050565b60008060408385031215612bd057612bcf612b1b565b5b6000612bde85828601612b6e565b9250506020612bef85828601612ba4565b9150509250929050565b60008115159050919050565b612c0e81612bf9565b82525050565b6000602082019050612c296000830184612c05565b92915050565b600060208284031215612c4557612c44612b1b565b5b6000612c5384828501612ba4565b91505092915050565b612c6581612b83565b82525050565b6000602082019050612c806000830184612c5c565b92915050565b612c8f81612b45565b82525050565b6000602082019050612caa6000830184612c86565b92915050565b600080600060608486031215612cc957612cc8612b1b565b5b6000612cd786828701612b6e565b9350506020612ce886828701612b6e565b9250506040612cf986828701612ba4565b9150509250925092565b600060ff82169050919050565b612d1981612d03565b82525050565b6000602082019050612d346000830184612d10565b92915050565b6000612d4582612b45565b9050919050565b612d5581612d3a565b8114612d6057600080fd5b50565b600081359050612d7281612d4c565b92915050565b600060208284031215612d8e57612d8d612b1b565b5b6000612d9c84828501612d63565b91505092915050565b6000819050919050565b6000612dca612dc5612dc084612b25565b612da5565b612b25565b9050919050565b6000612ddc82612daf565b9050919050565b6000612dee82612dd1565b9050919050565b612dfe81612de3565b82525050565b6000602082019050612e196000830184612df5565b92915050565b600060208284031215612e3557612e34612b1b565b5b6000612e4384828501612b6e565b91505092915050565b6000608082019050612e616000830187612c5c565b612e6e6020830186612c5c565b612e7b6040830185612c5c565b612e886060830184612c5c565b95945050505050565b600080fd5b600080fd5b7f4e487b7100000000000000000000000000000000000000000000000000000000600052604160045260246000fd5b612ed382612aa5565b810181811067ffffffffffffffff82111715612ef257612ef1612e9b565b5b80604052505050565b6000612f05612b11565b9050612f118282612eca565b919050565b600067ffffffffffffffff821115612f3157612f30612e9b565b5b612f3a82612aa5565b9050602081019050919050565b82818337600083830152505050565b6000612f69612f6484612f16565b612efb565b905082815260208101848484011115612f8557612f84612e96565b5b612f90848285612f47565b509392505050565b600082601f830112612fad57612fac612e91565b5b8135612fbd848260208601612f56565b91505092915050565b612fcf81612d03565b8114612fda57600080fd5b50565b600081359050612fec81612fc6565b92915050565b600080600080600060a0868803121561300e5761300d612b1b565b5b600061301c88828901612b6e565b955050602061302d88828901612d63565b945050604086013567ffffffffffffffff81111561304e5761304d612b20565b5b61305a88828901612f98565b935050606086013567ffffffffffffffff81111561307b5761307a612b20565b5b61308788828901612f98565b925050608061309888828901612fdd565b9150509295509295909350565b600080604083850312156130bc576130bb612b1b565b5b60006130ca85828601612b6e565b92505060206130db85828601612b6e565b9150509250929050565b60006130f082612b25565b9050919050565b613100816130e5565b82525050565b600060208201905061311b60008301846130f7565b92915050565b7f4e487b7100000000000000000000000000000000000000000000000000000000600052602260045260246000fd5b6000600282049050600182168061316857607f821691505b6020821081141561317c5761317b613121565b5b50919050565b7f616d6f756e74206d7573742062652067726561746572207468616e2030000000600082015250565b60006131b8601d83612a61565b91506131c382613182565b602082019050919050565b600060208201905081810360008301526131e7816131ab565b9050919050565b7f63616e6e6f74207472616e7366657220746f2073656c66000000000000000000600082015250565b6000613224601783612a61565b915061322f826131ee565b602082019050919050565b6000602082019050818103600083015261325381613217565b9050919050565b7f6e6f7420656e6f7567682062616c616e63650000000000000000000000000000600082015250565b6000613290601283612a61565b915061329b8261325a565b602082019050919050565b600060208201905081810360008301526132bf81613283565b9050919050565b7f6e6f7420656e6f75676820616c6c6f77616e6365000000000000000000000000600082015250565b60006132fc601483612a61565b9150613307826132c6565b602082019050919050565b6000602082019050818103600083015261332b816132ef565b9050919050565b7f4e487b7100000000000000000000000000000000000000000000000000000000600052601160045260246000fd5b600061336c82612b83565b915061337783612b83565b92508282101561338a57613389613332565b5b828203905092915050565b60006133a082612b83565b91506133ab83612b83565b9250827fffffffffffffffffffffffffffffffffffffffffffffffffffffffffffffffff038211156133e0576133df613332565b5b828201905092915050565b6133f481612bf9565b81146133ff57600080fd5b50565b600081519050613411816133eb565b92915050565b60006020828403121561342d5761342c612b1b565b5b600061343b84828501613402565b91505092915050565b7f6d61726b6572206d6574686f642072657475726e65642066616c736500000000600082015250565b600061347a601c83612a61565b915061348582613444565b602082019050919050565b600060208201905081810360008301526134a98161346d565b9050919050565b60006040820190506134c56000830185612df5565b6134d26020830184612df5565b9392505050565b7f6f6e6c792061646d696e206d617920696e697469616c697a6520746865206d6160008201527f726b657400000000000000000000000000000000000000000000000000000000602082015250565b6000613535602483612a61565b9150613540826134d9565b604082019050919050565b6000602082019050818103600083015261356481613528565b9050919050565b7f6d61726b6574206d6179206f6e6c7920626520696e697469616c697a6564206f60008201527f6e63650000000000000000000000000000000000000000000000000000000000602082015250565b60006135c7602383612a61565b91506135d28261356b565b604082019050919050565b600060208201905081810360008301526135f6816135ba565b9050919050565b7f73657474696e6720636f6d7074726f6c6c6572206661696c6564000000000000600082015250565b6000613633601a83612a61565b915061363e826135fd565b602082019050919050565b6000602082019050818103600083015261366281613626565b9050919050565b60008151905061367881612b8d565b92915050565b60006020828403121561369457613693612b1b565b5b60006136a284828501613669565b91505092915050565b60006040820190506136c06000830185612c86565b6136cd6020830184612c5c565b9392505050565b60006060820190506136e96000830186612c86565b6136f66020830185612c5c565b6137036040830184612c5c565b949350505050565b6000819050919050565b600061373061372b6137268461370b565b612da5565b612b83565b9050919050565b61374081613715565b82525050565b600060808201905061375b6000830187612c5c565b6137686020830186613737565b6137756040830185613737565b6137826060830184613737565b95945050505050565b7f72652d656e746572656400000000000000000000000000000000000000000000600082015250565b60006137c1600a83612a61565b91506137cc8261378b565b602082019050919050565b600060208201905081810360008301526137f0816137b4565b9050919050565b600060808201905061380c6000830187612c86565b6138196020830186612c86565b6138266040830185612c86565b6138336060830184612c5c565b95945050505050565b7f52656465656d204e6f7420416c6c6f7765640000000000000000000000000000600082015250565b6000613872601283612a61565b915061387d8261383c565b602082019050919050565b600060208201905081810360008301526138a181613865565b9050919050565b7f43757272656e7420426c6f636b204e756d626572206e6f7420657175616c7300600082015250565b60006138de601f83612a61565b91506138e9826138a8565b602082019050919050565b6000602082019050818103600083015261390d816138d1565b9050919050565b600060a0820190506139296000830188612c86565b6139366020830187612c86565b6139436040830186612c5c565b6139506060830185612c5c565b61395d6080830184612c5c565b9695505050505050565b7f6f6e65206f662072656465656d546f6b656e73496e206f722072656465656d4160008201527f6d6f756e74496e206d757374206265207a65726f000000000000000000000000602082015250565b60006139c3603483612a61565b91506139ce82613967565b604082019050919050565b600060208201905081810360008301526139f2816139b6565b9050919050565b6000613a0482612dd1565b9050919050565b613a14816139f9565b82525050565b6000606082019050613a2f6000830186612c86565b613a3c6020830185613a0b565b613a496040830184612c5c565b949350505050565b7f496e73756666696369656e74204361736820696e746f2070726f746f636f6c00600082015250565b6000613a87601f83612a61565b9150613a9282613a51565b602082019050919050565b60006020820190508181036000830152613ab681613a7a565b9050919050565b6000606082019050613ad26000830186613a0b565b613adf6020830185612c5c565b613aec6040830184612c5c565b949350505050565b6000608082019050613b096000830187612c86565b613b166020830186613a0b565b613b236040830185612c5c565b613b306060830184612c5c565b95945050505050565b6000606082019050613b4e6000830186612c86565b613b5b6020830185612c86565b613b686040830184612c5c565b949350505050565b7f4d494e54204e4f5420414c4c4f57454400000000000000000000000000000000600082015250565b6000613ba6601083612a61565b9150613bb182613b70565b602082019050919050565b60006020820190508181036000830152613bd581613b99565b9050919050565b7f4e4f54205448452053414d4520424c4f434b204e554d42455200000000000000600082015250565b6000613c12601983612a61565b9150613c1d82613bdc565b602082019050919050565b60006020820190508181036000830152613c4181613c05565b9050919050565b6000608082019050613c5d6000830187613a0b565b613c6a6020830186612c5c565b613c776040830185612c5c565b613c846060830184612c5c565b95945050505050565b7f544f4b454e5f5452414e534645525f494e5f4641494c45440000000000000000600082015250565b6000613cc3601883612a61565b9150613cce82613c8d565b602082019050919050565b60006020820190508181036000830152613cf281613cb6565b9050919050565b6000604082019050613d0e6000830185613a0b565b613d1b6020830184612c5c565b9392505050565b7f544f4b454e5f5452414e534645525f4f55545f4641494c454400000000000000600082015250565b6000613d58601983612a61565b9150613d6382613d22565b602082019050919050565b60006020820190508181036000830152613d8781613d4b565b905091905056fea264697066735822122076b6088fd9130bd1c16f3fde585b8c697b8061d56d72a7975bfc96ba27e4c15364736f6c634300080c0033",
  "immutableReferences": {},
  "source": "// SPDX-License-Identifier: UNLICENSED\r\npragma solidity >=0.7.0 <0.9.0;\r\n\r\nimport \"./IBEP20.sol\";\r\nimport \"./BTokenInterfaces.sol\";\r\nimport \"./ComptrollerInterface.sol\";\r\nimport \"@openzeppelin/contracts/access/Ownable.sol\";\r\n\r\ncontract BToken is BTokenInterface {\r\n\r\n    function initialize(\r\n        address underlyingContract_,\r\n        ComptrollerInterface comptroller_,\r\n        string memory name_,\r\n        string memory symbol_,\r\n        uint8 decimal_\r\n    ) public {\r\n\r\n        require(msg.sender == admin, \"only admin may initialize the market\");\r\n        require(accrualBlockNumber == 0 && borrowIndex == 0, \"market may only be initialized once\");\r\n        \r\n        // Set the comptroller\r\n        uint err = _setComptroller(comptroller_);\r\n        require(err == 0, \"setting comptroller failed\");\r\n        comptroller = comptroller_;\r\n\r\n        // Initialize block number and borrow index (block number mocks depend on comptroller being set)\r\n        accrualBlockNumber = _getBlockNumber();\r\n\r\n        name = name_;\r\n        symbol = symbol_;\r\n        decimals = decimal_;\r\n\r\n        // The counter starts true to prevent changing it from zero to non-zero (i.e. smaller cost/refund)\r\n        _notEntered = true;\r\n        \r\n        // Set underlying and sanity check it\r\n        underlying = underlyingContract_;\r\n        IBEP20(underlying).totalSupply();\r\n    }\r\n\r\n    /** Users functions */\r\n\r\n    function transfer(address dst, uint256 amount)\r\n        public\r\n        override\r\n        returns (bool success)\r\n    {\r\n        return transferFrom(msg.sender, dst, amount);\r\n    }\r\n\r\n    function transferFrom(\r\n        address src,\r\n        address dst,\r\n        uint256 amount\r\n    ) public override returns (bool success) {\r\n        require(amount > 0, \"amount must be greater than 0\");\r\n        require(src != dst, \"cannot transfer to self\");\r\n\r\n        uint256 balance = balanceOf(src);\r\n        require(balance >= amount, \"not enough balance\");\r\n\r\n        uint256 allowances = transferAllowances[src][msg.sender];\r\n        require(allowances >= amount, \"not enough allowance\");\r\n\r\n        accountTokens[src] -= amount;\r\n        accountTokens[dst] += amount;\r\n        transferAllowances[src][msg.sender] -= amount;\r\n\r\n        emit Transfer(src, dst, amount);\r\n        return true;\r\n    }\r\n\r\n    /**\r\n     * @notice Get the token balance of the `owner`\r\n     * @param owner The address of the account to query\r\n     * @return The number of tokens owned by `owner`\r\n     */\r\n    function balanceOf(address owner) public view override returns (uint256) {\r\n        return accountTokens[owner];\r\n    }\r\n\r\n    /**\r\n     * @notice Approve `spender` to transfer up to `amount` from `src`\r\n     * @dev This will overwrite the approval amount for `spender`\r\n     *  and is subject to issues noted [here](https://eips.ethereum.org/EIPS/eip-20#approve)\r\n     * @param spender The address of the account which may transfer tokens\r\n     * @param amount The number of tokens that are approved (-1 means infinite)\r\n     * @return Whether or not the approval succeeded\r\n     */\r\n    function approve(address spender, uint256 amount)\r\n        external\r\n        override\r\n        returns (bool)\r\n    {\r\n        address src = msg.sender;\r\n        transferAllowances[src][spender] = amount;\r\n        emit Approval(src, spender, amount);\r\n        return true;\r\n    }\r\n\r\n    /**\r\n     * @notice Get the current allowance from `owner` for `spender`\r\n     * @param owner The address of the account which owns the tokens to be spent\r\n     * @param spender The address of the account which may transfer tokens\r\n     * @return The number of tokens allowed to be spent (-1 means infinite)\r\n     */\r\n    function allowance(address owner, address spender)\r\n        external\r\n        view\r\n        override\r\n        returns (uint256)\r\n    {\r\n        return transferAllowances[owner][spender];\r\n    }\r\n\r\n    /*** User Interface ***/\r\n\r\n    /**\r\n     * @notice Sender supplies assets into the market and receives cTokens in exchange\r\n     * @dev Accrues interest whether or not the operation succeeds, unless reverted\r\n     * @param mintAmount The amount of the underlying asset to supply\r\n     * @return uint 0=success, otherwise a failure (see ErrorReporter.sol for details)\r\n     */\r\n    function mint(uint mintAmount) override external returns (uint) {\r\n        mintInternal(mintAmount);\r\n        return 0;\r\n    }\r\n\r\n\r\n     /**\r\n     * @notice Sender redeems cTokens in exchange for the underlying asset\r\n     * @dev Accrues interest whether or not the operation succeeds, unless reverted\r\n     * @param redeemTokens The number of cTokens to redeem into underlying\r\n     * @return uint 0=success, otherwise a failure (see ErrorReporter.sol for details)\r\n     */\r\n    function redeem(uint redeemTokens) override external returns (uint) {\r\n        redeemInternal(redeemTokens);\r\n        return 0;\r\n    }\r\n\r\n     /**\r\n     * @notice Sender redeems cTokens in exchange for the underlying asset\r\n     * @dev Accrues interest whether or not the operation succeeds, unless reverted\r\n     * @param redeemAmount The number of cTokens to redeem into underlying\r\n     * @return uint 0=success, otherwise a failure (see ErrorReporter.sol for details)\r\n     */\r\n    function redeemUnderlying(uint redeemAmount) override external returns (uint) {\r\n         redeemUnderlyingInternal(redeemAmount);\r\n        return 0;\r\n    }\r\n    \r\n\r\n\r\n        /**\r\n     * @notice Applies accrued interest to total borrows and reserves\r\n     * @dev This calculates interest accrued from the last checkpointed block\r\n     *   up to the current block and writes new checkpoint to storage.\r\n     */\r\n    function accrueInterest() virtual override public returns (uint) {\r\n        /* Remember the initial block number */\r\n        uint currentBlockNumber = _getBlockNumber();\r\n        uint accrualBlockNumberPrior = accrualBlockNumber;\r\n\r\n        /* Short-circuit accumulating 0 interest */\r\n        if (accrualBlockNumberPrior == currentBlockNumber) {\r\n            // return 0;\r\n        }\r\n\r\n        //TODO ADD INTEREST CALCULATION\r\n\r\n        /* We write the previously calculated values into storage */\r\n        accrualBlockNumber = currentBlockNumber;\r\n        \r\n        /* We emit an AccrueInterest event */\r\n        emit AccrueInterest(getCashPrior(), 0, 0, 0);\r\n\r\n        return 0;\r\n    }\r\n\r\n\r\n      /**\r\n     * @notice Sender supplies assets into the market and receives cTokens in exchange\r\n     * @dev Accrues interest whether or not the operation succeeds, unless reverted\r\n     * @param mintAmount The amount of the underlying asset to supply\r\n     */\r\n    function mintInternal(uint mintAmount) internal  nonReentrant {\r\n        //TODO ADD INTEREST\r\n        accrueInterest();\r\n\r\n        // mintFresh emits the actual Mint event if successful and logs on errors, so we don't need to\r\n        mintFresh(msg.sender, mintAmount);\r\n    }\r\n\r\n    \r\n    /**\r\n     * @notice Sender redeems cTokens in exchange for the underlying asset\r\n     * @dev Accrues interest whether or not the operation succeeds, unless reverted\r\n     * @param redeemTokens The number of cTokens to redeem into underlying\r\n     */\r\n    function redeemInternal(uint redeemTokens) internal  nonReentrant {\r\n        //TODO ADD INTEREST\r\n        accrueInterest();\r\n        // redeemFresh emits redeem-specific logs on errors, so we don't need to\r\n        redeemFresh(payable(msg.sender), redeemTokens, 0);\r\n    }\r\n\r\n    /**\r\n     * @notice Sender redeems cTokens in exchange for the underlying asset\r\n     * @dev Accrues interest whether or not the operation succeeds, unless reverted\r\n     * @param redeemAmount The number of cTokens to redeem into underlying\r\n     */\r\n    function redeemUnderlyingInternal(uint redeemAmount) internal nonReentrant {\r\n        //TODO ADD INTEREST\r\n        accrueInterest();\r\n        // redeemFresh emits redeem-specific logs on errors, so we don't need to\r\n        redeemFresh(payable(msg.sender), 0, redeemAmount);\r\n    }\r\n\r\n    /**\r\n     * @notice Sender borrows assets from the protocol to their own address\r\n     * @param borrowAmount The amount of the underlying asset to borrow\r\n     * @return uint 0=success, otherwise a failure (see ErrorReporter.sol for details)\r\n     */\r\n    function borrow(uint borrowAmount) override external returns (uint) {\r\n        borrowInternal(borrowAmount);\r\n        return 0;\r\n    }\r\n\r\n    /**\r\n     * @notice Sender repays their own borrow\r\n     * @param repayAmount The amount to repay, or -1 for the full outstanding amount\r\n     * @return uint 0=success, otherwise a failure (see ErrorReporter.sol for details)\r\n     */\r\n    function repayBorrow(uint repayAmount) override external returns (uint) {\r\n        repayBorrowInternal(repayAmount);\r\n        return 0;\r\n    }\r\n\r\n    /**\r\n     * @notice Sender repays a borrow belonging to borrower\r\n     * @param borrower the account with the debt being payed off\r\n     * @param repayAmount The amount to repay, or -1 for the full outstanding amount\r\n     * @return uint 0=success, otherwise a failure (see ErrorReporter.sol for details)\r\n     */\r\n    function repayBorrowBehalf(address borrower, uint repayAmount) override external returns (uint) {\r\n        repayBorrowBehalfInternal(borrower, repayAmount);\r\n        return 0;\r\n    }\r\n\r\n\r\n      /**\r\n     * @notice User supplies assets into the market and receives cTokens in exchange\r\n     * @dev Assumes interest has already been accrued up to the current block\r\n     * @param minter The address of the account which is supplying the assets\r\n     * @param mintAmount The amount of the underlying asset to supply\r\n     */\r\n    function mintFresh(address minter, uint mintAmount) internal {\r\n        /* Fail if mint not allowed */\r\n        uint allowed = comptroller.mintAllowed(address(this), minter, mintAmount);\r\n        require(allowed == 0, \"MINT NOT ALLOWED\");\r\n\r\n        /* Verify market's block number equals current block number */\r\n        require(accrualBlockNumber == _getBlockNumber(), \"NOT THE SAME BLOCK NUMBER\");\r\n        \r\n        uint actualMintAmount = doTransferIn(minter, mintAmount);\r\n        //TODO EXCHANGERATE\r\n        //uint mintTokens = div_(actualMintAmount, exchangeRate);\r\n        uint mintTokens =  actualMintAmount;\r\n\r\n        /* We calculate the new total supply of cTokens and minter token balance, checking for overflow: */\r\n        totalSupply = totalSupply + mintTokens;\r\n        accountTokens[minter] = accountTokens[minter] + mintTokens;\r\n\r\n        /* We emit a Mint event, and a Transfer event */\r\n        emit Mint(minter, actualMintAmount, mintTokens);\r\n        emit Transfer(address(this), minter, mintTokens);\r\n\r\n    }\r\n\r\n    /**\r\n     * @notice User redeems cTokens in exchange for the underlying asset\r\n     * @dev Assumes interest has already been accrued up to the current block\r\n     * @param redeemer The address of the account which is redeeming the tokens\r\n     * @param redeemTokensIn The number of cTokens to redeem into underlying (only one of redeemTokensIn or redeemAmountIn may be non-zero)\r\n     * @param redeemAmountIn The number of underlying tokens to receive from redeeming cTokens (only one of redeemTokensIn or redeemAmountIn may be non-zero)\r\n     */\r\n    function redeemFresh(address payable redeemer, uint redeemTokensIn, uint redeemAmountIn) internal {\r\n        require(redeemTokensIn == 0 || redeemAmountIn == 0, \"one of redeemTokensIn or redeemAmountIn must be zero\");\r\n\r\n        uint redeemTokens;\r\n        uint redeemAmount;\r\n        /* If redeemTokensIn > 0: */\r\n        if (redeemTokensIn > 0) {\r\n            /*\r\n             * We calculate the exchange rate and the amount of underlying to be redeemed:\r\n             *  redeemTokens = redeemTokensIn\r\n             *  redeemAmount = redeemTokensIn x exchangeRateCurrent\r\n             */\r\n            redeemTokens = redeemTokensIn;\r\n            redeemAmount = redeemTokensIn;\r\n        } else {\r\n            /*\r\n             * We get the current exchange rate and calculate the amount to be redeemed:\r\n             *  redeemTokens = redeemAmountIn / exchangeRate\r\n             *  redeemAmount = redeemAmountIn\r\n             */\r\n            redeemAmount = redeemAmountIn; \r\n            redeemTokens = redeemAmountIn;\r\n        }\r\n\r\n        /* Fail if redeem not allowed */\r\n        uint allowed = comptroller.redeemAllowed(address(this), redeemer, redeemTokens);\r\n        require(allowed == 0, \"Redeem Not Allowed\");\r\n    \r\n        /* Verify market's block number equals current block number */\r\n        require(accrualBlockNumber == _getBlockNumber(), \"Current Block Number not equals\");\r\n\r\n        /* Fail gracefully if protocol has insufficient cash */\r\n        require(getCashPrior() >= redeemAmount, \"Insufficient Cash into protocol\");\r\n\r\n        /////////////////////////\r\n        // EFFECTS & INTERACTIONS\r\n        // (No safe failures beyond this point)\r\n\r\n\r\n        /*\r\n         * We write the previously calculated values into storage.\r\n         *  Note: Avoid token reentrancy attacks by writing reduced supply before external transfer.\r\n         */\r\n        totalSupply = totalSupply - redeemTokens;\r\n        accountTokens[redeemer] = accountTokens[redeemer] - redeemTokens;\r\n\r\n        /*\r\n         * We invoke doTransferOut for the redeemer and the redeemAmount.\r\n         *  Note: The cToken must handle variations between ERC-20 and ETH underlying.\r\n         *  On success, the cToken has redeemAmount less of cash.\r\n         *  doTransferOut reverts if anything goes wrong, since we can't be sure if side effects occurred.\r\n         */\r\n        doTransferOut(redeemer, redeemAmount);\r\n\r\n        /* We emit a Transfer event, and a Redeem event */\r\n        emit Transfer(redeemer, address(this), redeemTokens);\r\n        emit Redeem(redeemer, redeemAmount, redeemTokens);\r\n\r\n        /* We call the defense hook */\r\n        comptroller.redeemVerify(address(this), redeemer, redeemAmount, redeemTokens);\r\n    }\r\n\r\n\r\n     /**\r\n      * @notice Sender borrows assets from the protocol to their own address\r\n      * @param borrowAmount The amount of the underlying asset to borrow\r\n      */\r\n    function borrowInternal(uint borrowAmount) internal nonReentrant {\r\n        accrueInterest();\r\n        // borrowFresh emits borrow-specific logs on errors, so we don't need to\r\n        borrowFresh(payable(msg.sender), borrowAmount);\r\n    }\r\n\r\n     /**\r\n      * @notice Users borrow assets from the protocol to their own address\r\n      * @param borrowAmount The amount of the underlying asset to borrow\r\n      */\r\n    function borrowFresh(address payable borrower, uint borrowAmount) internal {\r\n        /* Fail if borrow not allowed */\r\n        uint allowed = comptroller.borrowAllowed(address(this), borrower, borrowAmount);\r\n        require(allowed == 0, \"Redeem Not Allowed\");\r\n    \r\n        /* Verify market's block number equals current block number */\r\n        require(accrualBlockNumber == _getBlockNumber(), \"Current Block Number not equals\");\r\n\r\n        /* Fail gracefully if protocol has insufficient cash */\r\n        require(getCashPrior() > borrowAmount, \"Insufficient Cash into protocol\");\r\n\r\n\r\n\r\n        /*\r\n         * We calculate the new borrower and total borrow balances, failing on overflow:\r\n         *  accountBorrowNew = accountBorrow + borrowAmount\r\n         *  totalBorrowsNew = totalBorrows + borrowAmount\r\n         */\r\n        uint accountBorrowsPrev = borrowBalanceStoredInternal(borrower);\r\n        uint accountBorrowsNew = accountBorrowsPrev + borrowAmount;\r\n        uint totalBorrowsNew = totalBorrows + borrowAmount;\r\n\r\n        /////////////////////////\r\n        // EFFECTS & INTERACTIONS\r\n        // (No safe failures beyond this point)\r\n\r\n        /*\r\n         * We write the previously calculated values into storage.\r\n         *  Note: Avoid token reentrancy attacks by writing increased borrow before external transfer.\r\n        `*/\r\n        accountBorrows[borrower].principal = accountBorrowsNew;\r\n        accountBorrows[borrower].interestIndex = borrowIndex;\r\n        totalBorrows = totalBorrowsNew;\r\n\r\n        /*\r\n         * We invoke doTransferOut for the borrower and the borrowAmount.\r\n         *  Note: The cToken must handle variations between ERC-20 and ETH underlying.\r\n         *  On success, the cToken borrowAmount less of cash.\r\n         *  doTransferOut reverts if anything goes wrong, since we can't be sure if side effects occurred.\r\n         */\r\n        doTransferOut(borrower, borrowAmount);\r\n\r\n        /* We emit a Borrow event */\r\n        emit Borrow(borrower, borrowAmount, accountBorrowsNew, totalBorrowsNew);\r\n    }\r\n\r\n\r\n    /**\r\n     * @notice Return the borrow balance of account based on stored data\r\n     * @param account The address whose balance should be calculated\r\n     * @return (error code, the calculated balance or 0 if error code is non-zero)\r\n     */\r\n    function borrowBalanceStoredInternal(address account) internal view returns (uint) {\r\n        /* Get borrowBalance and borrowIndex */\r\n        BorrowSnapshot storage borrowSnapshot = accountBorrows[account];\r\n        return borrowSnapshot.principal;\r\n\r\n        /* If borrowBalance = 0 then borrowIndex is likely also 0.\r\n         * Rather than failing the calculation with a division by 0, we immediately return 0 in this case.\r\n         */\r\n        if (borrowSnapshot.principal == 0) {\r\n            return 0;\r\n        }\r\n\r\n        /* Calculate new borrow balance using the interest index:\r\n         *  recentBorrowBalance = borrower.borrowBalance * market.borrowIndex / borrower.borrowIndex\r\n         */\r\n        uint principalTimesIndex = borrowSnapshot.principal * borrowIndex;\r\n        return principalTimesIndex / borrowSnapshot.interestIndex;\r\n    }\r\n\r\n\r\n    /**\r\n     * @notice Sender repays their own borrow\r\n     * @param repayAmount The amount to repay, or -1 for the full outstanding amount\r\n     */\r\n    function repayBorrowInternal(uint repayAmount) internal nonReentrant {\r\n        accrueInterest();\r\n        // repayBorrowFresh emits repay-borrow-specific logs on errors, so we don't need to\r\n        repayBorrowFresh(msg.sender, msg.sender, repayAmount);\r\n    }\r\n\r\n    /**\r\n     * @notice Sender repays a borrow belonging to borrower\r\n     * @param borrower the account with the debt being payed off\r\n     * @param repayAmount The amount to repay, or -1 for the full outstanding amount\r\n     */\r\n    function repayBorrowBehalfInternal(address borrower, uint repayAmount) internal nonReentrant {\r\n        accrueInterest();\r\n        // repayBorrowFresh emits repay-borrow-specific logs on errors, so we don't need to\r\n        repayBorrowFresh(msg.sender, borrower, repayAmount);\r\n    }\r\n\r\n      /**\r\n     * @notice Borrows are repaid by another user (possibly the borrower).\r\n     * @param payer the account paying off the borrow\r\n     * @param borrower the account with the debt being payed off\r\n     * @param repayAmount the amount of underlying tokens being returned, or -1 for the full outstanding amount\r\n     * @return (uint) the actual repayment amount.\r\n     */\r\n    function repayBorrowFresh(address payer, address borrower, uint repayAmount) internal returns (uint) {\r\n        /* Fail if repayBorrow not allowed */\r\n        uint allowed = comptroller.repayBorrowAllowed(address(this), payer, borrower, repayAmount);\r\n        require(allowed == 0, \"Redeem Not Allowed\");\r\n    \r\n        /* Verify market's block number equals current block number */\r\n        require(accrualBlockNumber == _getBlockNumber(), \"Current Block Number not equals\");\r\n\r\n\r\n        /* We fetch the amount the borrower owes, with accumulated interest */\r\n        uint accountBorrowsPrev = borrowBalanceStoredInternal(borrower);\r\n\r\n        /* If repayAmount == -1, repayAmount = accountBorrows */\r\n        uint repayAmountFinal = repayAmount == type(uint).max ? accountBorrowsPrev : repayAmount;\r\n\r\n        uint actualRepayAmount = doTransferIn(payer, repayAmountFinal);\r\n\r\n        uint accountBorrowsNew = accountBorrowsPrev - actualRepayAmount;\r\n        uint totalBorrowsNew = totalBorrows - actualRepayAmount;\r\n\r\n        /* We write the previously calculated values into storage */\r\n        accountBorrows[borrower].principal = accountBorrowsNew;\r\n        accountBorrows[borrower].interestIndex = borrowIndex;\r\n        totalBorrows = totalBorrowsNew;\r\n\r\n        /* We emit a RepayBorrow event */\r\n        emit RepayBorrow(payer, borrower, actualRepayAmount, accountBorrowsNew, totalBorrowsNew);\r\n\r\n        return actualRepayAmount;\r\n    }\r\n\r\n\r\n\r\n\r\n\r\n\r\n    /*** Safe Token ***/\r\n\r\n    /**\r\n     * @notice Gets balance of this contract in terms of the underlying\r\n     * @dev This excludes the value of the current message, if any\r\n     * @return The quantity of underlying tokens owned by this contract\r\n     */\r\n    function getCashPrior() virtual internal view returns (uint) {\r\n        IBEP20 token = IBEP20(underlying);\r\n        return token.balanceOf(address(this));\r\n    }\r\n\r\n    /**\r\n     *  Prevent This: https://medium.com/coinmonks/missing-return-value-bug-at-least-130-tokens-affected-d67bf08521ca\r\n     */\r\n    function doTransferIn(address from, uint amount) virtual internal returns (uint) {\r\n        // Read from storage once\r\n        address underlying_ = underlying;\r\n        IBEP20 token = IBEP20(underlying_);\r\n        uint balanceBefore = IBEP20(underlying_).balanceOf(address(this));\r\n        token.transferFrom(from, address(this), amount);\r\n\r\n        bool success;\r\n        assembly {\r\n            switch returndatasize()\r\n                case 0 {                       // This is a non-standard ERC-20\r\n                    success := not(0)          // set success to true\r\n                }\r\n                case 32 {                      // This is a compliant ERC-20\r\n                    returndatacopy(0, 0, 32)\r\n                    success := mload(0)        // Set `success = returndata` of override external call\r\n                }\r\n                default {                      // This is an excessively non-compliant ERC-20, revert.\r\n                    revert(0, 0)\r\n                }\r\n        }\r\n        require(success, \"TOKEN_TRANSFER_IN_FAILED\");\r\n\r\n        // Calculate the amount that was *actually* transferred\r\n        uint balanceAfter = IBEP20(underlying_).balanceOf(address(this));\r\n        return balanceAfter - balanceBefore;   // underflow already checked above, just subtract\r\n    }\r\n\r\n    /**\r\n     *  Prevent This: https://medium.com/coinmonks/missing-return-value-bug-at-least-130-tokens-affected-d67bf08521ca\r\n     */\r\n    function doTransferOut(address payable to, uint amount) virtual internal {\r\n        IBEP20 token = IBEP20(underlying);\r\n        token.transfer(to, amount);\r\n\r\n        bool success;\r\n        assembly {\r\n            switch returndatasize()\r\n                case 0 {                      // This is a non-standard ERC-20\r\n                    success := not(0)          // set success to true\r\n                }\r\n                case 32 {                     // This is a compliant ERC-20\r\n                    returndatacopy(0, 0, 32)\r\n                    success := mload(0)        // Set `success = returndata` of override external call\r\n                }\r\n                default {                     // This is an excessively non-compliant ERC-20, revert.\r\n                    revert(0, 0)\r\n                }\r\n        }\r\n        require(success, \"TOKEN_TRANSFER_OUT_FAILED\");\r\n    }\r\n\r\n\r\n\r\n\r\n    /**\r\n     * @notice Burn tokens for the minter\r\n     */\r\n    function burn(address burner, uint256 amount)\r\n        public\r\n        override\r\n        returns (bool)\r\n    {\r\n        require(amount > 0, \"amount must be greater than 0\");\r\n\r\n        IBEP20 tokenContract = IBEP20(underlyingContract);\r\n\r\n        bool success = tokenContract.transfer(burner, amount);\r\n\r\n        if (!success) {\r\n            return false;\r\n        }\r\n\r\n        accountTokens[burner] -= amount;\r\n        emit Burn(burner, amount, amount);\r\n        return true;\r\n    }\r\n\r\n     /**\r\n     * @notice Get a snapshot of the account's balances, and the cached exchange rate\r\n     * @dev This is used by comptroller to more efficiently perform liquidity checks.\r\n     * @param account Address of the account to snapshot\r\n     * @return (possible error, token balance, borrow balance, exchange rate mantissa)\r\n     */\r\n    function getAccountInfo(address account) override external view returns (uint, uint, uint, uint) {\r\n        return (\r\n            0,\r\n            accountTokens[account],\r\n            borrowBalanceStoredInternal(account),\r\n            //TODO FOR RATE INTEREST\r\n            0\r\n        );\r\n    }\r\n\r\n\r\n\r\n\r\n\r\n\r\n\r\n     /**\r\n     * @dev Function to simply retrieve block number\r\n     *  This exists mainly for inheriting test contracts to stub this result.\r\n     */\r\n    function _getBlockNumber() virtual internal view returns (uint) {\r\n        return block.number;\r\n    }\r\n\r\n      /**\r\n      * @notice Sets a new comptroller for the market\r\n      * @dev Admin function to set a new comptroller\r\n      * @return uint 0=success, otherwise a failure (see ErrorReporter.sol for details)\r\n      */\r\n    function _setComptroller(ComptrollerInterface newComptroller) override public returns (uint) {\r\n        // Check caller is admin\r\n        require(msg.sender == admin);\r\n\r\n        ComptrollerInterface oldComptroller = comptroller;\r\n        // Ensure invoke comptroller.isComptroller() returns true\r\n        require(newComptroller.isComptroller(), \"marker method returned false\");\r\n\r\n        // Set market's comptroller to newComptroller\r\n        comptroller = newComptroller;\r\n\r\n        // Emit NewComptroller(oldComptroller, newComptroller)\r\n        emit NewComptroller(oldComptroller, newComptroller);\r\n\r\n        return 0;\r\n    }\r\n\r\n      /*** Reentrancy Guard ***/\r\n\r\n    /**\r\n     * @dev Prevents a contract from calling itself, directly or indirectly.\r\n     */\r\n    modifier nonReentrant() {\r\n        require(_notEntered, \"re-entered\");\r\n        _notEntered = false;\r\n        _;\r\n        _notEntered = true; // get a gas-refund post-Istanbul\r\n    }\r\n\r\n\r\n}\r\n",
  "sourcePath": "C:\\Lab\\Solidity\\BabyLoans-Protocol\\contracts\\BToken.sol",
  "compiler": {
    "name": "solc",
    "version": "0.8.12+commit.f00d7308.Emscripten.clang"
  },
  "schemaVersion": "3.4.7",
  "updatedAt": "2022-07-01T09:30:49.751Z",
  "devdoc": {
    "kind": "dev",
    "methods": {
      "_setComptroller(address)": {
        "details": "Admin function to set a new comptroller",
        "returns": {
          "_0": "uint 0=success, otherwise a failure (see ErrorReporter.sol for details)"
        }
      },
      "accrueInterest()": {
        "details": "This calculates interest accrued from the last checkpointed block   up to the current block and writes new checkpoint to storage."
      },
      "allowance(address,address)": {
        "params": {
          "owner": "The address of the account which owns the tokens to be spent",
          "spender": "The address of the account which may transfer tokens"
        },
        "returns": {
          "_0": "The number of tokens allowed to be spent (-1 means infinite)"
        }
      },
      "approve(address,uint256)": {
        "details": "This will overwrite the approval amount for `spender`  and is subject to issues noted [here](https://eips.ethereum.org/EIPS/eip-20#approve)",
        "params": {
          "amount": "The number of tokens that are approved (-1 means infinite)",
          "spender": "The address of the account which may transfer tokens"
        },
        "returns": {
          "_0": "Whether or not the approval succeeded"
        }
      },
      "balanceOf(address)": {
        "params": {
          "owner": "The address of the account to query"
        },
        "returns": {
          "_0": "The number of tokens owned by `owner`"
        }
      },
      "borrow(uint256)": {
        "params": {
          "borrowAmount": "The amount of the underlying asset to borrow"
        },
        "returns": {
          "_0": "uint 0=success, otherwise a failure (see ErrorReporter.sol for details)"
        }
      },
      "getAccountInfo(address)": {
        "details": "This is used by comptroller to more efficiently perform liquidity checks.",
        "params": {
          "account": "Address of the account to snapshot"
        },
        "returns": {
          "_0": "(possible error, token balance, borrow balance, exchange rate mantissa)"
        }
      },
      "mint(uint256)": {
        "details": "Accrues interest whether or not the operation succeeds, unless reverted",
        "params": {
          "mintAmount": "The amount of the underlying asset to supply"
        },
        "returns": {
          "_0": "uint 0=success, otherwise a failure (see ErrorReporter.sol for details)"
        }
      },
      "redeem(uint256)": {
        "details": "Accrues interest whether or not the operation succeeds, unless reverted",
        "params": {
          "redeemTokens": "The number of cTokens to redeem into underlying"
        },
        "returns": {
          "_0": "uint 0=success, otherwise a failure (see ErrorReporter.sol for details)"
        }
      },
      "redeemUnderlying(uint256)": {
        "details": "Accrues interest whether or not the operation succeeds, unless reverted",
        "params": {
          "redeemAmount": "The number of cTokens to redeem into underlying"
        },
        "returns": {
          "_0": "uint 0=success, otherwise a failure (see ErrorReporter.sol for details)"
        }
      },
      "repayBorrow(uint256)": {
        "params": {
          "repayAmount": "The amount to repay, or -1 for the full outstanding amount"
        },
        "returns": {
          "_0": "uint 0=success, otherwise a failure (see ErrorReporter.sol for details)"
        }
      },
      "repayBorrowBehalf(address,uint256)": {
        "params": {
          "borrower": "the account with the debt being payed off",
          "repayAmount": "The amount to repay, or -1 for the full outstanding amount"
        },
        "returns": {
          "_0": "uint 0=success, otherwise a failure (see ErrorReporter.sol for details)"
        }
      }
    },
    "version": 1
  },
  "userdoc": {
    "events": {
      "AccrueInterest(uint256,uint256,uint256,uint256)": {
        "notice": "Event emitted when interest is accrued"
      },
      "Approval(address,address,uint256)": {
        "notice": "EIP20 Approval event"
      },
      "Borrow(address,uint256,uint256,uint256)": {
        "notice": "Event emitted when underlying is borrowed"
      },
      "Mint(address,uint256,uint256)": {
        "notice": "Event emitted when tokens are minted"
      },
      "NewComptroller(address,address)": {
        "notice": "Event emitted when comptroller is changed"
      },
      "Redeem(address,uint256,uint256)": {
        "notice": "Event emitted when tokens are redeemed"
      },
      "RepayBorrow(address,address,uint256,uint256,uint256)": {
        "notice": "Event emitted when a borrow is repaid"
      },
      "Transfer(address,address,uint256)": {
        "notice": "EIP20 Transfer event"
      }
    },
    "kind": "user",
    "methods": {
      "_setComptroller(address)": {
        "notice": "Sets a new comptroller for the market"
      },
      "accrualBlockNumber()": {
        "notice": "Block number that interest was last accrued at"
      },
      "accrueInterest()": {
        "notice": "Applies accrued interest to total borrows and reserves"
      },
      "admin()": {
        "notice": "Administrator for this contract"
      },
      "allowance(address,address)": {
        "notice": "Get the current allowance from `owner` for `spender`"
      },
      "approve(address,uint256)": {
        "notice": "Approve `spender` to transfer up to `amount` from `src`"
      },
      "balanceOf(address)": {
        "notice": "Get the token balance of the `owner`"
      },
      "borrow(uint256)": {
        "notice": "Sender borrows assets from the protocol to their own address"
      },
      "borrowIndex()": {
        "notice": "Accumulator of the total earned interest rate since the opening of the market"
      },
      "burn(address,uint256)": {
        "notice": "Burn tokens for the minter"
      },
      "comptroller()": {
        "notice": "Contract which oversees inter-cToken operations"
      },
      "decimals()": {
        "notice": "EIP-20 token decimals for this token"
      },
      "getAccountInfo(address)": {
        "notice": "Get a snapshot of the account's balances, and the cached exchange rate"
      },
      "isBToken()": {
        "notice": "Indicator that this is a CToken contract (for inspection)"
      },
      "mint(uint256)": {
        "notice": "Sender supplies assets into the market and receives cTokens in exchange"
      },
      "name()": {
        "notice": "EIP-20 token name for this token"
      },
      "redeem(uint256)": {
        "notice": "Sender redeems cTokens in exchange for the underlying asset"
      },
      "redeemUnderlying(uint256)": {
        "notice": "Sender redeems cTokens in exchange for the underlying asset"
      },
      "repayBorrow(uint256)": {
        "notice": "Sender repays their own borrow"
      },
      "repayBorrowBehalf(address,uint256)": {
        "notice": "Sender repays a borrow belonging to borrower"
      },
      "symbol()": {
        "notice": "EIP-20 token symbol for this token"
      },
      "totalBorrows()": {
        "notice": "Total amount of outstanding borrows of the underlying in this market"
      },
      "totalReserves()": {
        "notice": "Total amount of reserves of the underlying held in this market"
      },
      "totalSupply()": {
        "notice": "Total number of tokens in circulation"
      },
      "transfer(address,uint256)": {
        "notice": "Users functions "
      },
      "underlying()": {
        "notice": "Underlying asset for this CToken"
      },
      "underlyingContract()": {
        "notice": "Underlyint contract address"
      }
    },
    "version": 1
  }
}