{
  "contractName": "BToken",
  "abi": [
    {
      "anonymous": false,
      "inputs": [
        {
          "indexed": false,
          "internalType": "uint256",
          "name": "cashPrior",
          "type": "uint256"
        },
        {
          "indexed": false,
          "internalType": "uint256",
          "name": "interestAccumulated",
          "type": "uint256"
        },
        {
          "indexed": false,
          "internalType": "uint256",
          "name": "borrowIndex",
          "type": "uint256"
        },
        {
          "indexed": false,
          "internalType": "uint256",
          "name": "totalBorrows",
          "type": "uint256"
        }
      ],
      "name": "AccrueInterest",
      "type": "event"
    },
    {
      "anonymous": false,
      "inputs": [
        {
          "indexed": true,
          "internalType": "address",
          "name": "owner",
          "type": "address"
        },
        {
          "indexed": true,
          "internalType": "address",
          "name": "spender",
          "type": "address"
        },
        {
          "indexed": false,
          "internalType": "uint256",
          "name": "amount",
          "type": "uint256"
        }
      ],
      "name": "Approval",
      "type": "event"
    },
    {
      "anonymous": false,
      "inputs": [
        {
          "indexed": false,
          "internalType": "address",
          "name": "borrower",
          "type": "address"
        },
        {
          "indexed": false,
          "internalType": "uint256",
          "name": "borrowAmount",
          "type": "uint256"
        },
        {
          "indexed": false,
          "internalType": "uint256",
          "name": "accountBorrows",
          "type": "uint256"
        },
        {
          "indexed": false,
          "internalType": "uint256",
          "name": "totalBorrows",
          "type": "uint256"
        }
      ],
      "name": "Borrow",
      "type": "event"
    },
    {
      "anonymous": false,
      "inputs": [
        {
          "indexed": false,
          "internalType": "address",
          "name": "burner",
          "type": "address"
        },
        {
          "indexed": false,
          "internalType": "uint256",
          "name": "burnAmount",
          "type": "uint256"
        },
        {
          "indexed": false,
          "internalType": "uint256",
          "name": "redeemTokens",
          "type": "uint256"
        }
      ],
      "name": "Burn",
      "type": "event"
    },
    {
      "anonymous": false,
      "inputs": [
        {
          "indexed": false,
          "internalType": "address",
          "name": "minter",
          "type": "address"
        },
        {
          "indexed": false,
          "internalType": "uint256",
          "name": "mintAmount",
          "type": "uint256"
        },
        {
          "indexed": false,
          "internalType": "uint256",
          "name": "mintTokens",
          "type": "uint256"
        }
      ],
      "name": "Mint",
      "type": "event"
    },
    {
      "anonymous": false,
      "inputs": [
        {
          "indexed": false,
          "internalType": "contract ComptrollerInterface",
          "name": "oldComptroller",
          "type": "address"
        },
        {
          "indexed": false,
          "internalType": "contract ComptrollerInterface",
          "name": "newComptroller",
          "type": "address"
        }
      ],
      "name": "NewComptroller",
      "type": "event"
    },
    {
      "anonymous": false,
      "inputs": [
        {
          "indexed": false,
          "internalType": "address",
          "name": "redeemer",
          "type": "address"
        },
        {
          "indexed": false,
          "internalType": "uint256",
          "name": "redeemAmount",
          "type": "uint256"
        },
        {
          "indexed": false,
          "internalType": "uint256",
          "name": "redeemTokens",
          "type": "uint256"
        }
      ],
      "name": "Redeem",
      "type": "event"
    },
    {
      "anonymous": false,
      "inputs": [
        {
          "indexed": true,
          "internalType": "address",
          "name": "from",
          "type": "address"
        },
        {
          "indexed": true,
          "internalType": "address",
          "name": "to",
          "type": "address"
        },
        {
          "indexed": false,
          "internalType": "uint256",
          "name": "amount",
          "type": "uint256"
        }
      ],
      "name": "Transfer",
      "type": "event"
    },
    {
      "inputs": [],
      "name": "accrualBlockNumber",
      "outputs": [
        {
          "internalType": "uint256",
          "name": "",
          "type": "uint256"
        }
      ],
      "stateMutability": "view",
      "type": "function"
    },
    {
      "inputs": [],
      "name": "admin",
      "outputs": [
        {
          "internalType": "address payable",
          "name": "",
          "type": "address"
        }
      ],
      "stateMutability": "view",
      "type": "function"
    },
    {
      "inputs": [],
      "name": "borrowIndex",
      "outputs": [
        {
          "internalType": "uint256",
          "name": "",
          "type": "uint256"
        }
      ],
      "stateMutability": "view",
      "type": "function"
    },
    {
      "inputs": [],
      "name": "comptroller",
      "outputs": [
        {
          "internalType": "contract ComptrollerInterface",
          "name": "",
          "type": "address"
        }
      ],
      "stateMutability": "view",
      "type": "function"
    },
    {
      "inputs": [],
      "name": "decimals",
      "outputs": [
        {
          "internalType": "uint8",
          "name": "",
          "type": "uint8"
        }
      ],
      "stateMutability": "view",
      "type": "function"
    },
    {
      "inputs": [],
      "name": "isBToken",
      "outputs": [
        {
          "internalType": "bool",
          "name": "",
          "type": "bool"
        }
      ],
      "stateMutability": "view",
      "type": "function"
    },
    {
      "inputs": [],
      "name": "name",
      "outputs": [
        {
          "internalType": "string",
          "name": "",
          "type": "string"
        }
      ],
      "stateMutability": "view",
      "type": "function"
    },
    {
      "inputs": [],
      "name": "symbol",
      "outputs": [
        {
          "internalType": "string",
          "name": "",
          "type": "string"
        }
      ],
      "stateMutability": "view",
      "type": "function"
    },
    {
      "inputs": [],
      "name": "totalBorrows",
      "outputs": [
        {
          "internalType": "uint256",
          "name": "",
          "type": "uint256"
        }
      ],
      "stateMutability": "view",
      "type": "function"
    },
    {
      "inputs": [],
      "name": "totalReserves",
      "outputs": [
        {
          "internalType": "uint256",
          "name": "",
          "type": "uint256"
        }
      ],
      "stateMutability": "view",
      "type": "function"
    },
    {
      "inputs": [],
      "name": "totalSupply",
      "outputs": [
        {
          "internalType": "uint256",
          "name": "",
          "type": "uint256"
        }
      ],
      "stateMutability": "view",
      "type": "function"
    },
    {
      "inputs": [],
      "name": "underlying",
      "outputs": [
        {
          "internalType": "address",
          "name": "",
          "type": "address"
        }
      ],
      "stateMutability": "view",
      "type": "function"
    },
    {
      "inputs": [],
      "name": "underlyingContract",
      "outputs": [
        {
          "internalType": "address",
          "name": "",
          "type": "address"
        }
      ],
      "stateMutability": "view",
      "type": "function"
    },
    {
      "inputs": [
        {
          "internalType": "address",
          "name": "underlyingContract_",
          "type": "address"
        },
        {
          "internalType": "contract ComptrollerInterface",
          "name": "comptroller_",
          "type": "address"
        },
        {
          "internalType": "string",
          "name": "name_",
          "type": "string"
        },
        {
          "internalType": "string",
          "name": "symbol_",
          "type": "string"
        },
        {
          "internalType": "uint8",
          "name": "decimal_",
          "type": "uint8"
        }
      ],
      "name": "initialize",
      "outputs": [],
      "stateMutability": "nonpayable",
      "type": "function"
    },
    {
      "inputs": [
        {
          "internalType": "address",
          "name": "dst",
          "type": "address"
        },
        {
          "internalType": "uint256",
          "name": "amount",
          "type": "uint256"
        }
      ],
      "name": "transfer",
      "outputs": [
        {
          "internalType": "bool",
          "name": "success",
          "type": "bool"
        }
      ],
      "stateMutability": "nonpayable",
      "type": "function"
    },
    {
      "inputs": [
        {
          "internalType": "address",
          "name": "src",
          "type": "address"
        },
        {
          "internalType": "address",
          "name": "dst",
          "type": "address"
        },
        {
          "internalType": "uint256",
          "name": "amount",
          "type": "uint256"
        }
      ],
      "name": "transferFrom",
      "outputs": [
        {
          "internalType": "bool",
          "name": "success",
          "type": "bool"
        }
      ],
      "stateMutability": "nonpayable",
      "type": "function"
    },
    {
      "inputs": [
        {
          "internalType": "address",
          "name": "owner",
          "type": "address"
        }
      ],
      "name": "balanceOf",
      "outputs": [
        {
          "internalType": "uint256",
          "name": "",
          "type": "uint256"
        }
      ],
      "stateMutability": "view",
      "type": "function"
    },
    {
      "inputs": [
        {
          "internalType": "address",
          "name": "spender",
          "type": "address"
        },
        {
          "internalType": "uint256",
          "name": "amount",
          "type": "uint256"
        }
      ],
      "name": "approve",
      "outputs": [
        {
          "internalType": "bool",
          "name": "",
          "type": "bool"
        }
      ],
      "stateMutability": "nonpayable",
      "type": "function"
    },
    {
      "inputs": [
        {
          "internalType": "address",
          "name": "owner",
          "type": "address"
        },
        {
          "internalType": "address",
          "name": "spender",
          "type": "address"
        }
      ],
      "name": "allowance",
      "outputs": [
        {
          "internalType": "uint256",
          "name": "",
          "type": "uint256"
        }
      ],
      "stateMutability": "view",
      "type": "function"
    },
    {
      "inputs": [
        {
          "internalType": "uint256",
          "name": "mintAmount",
          "type": "uint256"
        }
      ],
      "name": "mint",
      "outputs": [
        {
          "internalType": "uint256",
          "name": "",
          "type": "uint256"
        }
      ],
      "stateMutability": "nonpayable",
      "type": "function"
    },
    {
      "inputs": [
        {
          "internalType": "uint256",
          "name": "redeemTokens",
          "type": "uint256"
        }
      ],
      "name": "redeem",
      "outputs": [
        {
          "internalType": "uint256",
          "name": "",
          "type": "uint256"
        }
      ],
      "stateMutability": "nonpayable",
      "type": "function"
    },
    {
      "inputs": [],
      "name": "accrueInterest",
      "outputs": [
        {
          "internalType": "uint256",
          "name": "",
          "type": "uint256"
        }
      ],
      "stateMutability": "nonpayable",
      "type": "function"
    },
    {
      "inputs": [
        {
          "internalType": "address",
          "name": "burner",
          "type": "address"
        },
        {
          "internalType": "uint256",
          "name": "amount",
          "type": "uint256"
        }
      ],
      "name": "burn",
      "outputs": [
        {
          "internalType": "bool",
          "name": "",
          "type": "bool"
        }
      ],
      "stateMutability": "nonpayable",
      "type": "function"
    },
    {
      "inputs": [
        {
          "internalType": "address",
          "name": "account",
          "type": "address"
        }
      ],
      "name": "getAccountInfo",
      "outputs": [
        {
          "internalType": "uint256",
          "name": "",
          "type": "uint256"
        },
        {
          "internalType": "uint256",
          "name": "",
          "type": "uint256"
        },
        {
          "internalType": "uint256",
          "name": "",
          "type": "uint256"
        },
        {
          "internalType": "uint256",
          "name": "",
          "type": "uint256"
        }
      ],
      "stateMutability": "view",
      "type": "function"
    },
    {
      "inputs": [
        {
          "internalType": "contract ComptrollerInterface",
          "name": "newComptroller",
          "type": "address"
        }
      ],
      "name": "_setComptroller",
      "outputs": [
        {
          "internalType": "uint256",
          "name": "",
          "type": "uint256"
        }
      ],
      "stateMutability": "nonpayable",
      "type": "function"
    }
  ],
  "bytecode": "0x608060405234801561001057600080fd5b50613212806100206000396000f3fe608060405234801561001057600080fd5b5060043610610190576000357c0100000000000000000000000000000000000000000000000000000000900480637b510fe8116100fb578063a6afed95116100b4578063db006a751161008e578063db006a751461049c578063dd62ed3e146104cc578063f851a440146104fc578063fbb623371461051a57610190565b8063a6afed9514610430578063a9059cbb1461044e578063aa5af0fd1461047e57610190565b80637b510fe8146103455780638420ce99146103785780638f840ddd1461039457806395d89b41146103b25780639dc29fac146103d0578063a0712d681461040057610190565b80634576b5db1161014d5780634576b5db1461026d57806347bd37181461029d5780635fe3b567146102bb5780636c540baf146102d95780636f307dc3146102f757806370a082311461031557610190565b806306fdde0314610195578063095ea7b3146101b357806310cfe906146101e357806318160ddd1461020157806323b872dd1461021f578063313ce5671461024f575b600080fd5b61019d610538565b6040516101aa9190612086565b60405180910390f35b6101cd60048036038101906101c89190612150565b6105c6565b6040516101da91906121ab565b60405180910390f35b6101eb6106bd565b6040516101f891906121d5565b60405180910390f35b6102096106e3565b60405161021691906121ff565b60405180910390f35b6102396004803603810190610234919061221a565b6106e9565b60405161024691906121ab565b60405180910390f35b610257610a61565b6040516102649190612289565b60405180910390f35b610287600480360381019061028291906122e2565b610a74565b60405161029491906121ff565b60405180910390f35b6102a5610c43565b6040516102b291906121ff565b60405180910390f35b6102c3610c49565b6040516102d0919061236e565b60405180910390f35b6102e1610c6f565b6040516102ee91906121ff565b60405180910390f35b6102ff610c75565b60405161030c91906121d5565b60405180910390f35b61032f600480360381019061032a9190612389565b610c9b565b60405161033c91906121ff565b60405180910390f35b61035f600480360381019061035a9190612389565b610ce4565b60405161036f94939291906123b6565b60405180910390f35b610392600480360381019061038d919061255c565b610d7d565b005b61039c61103d565b6040516103a991906121ff565b60405180910390f35b6103ba611043565b6040516103c79190612086565b60405180910390f35b6103ea60048036038101906103e59190612150565b6110d1565b6040516103f791906121ab565b60405180910390f35b61041a6004803603810190610415919061260f565b611288565b60405161042791906121ff565b60405180910390f35b61043861129c565b60405161044591906121ff565b60405180910390f35b61046860048036038101906104639190612150565b611306565b60405161047591906121ab565b60405180910390f35b61048661131b565b60405161049391906121ff565b60405180910390f35b6104b660048036038101906104b1919061260f565b611321565b6040516104c391906121ff565b60405180910390f35b6104e660048036038101906104e1919061263c565b611335565b6040516104f391906121ff565b60405180910390f35b6105046113bc565b604051610511919061269d565b60405180910390f35b6105226113e0565b60405161052f91906121ab565b60405180910390f35b60038054610545906126e7565b80601f0160208091040260200160405190810160405280929190818152602001828054610571906126e7565b80156105be5780601f10610593576101008083540402835291602001916105be565b820191906000526020600020905b8154815290600101906020018083116105a157829003601f168201915b505050505081565b60008033905082600d60008373ffffffffffffffffffffffffffffffffffffffff1673ffffffffffffffffffffffffffffffffffffffff16815260200190815260200160002060008673ffffffffffffffffffffffffffffffffffffffff1673ffffffffffffffffffffffffffffffffffffffff168152602001908152602001600020819055508373ffffffffffffffffffffffffffffffffffffffff168173ffffffffffffffffffffffffffffffffffffffff167f8c5be1e5ebec7d5bd14f71427d1e84f3dd0314c0f7b2291e5b200ac8c7c3b925856040516106aa91906121ff565b60405180910390a3600191505092915050565b600b60009054906101000a900473ffffffffffffffffffffffffffffffffffffffff1681565b600a5481565b600080821161072d576040517f08c379a000000000000000000000000000000000000000000000000000000000815260040161072490612765565b60405180910390fd5b8273ffffffffffffffffffffffffffffffffffffffff168473ffffffffffffffffffffffffffffffffffffffff16141561079c576040517f08c379a0000000000000000000000000000000000000000000000000000000008152600401610793906127d1565b60405180910390fd5b60006107a785610c9b565b9050828110156107ec576040517f08c379a00000000000000000000000000000000000000000000000000000000081526004016107e39061283d565b60405180910390fd5b6000600d60008773ffffffffffffffffffffffffffffffffffffffff1673ffffffffffffffffffffffffffffffffffffffff16815260200190815260200160002060003373ffffffffffffffffffffffffffffffffffffffff1673ffffffffffffffffffffffffffffffffffffffff168152602001908152602001600020549050838110156108b0576040517f08c379a00000000000000000000000000000000000000000000000000000000081526004016108a7906128a9565b60405180910390fd5b83600c60008873ffffffffffffffffffffffffffffffffffffffff1673ffffffffffffffffffffffffffffffffffffffff16815260200190815260200160002060008282546108ff91906128f8565b9250508190555083600c60008773ffffffffffffffffffffffffffffffffffffffff1673ffffffffffffffffffffffffffffffffffffffff1681526020019081526020016000206000828254610955919061292c565b9250508190555083600d60008873ffffffffffffffffffffffffffffffffffffffff1673ffffffffffffffffffffffffffffffffffffffff16815260200190815260200160002060003373ffffffffffffffffffffffffffffffffffffffff1673ffffffffffffffffffffffffffffffffffffffff16815260200190815260200160002060008282546109e891906128f8565b925050819055508473ffffffffffffffffffffffffffffffffffffffff168673ffffffffffffffffffffffffffffffffffffffff167fddf252ad1be2c89b69c2b068fc378daa952ba7f163c4a11628f55a4df523b3ef86604051610a4c91906121ff565b60405180910390a36001925050509392505050565b600560009054906101000a900460ff1681565b60008060009054906101000a900473ffffffffffffffffffffffffffffffffffffffff1673ffffffffffffffffffffffffffffffffffffffff163373ffffffffffffffffffffffffffffffffffffffff1614610acf57600080fd5b6000600260009054906101000a900473ffffffffffffffffffffffffffffffffffffffff1690508273ffffffffffffffffffffffffffffffffffffffff16627e3dd26040518163ffffffff167c0100000000000000000000000000000000000000000000000000000000028152600401602060405180830381865afa158015610b5c573d6000803e3d6000fd5b505050506040513d601f19601f82011682018060405250810190610b8091906129ae565b610bbf576040517f08c379a0000000000000000000000000000000000000000000000000000000008152600401610bb690612a27565b60405180910390fd5b82600260006101000a81548173ffffffffffffffffffffffffffffffffffffffff021916908373ffffffffffffffffffffffffffffffffffffffff1602179055507f7ac369dbd14fa5ea3f473ed67cc9d598964a77501540ba6751eb0b3decf5870d8184604051610c31929190612a47565b60405180910390a16000915050919050565b60085481565b600260009054906101000a900473ffffffffffffffffffffffffffffffffffffffff1681565b60065481565b600160009054906101000a900473ffffffffffffffffffffffffffffffffffffffff1681565b6000600c60008373ffffffffffffffffffffffffffffffffffffffff1673ffffffffffffffffffffffffffffffffffffffff168152602001908152602001600020549050919050565b6000806000806000600c60008773ffffffffffffffffffffffffffffffffffffffff1673ffffffffffffffffffffffffffffffffffffffff16815260200190815260200160002054600e60008873ffffffffffffffffffffffffffffffffffffffff1673ffffffffffffffffffffffffffffffffffffffff16815260200190815260200160002054600093509350935093509193509193565b60008054906101000a900473ffffffffffffffffffffffffffffffffffffffff1673ffffffffffffffffffffffffffffffffffffffff163373ffffffffffffffffffffffffffffffffffffffff1614610e0b576040517f08c379a0000000000000000000000000000000000000000000000000000000008152600401610e0290612ae2565b60405180910390fd5b6000600654148015610e1f57506000600754145b610e5e576040517f08c379a0000000000000000000000000000000000000000000000000000000008152600401610e5590612b74565b60405180910390fd5b6000610e6985610a74565b905060008114610eae576040517f08c379a0000000000000000000000000000000000000000000000000000000008152600401610ea590612be0565b60405180910390fd5b84600260006101000a81548173ffffffffffffffffffffffffffffffffffffffff021916908373ffffffffffffffffffffffffffffffffffffffff160217905550610ef76113e5565b6006819055508360039080519060200190610f13929190611f4a565b508260049080519060200190610f2a929190611f4a565b5081600560006101000a81548160ff021916908360ff16021790555085600160006101000a81548173ffffffffffffffffffffffffffffffffffffffff021916908373ffffffffffffffffffffffffffffffffffffffff160217905550600160009054906101000a900473ffffffffffffffffffffffffffffffffffffffff1673ffffffffffffffffffffffffffffffffffffffff166318160ddd6040518163ffffffff167c0100000000000000000000000000000000000000000000000000000000028152600401602060405180830381865afa158015611010573d6000803e3d6000fd5b505050506040513d601f19601f820116820180604052508101906110349190612c15565b50505050505050565b60095481565b60048054611050906126e7565b80601f016020809104026020016040519081016040528092919081815260200182805461107c906126e7565b80156110c95780601f1061109e576101008083540402835291602001916110c9565b820191906000526020600020905b8154815290600101906020018083116110ac57829003601f168201915b505050505081565b6000808211611115576040517f08c379a000000000000000000000000000000000000000000000000000000000815260040161110c90612765565b60405180910390fd5b6000600b60009054906101000a900473ffffffffffffffffffffffffffffffffffffffff16905060008173ffffffffffffffffffffffffffffffffffffffff1663a9059cbb86866040518363ffffffff167c0100000000000000000000000000000000000000000000000000000000028152600401611195929190612c42565b6020604051808303816000875af11580156111b4573d6000803e3d6000fd5b505050506040513d601f19601f820116820180604052508101906111d891906129ae565b9050806111ea57600092505050611282565b83600c60008773ffffffffffffffffffffffffffffffffffffffff1673ffffffffffffffffffffffffffffffffffffffff168152602001908152602001600020600082825461123991906128f8565b925050819055507f49995e5dd6158cf69ad3e9777c46755a1a826a446c6416992167462dad033b2a85858660405161127393929190612c6b565b60405180910390a16001925050505b92915050565b6000611293826113ed565b60009050919050565b6000806112a76113e5565b905060006006549050816006819055507f4dec04e750ca11537cabcd8a9eab06494de08da3735bc8871cd41250e190bc046112e0611403565b60008060006040516112f59493929190612cdd565b60405180910390a160009250505090565b60006113133384846106e9565b905092915050565b60075481565b600061132c826114c7565b60009050919050565b6000600d60008473ffffffffffffffffffffffffffffffffffffffff1673ffffffffffffffffffffffffffffffffffffffff16815260200190815260200160002060008373ffffffffffffffffffffffffffffffffffffffff1673ffffffffffffffffffffffffffffffffffffffff16815260200190815260200160002054905092915050565b60008054906101000a900473ffffffffffffffffffffffffffffffffffffffff1681565b600181565b600043905090565b6113f561129c565b5061140033826114df565b50565b600080600160009054906101000a900473ffffffffffffffffffffffffffffffffffffffff1690508073ffffffffffffffffffffffffffffffffffffffff166370a08231306040518263ffffffff167c010000000000000000000000000000000000000000000000000000000002815260040161148091906121d5565b602060405180830381865afa15801561149d573d6000803e3d6000fd5b505050506040513d601f19601f820116820180604052508101906114c19190612c15565b91505090565b6114cf61129c565b506114dc3382600061178b565b50565b6000600260009054906101000a900473ffffffffffffffffffffffffffffffffffffffff1673ffffffffffffffffffffffffffffffffffffffff16634ef4c3e13085856040518463ffffffff167c010000000000000000000000000000000000000000000000000000000002815260040161155c93929190612d22565b6020604051808303816000875af115801561157b573d6000803e3d6000fd5b505050506040513d601f19601f8201168201806040525081019061159f9190612c15565b9050600081146115e4576040517f08c379a00000000000000000000000000000000000000000000000000000000081526004016115db90612da5565b60405180910390fd5b6115ec6113e5565b6006541461162f576040517f08c379a000000000000000000000000000000000000000000000000000000000815260040161162690612e11565b60405180910390fd5b600061163b8484611b8d565b9050600081905080600a54611650919061292c565b600a8190555080600c60008773ffffffffffffffffffffffffffffffffffffffff1673ffffffffffffffffffffffffffffffffffffffff168152602001908152602001600020546116a1919061292c565b600c60008773ffffffffffffffffffffffffffffffffffffffff1673ffffffffffffffffffffffffffffffffffffffff168152602001908152602001600020819055507f4c209b5fc8ad50758f13e2e1088ba56a560dff690a1c6fef26394f4c03821c4f85838360405161171793929190612c6b565b60405180910390a18473ffffffffffffffffffffffffffffffffffffffff163073ffffffffffffffffffffffffffffffffffffffff167fddf252ad1be2c89b69c2b068fc378daa952ba7f163c4a11628f55a4df523b3ef8360405161177c91906121ff565b60405180910390a35050505050565b600082148061179a5750600081145b6117d9576040517f08c379a00000000000000000000000000000000000000000000000000000000081526004016117d090612ea3565b60405180910390fd5b60008060008411156117ed578391506117f1565b8290505b6000600260009054906101000a900473ffffffffffffffffffffffffffffffffffffffff1673ffffffffffffffffffffffffffffffffffffffff1663eabe7d913088866040518463ffffffff167c010000000000000000000000000000000000000000000000000000000002815260040161186e93929190612ee4565b6020604051808303816000875af115801561188d573d6000803e3d6000fd5b505050506040513d601f19601f820116820180604052508101906118b19190612c15565b9050600081146118f6576040517f08c379a00000000000000000000000000000000000000000000000000000000081526004016118ed90612f67565b60405180910390fd5b6118fe6113e5565b60065414611941576040517f08c379a000000000000000000000000000000000000000000000000000000000815260040161193890612fd3565b60405180910390fd5b8161194a611403565b1161198a576040517f08c379a00000000000000000000000000000000000000000000000000000000081526004016119819061303f565b60405180910390fd5b82600a5461199891906128f8565b600a8190555082600c60008873ffffffffffffffffffffffffffffffffffffffff1673ffffffffffffffffffffffffffffffffffffffff168152602001908152602001600020546119e991906128f8565b600c60008873ffffffffffffffffffffffffffffffffffffffff1673ffffffffffffffffffffffffffffffffffffffff16815260200190815260200160002081905550611a368683611e13565b3073ffffffffffffffffffffffffffffffffffffffff168673ffffffffffffffffffffffffffffffffffffffff167fddf252ad1be2c89b69c2b068fc378daa952ba7f163c4a11628f55a4df523b3ef85604051611a9391906121ff565b60405180910390a37fe5b754fb1abb7f01b499791d0b820ae3b6af3424ac1c59768edb53f4ec31a929868385604051611ace9392919061305f565b60405180910390a1600260009054906101000a900473ffffffffffffffffffffffffffffffffffffffff1673ffffffffffffffffffffffffffffffffffffffff166351dff989308885876040518563ffffffff167c0100000000000000000000000000000000000000000000000000000000028152600401611b539493929190613096565b600060405180830381600087803b158015611b6d57600080fd5b505af1158015611b81573d6000803e3d6000fd5b50505050505050505050565b600080600160009054906101000a900473ffffffffffffffffffffffffffffffffffffffff169050600081905060008273ffffffffffffffffffffffffffffffffffffffff166370a08231306040518263ffffffff167c0100000000000000000000000000000000000000000000000000000000028152600401611c1191906121d5565b602060405180830381865afa158015611c2e573d6000803e3d6000fd5b505050506040513d601f19601f82011682018060405250810190611c529190612c15565b90508173ffffffffffffffffffffffffffffffffffffffff166323b872dd8730886040518463ffffffff167c0100000000000000000000000000000000000000000000000000000000028152600401611cad93929190612d22565b6020604051808303816000875af1158015611ccc573d6000803e3d6000fd5b505050506040513d601f19601f82011682018060405250810190611cf091906129ae565b5060003d60008114611d095760208114611d1357600080fd5b6000199150611d1f565b60206000803e60005191505b5080611d60576040517f08c379a0000000000000000000000000000000000000000000000000000000008152600401611d5790613127565b60405180910390fd5b60008473ffffffffffffffffffffffffffffffffffffffff166370a08231306040518263ffffffff167c0100000000000000000000000000000000000000000000000000000000028152600401611db791906121d5565b602060405180830381865afa158015611dd4573d6000803e3d6000fd5b505050506040513d601f19601f82011682018060405250810190611df89190612c15565b90508281611e0691906128f8565b9550505050505092915050565b6000600160009054906101000a900473ffffffffffffffffffffffffffffffffffffffff1690508073ffffffffffffffffffffffffffffffffffffffff1663a9059cbb84846040518363ffffffff167c0100000000000000000000000000000000000000000000000000000000028152600401611e91929190613147565b6020604051808303816000875af1158015611eb0573d6000803e3d6000fd5b505050506040513d601f19601f82011682018060405250810190611ed491906129ae565b5060003d60008114611eed5760208114611ef757600080fd5b6000199150611f03565b60206000803e60005191505b5080611f44576040517f08c379a0000000000000000000000000000000000000000000000000000000008152600401611f3b906131bc565b60405180910390fd5b50505050565b828054611f56906126e7565b90600052602060002090601f016020900481019282611f785760008555611fbf565b82601f10611f9157805160ff1916838001178555611fbf565b82800160010185558215611fbf579182015b82811115611fbe578251825591602001919060010190611fa3565b5b509050611fcc9190611fd0565b5090565b5b80821115611fe9576000816000905550600101611fd1565b5090565b600081519050919050565b600082825260208201905092915050565b60005b8381101561202757808201518184015260208101905061200c565b83811115612036576000848401525b50505050565b6000601f19601f8301169050919050565b600061205882611fed565b6120628185611ff8565b9350612072818560208601612009565b61207b8161203c565b840191505092915050565b600060208201905081810360008301526120a0818461204d565b905092915050565b6000604051905090565b600080fd5b600080fd5b600073ffffffffffffffffffffffffffffffffffffffff82169050919050565b60006120e7826120bc565b9050919050565b6120f7816120dc565b811461210257600080fd5b50565b600081359050612114816120ee565b92915050565b6000819050919050565b61212d8161211a565b811461213857600080fd5b50565b60008135905061214a81612124565b92915050565b60008060408385031215612167576121666120b2565b5b600061217585828601612105565b92505060206121868582860161213b565b9150509250929050565b60008115159050919050565b6121a581612190565b82525050565b60006020820190506121c0600083018461219c565b92915050565b6121cf816120dc565b82525050565b60006020820190506121ea60008301846121c6565b92915050565b6121f98161211a565b82525050565b600060208201905061221460008301846121f0565b92915050565b600080600060608486031215612233576122326120b2565b5b600061224186828701612105565b935050602061225286828701612105565b92505060406122638682870161213b565b9150509250925092565b600060ff82169050919050565b6122838161226d565b82525050565b600060208201905061229e600083018461227a565b92915050565b60006122af826120dc565b9050919050565b6122bf816122a4565b81146122ca57600080fd5b50565b6000813590506122dc816122b6565b92915050565b6000602082840312156122f8576122f76120b2565b5b6000612306848285016122cd565b91505092915050565b6000819050919050565b600061233461232f61232a846120bc565b61230f565b6120bc565b9050919050565b600061234682612319565b9050919050565b60006123588261233b565b9050919050565b6123688161234d565b82525050565b6000602082019050612383600083018461235f565b92915050565b60006020828403121561239f5761239e6120b2565b5b60006123ad84828501612105565b91505092915050565b60006080820190506123cb60008301876121f0565b6123d860208301866121f0565b6123e560408301856121f0565b6123f260608301846121f0565b95945050505050565b600080fd5b600080fd5b7f4e487b7100000000000000000000000000000000000000000000000000000000600052604160045260246000fd5b61243d8261203c565b810181811067ffffffffffffffff8211171561245c5761245b612405565b5b80604052505050565b600061246f6120a8565b905061247b8282612434565b919050565b600067ffffffffffffffff82111561249b5761249a612405565b5b6124a48261203c565b9050602081019050919050565b82818337600083830152505050565b60006124d36124ce84612480565b612465565b9050828152602081018484840111156124ef576124ee612400565b5b6124fa8482856124b1565b509392505050565b600082601f830112612517576125166123fb565b5b81356125278482602086016124c0565b91505092915050565b6125398161226d565b811461254457600080fd5b50565b60008135905061255681612530565b92915050565b600080600080600060a08688031215612578576125776120b2565b5b600061258688828901612105565b9550506020612597888289016122cd565b945050604086013567ffffffffffffffff8111156125b8576125b76120b7565b5b6125c488828901612502565b935050606086013567ffffffffffffffff8111156125e5576125e46120b7565b5b6125f188828901612502565b925050608061260288828901612547565b9150509295509295909350565b600060208284031215612625576126246120b2565b5b60006126338482850161213b565b91505092915050565b60008060408385031215612653576126526120b2565b5b600061266185828601612105565b925050602061267285828601612105565b9150509250929050565b6000612687826120bc565b9050919050565b6126978161267c565b82525050565b60006020820190506126b2600083018461268e565b92915050565b7f4e487b7100000000000000000000000000000000000000000000000000000000600052602260045260246000fd5b600060028204905060018216806126ff57607f821691505b60208210811415612713576127126126b8565b5b50919050565b7f616d6f756e74206d7573742062652067726561746572207468616e2030000000600082015250565b600061274f601d83611ff8565b915061275a82612719565b602082019050919050565b6000602082019050818103600083015261277e81612742565b9050919050565b7f63616e6e6f74207472616e7366657220746f2073656c66000000000000000000600082015250565b60006127bb601783611ff8565b91506127c682612785565b602082019050919050565b600060208201905081810360008301526127ea816127ae565b9050919050565b7f6e6f7420656e6f7567682062616c616e63650000000000000000000000000000600082015250565b6000612827601283611ff8565b9150612832826127f1565b602082019050919050565b600060208201905081810360008301526128568161281a565b9050919050565b7f6e6f7420656e6f75676820616c6c6f77616e6365000000000000000000000000600082015250565b6000612893601483611ff8565b915061289e8261285d565b602082019050919050565b600060208201905081810360008301526128c281612886565b9050919050565b7f4e487b7100000000000000000000000000000000000000000000000000000000600052601160045260246000fd5b60006129038261211a565b915061290e8361211a565b925082821015612921576129206128c9565b5b828203905092915050565b60006129378261211a565b91506129428361211a565b9250827fffffffffffffffffffffffffffffffffffffffffffffffffffffffffffffffff03821115612977576129766128c9565b5b828201905092915050565b61298b81612190565b811461299657600080fd5b50565b6000815190506129a881612982565b92915050565b6000602082840312156129c4576129c36120b2565b5b60006129d284828501612999565b91505092915050565b7f6d61726b6572206d6574686f642072657475726e65642066616c736500000000600082015250565b6000612a11601c83611ff8565b9150612a1c826129db565b602082019050919050565b60006020820190508181036000830152612a4081612a04565b9050919050565b6000604082019050612a5c600083018561235f565b612a69602083018461235f565b9392505050565b7f6f6e6c792061646d696e206d617920696e697469616c697a6520746865206d6160008201527f726b657400000000000000000000000000000000000000000000000000000000602082015250565b6000612acc602483611ff8565b9150612ad782612a70565b604082019050919050565b60006020820190508181036000830152612afb81612abf565b9050919050565b7f6d61726b6574206d6179206f6e6c7920626520696e697469616c697a6564206f60008201527f6e63650000000000000000000000000000000000000000000000000000000000602082015250565b6000612b5e602383611ff8565b9150612b6982612b02565b604082019050919050565b60006020820190508181036000830152612b8d81612b51565b9050919050565b7f73657474696e6720636f6d7074726f6c6c6572206661696c6564000000000000600082015250565b6000612bca601a83611ff8565b9150612bd582612b94565b602082019050919050565b60006020820190508181036000830152612bf981612bbd565b9050919050565b600081519050612c0f81612124565b92915050565b600060208284031215612c2b57612c2a6120b2565b5b6000612c3984828501612c00565b91505092915050565b6000604082019050612c5760008301856121c6565b612c6460208301846121f0565b9392505050565b6000606082019050612c8060008301866121c6565b612c8d60208301856121f0565b612c9a60408301846121f0565b949350505050565b6000819050919050565b6000612cc7612cc2612cbd84612ca2565b61230f565b61211a565b9050919050565b612cd781612cac565b82525050565b6000608082019050612cf260008301876121f0565b612cff6020830186612cce565b612d0c6040830185612cce565b612d196060830184612cce565b95945050505050565b6000606082019050612d3760008301866121c6565b612d4460208301856121c6565b612d5160408301846121f0565b949350505050565b7f4d494e54204e4f5420414c4c4f57454400000000000000000000000000000000600082015250565b6000612d8f601083611ff8565b9150612d9a82612d59565b602082019050919050565b60006020820190508181036000830152612dbe81612d82565b9050919050565b7f4e4f54205448452053414d4520424c4f434b204e554d42455200000000000000600082015250565b6000612dfb601983611ff8565b9150612e0682612dc5565b602082019050919050565b60006020820190508181036000830152612e2a81612dee565b9050919050565b7f6f6e65206f662072656465656d546f6b656e73496e206f722072656465656d4160008201527f6d6f756e74496e206d757374206265207a65726f000000000000000000000000602082015250565b6000612e8d603483611ff8565b9150612e9882612e31565b604082019050919050565b60006020820190508181036000830152612ebc81612e80565b9050919050565b6000612ece8261233b565b9050919050565b612ede81612ec3565b82525050565b6000606082019050612ef960008301866121c6565b612f066020830185612ed5565b612f1360408301846121f0565b949350505050565b7f52656465656d204e6f7420416c6c6f7765640000000000000000000000000000600082015250565b6000612f51601283611ff8565b9150612f5c82612f1b565b602082019050919050565b60006020820190508181036000830152612f8081612f44565b9050919050565b7f43757272656e7420426c6f636b204e756d626572206e6f7420657175616c7300600082015250565b6000612fbd601f83611ff8565b9150612fc882612f87565b602082019050919050565b60006020820190508181036000830152612fec81612fb0565b9050919050565b7f496e73756666696369656e74204361736820696e746f2070726f746f636f6c00600082015250565b6000613029601f83611ff8565b915061303482612ff3565b602082019050919050565b600060208201905081810360008301526130588161301c565b9050919050565b60006060820190506130746000830186612ed5565b61308160208301856121f0565b61308e60408301846121f0565b949350505050565b60006080820190506130ab60008301876121c6565b6130b86020830186612ed5565b6130c560408301856121f0565b6130d260608301846121f0565b95945050505050565b7f544f4b454e5f5452414e534645525f494e5f4641494c45440000000000000000600082015250565b6000613111601883611ff8565b915061311c826130db565b602082019050919050565b6000602082019050818103600083015261314081613104565b9050919050565b600060408201905061315c6000830185612ed5565b61316960208301846121f0565b9392505050565b7f544f4b454e5f5452414e534645525f4f55545f4641494c454400000000000000600082015250565b60006131a6601983611ff8565b91506131b182613170565b602082019050919050565b600060208201905081810360008301526131d581613199565b905091905056fea264697066735822122016636b6a0d8517dabe10b1892dff44c258d4beececcc5bdead04dd84f9a4863a64736f6c634300080c0033",
  "immutableReferences": {},
  "source": "// SPDX-License-Identifier: UNLICENSED\r\npragma solidity >=0.7.0 <0.9.0;\r\n\r\nimport \"./IBEP20.sol\";\r\nimport \"./BTokenInterfaces.sol\";\r\nimport \"./ComptrollerInterface.sol\";\r\nimport \"@openzeppelin/contracts/access/Ownable.sol\";\r\n\r\ncontract BToken is BTokenInterface {\r\n\r\n    function initialize(\r\n        address underlyingContract_,\r\n        ComptrollerInterface comptroller_,\r\n        string memory name_,\r\n        string memory symbol_,\r\n        uint8 decimal_\r\n    ) public {\r\n\r\n        require(msg.sender == admin, \"only admin may initialize the market\");\r\n        require(accrualBlockNumber == 0 && borrowIndex == 0, \"market may only be initialized once\");\r\n        \r\n        // Set the comptroller\r\n        uint err = _setComptroller(comptroller_);\r\n        require(err == 0, \"setting comptroller failed\");\r\n        comptroller = comptroller_;\r\n\r\n        // Initialize block number and borrow index (block number mocks depend on comptroller being set)\r\n        accrualBlockNumber = _getBlockNumber();\r\n\r\n        name = name_;\r\n        symbol = symbol_;\r\n        decimals = decimal_;\r\n        \r\n        // Set underlying and sanity check it\r\n        underlying = underlyingContract_;\r\n        IBEP20(underlying).totalSupply();\r\n    }\r\n\r\n    /** Users functions */\r\n\r\n    function transfer(address dst, uint256 amount)\r\n        public\r\n        override\r\n        returns (bool success)\r\n    {\r\n        return transferFrom(msg.sender, dst, amount);\r\n    }\r\n\r\n    function transferFrom(\r\n        address src,\r\n        address dst,\r\n        uint256 amount\r\n    ) public override returns (bool success) {\r\n        require(amount > 0, \"amount must be greater than 0\");\r\n        require(src != dst, \"cannot transfer to self\");\r\n\r\n        uint256 balance = balanceOf(src);\r\n        require(balance >= amount, \"not enough balance\");\r\n\r\n        uint256 allowances = transferAllowances[src][msg.sender];\r\n        require(allowances >= amount, \"not enough allowance\");\r\n\r\n        accountTokens[src] -= amount;\r\n        accountTokens[dst] += amount;\r\n        transferAllowances[src][msg.sender] -= amount;\r\n\r\n        emit Transfer(src, dst, amount);\r\n        return true;\r\n    }\r\n\r\n    /**\r\n     * @notice Get the token balance of the `owner`\r\n     * @param owner The address of the account to query\r\n     * @return The number of tokens owned by `owner`\r\n     */\r\n    function balanceOf(address owner) public view override returns (uint256) {\r\n        return accountTokens[owner];\r\n    }\r\n\r\n    /**\r\n     * @notice Approve `spender` to transfer up to `amount` from `src`\r\n     * @dev This will overwrite the approval amount for `spender`\r\n     *  and is subject to issues noted [here](https://eips.ethereum.org/EIPS/eip-20#approve)\r\n     * @param spender The address of the account which may transfer tokens\r\n     * @param amount The number of tokens that are approved (-1 means infinite)\r\n     * @return Whether or not the approval succeeded\r\n     */\r\n    function approve(address spender, uint256 amount)\r\n        external\r\n        override\r\n        returns (bool)\r\n    {\r\n        address src = msg.sender;\r\n        transferAllowances[src][spender] = amount;\r\n        emit Approval(src, spender, amount);\r\n        return true;\r\n    }\r\n\r\n    /**\r\n     * @notice Get the current allowance from `owner` for `spender`\r\n     * @param owner The address of the account which owns the tokens to be spent\r\n     * @param spender The address of the account which may transfer tokens\r\n     * @return The number of tokens allowed to be spent (-1 means infinite)\r\n     */\r\n    function allowance(address owner, address spender)\r\n        external\r\n        view\r\n        override\r\n        returns (uint256)\r\n    {\r\n        return transferAllowances[owner][spender];\r\n    }\r\n\r\n    /*** User Interface ***/\r\n\r\n    /**\r\n     * @notice Sender supplies assets into the market and receives cTokens in exchange\r\n     * @dev Accrues interest whether or not the operation succeeds, unless reverted\r\n     * @param mintAmount The amount of the underlying asset to supply\r\n     * @return uint 0=success, otherwise a failure (see ErrorReporter.sol for details)\r\n     */\r\n    function mint(uint mintAmount) override external returns (uint) {\r\n        mintInternal(mintAmount);\r\n        return 0;\r\n    }\r\n\r\n\r\n     /**\r\n     * @notice Sender redeems cTokens in exchange for the underlying asset\r\n     * @dev Accrues interest whether or not the operation succeeds, unless reverted\r\n     * @param redeemTokens The number of cTokens to redeem into underlying\r\n     * @return uint 0=success, otherwise a failure (see ErrorReporter.sol for details)\r\n     */\r\n    function redeem(uint redeemTokens) override external returns (uint) {\r\n        redeemInternal(redeemTokens);\r\n        return 0;\r\n    }\r\n\r\n\r\n        /**\r\n     * @notice Applies accrued interest to total borrows and reserves\r\n     * @dev This calculates interest accrued from the last checkpointed block\r\n     *   up to the current block and writes new checkpoint to storage.\r\n     */\r\n    function accrueInterest() virtual override public returns (uint) {\r\n        /* Remember the initial block number */\r\n        uint currentBlockNumber = _getBlockNumber();\r\n        uint accrualBlockNumberPrior = accrualBlockNumber;\r\n\r\n        /* Short-circuit accumulating 0 interest */\r\n        if (accrualBlockNumberPrior == currentBlockNumber) {\r\n            // return 0;\r\n        }\r\n\r\n        //TODO ADD INTEREST CALCULATION\r\n\r\n        /* We write the previously calculated values into storage */\r\n        accrualBlockNumber = currentBlockNumber;\r\n        \r\n        /* We emit an AccrueInterest event */\r\n        emit AccrueInterest(getCashPrior(), 0, 0, 0);\r\n\r\n        return 0;\r\n    }\r\n\r\n\r\n      /**\r\n     * @notice Sender supplies assets into the market and receives cTokens in exchange\r\n     * @dev Accrues interest whether or not the operation succeeds, unless reverted\r\n     * @param mintAmount The amount of the underlying asset to supply\r\n     */\r\n    function mintInternal(uint mintAmount) internal{\r\n        //TODO ADD INTEREST\r\n        accrueInterest();\r\n\r\n        // mintFresh emits the actual Mint event if successful and logs on errors, so we don't need to\r\n        mintFresh(msg.sender, mintAmount);\r\n    }\r\n\r\n    \r\n    /**\r\n     * @notice Sender redeems cTokens in exchange for the underlying asset\r\n     * @dev Accrues interest whether or not the operation succeeds, unless reverted\r\n     * @param redeemTokens The number of cTokens to redeem into underlying\r\n     */\r\n    function redeemInternal(uint redeemTokens) internal{  // TODO nonReentrant {\r\n        //TODO ADD INTEREST\r\n        accrueInterest();\r\n        // redeemFresh emits redeem-specific logs on errors, so we don't need to\r\n        redeemFresh(payable(msg.sender), redeemTokens, 0);\r\n    }\r\n\r\n      /**\r\n     * @notice User supplies assets into the market and receives cTokens in exchange\r\n     * @dev Assumes interest has already been accrued up to the current block\r\n     * @param minter The address of the account which is supplying the assets\r\n     * @param mintAmount The amount of the underlying asset to supply\r\n     */\r\n    function mintFresh(address minter, uint mintAmount) internal {\r\n        /* Fail if mint not allowed */\r\n        uint allowed = comptroller.mintAllowed(address(this), minter, mintAmount);\r\n        require(allowed == 0, \"MINT NOT ALLOWED\");\r\n\r\n        /* Verify market's block number equals current block number */\r\n        require(accrualBlockNumber == _getBlockNumber(), \"NOT THE SAME BLOCK NUMBER\");\r\n        \r\n        uint actualMintAmount = doTransferIn(minter, mintAmount);\r\n        //TODO EXCHANGERATE\r\n        //uint mintTokens = div_(actualMintAmount, exchangeRate);\r\n        uint mintTokens =  actualMintAmount;\r\n\r\n        /* We calculate the new total supply of cTokens and minter token balance, checking for overflow: */\r\n        totalSupply = totalSupply + mintTokens;\r\n        accountTokens[minter] = accountTokens[minter] + mintTokens;\r\n\r\n        /* We emit a Mint event, and a Transfer event */\r\n        emit Mint(minter, actualMintAmount, mintTokens);\r\n        emit Transfer(address(this), minter, mintTokens);\r\n\r\n    }\r\n\r\n    /**\r\n     * @notice User redeems cTokens in exchange for the underlying asset\r\n     * @dev Assumes interest has already been accrued up to the current block\r\n     * @param redeemer The address of the account which is redeeming the tokens\r\n     * @param redeemTokensIn The number of cTokens to redeem into underlying (only one of redeemTokensIn or redeemAmountIn may be non-zero)\r\n     * @param redeemAmountIn The number of underlying tokens to receive from redeeming cTokens (only one of redeemTokensIn or redeemAmountIn may be non-zero)\r\n     */\r\n    function redeemFresh(address payable redeemer, uint redeemTokensIn, uint redeemAmountIn) internal {\r\n        require(redeemTokensIn == 0 || redeemAmountIn == 0, \"one of redeemTokensIn or redeemAmountIn must be zero\");\r\n\r\n        uint redeemTokens;\r\n        uint redeemAmount;\r\n        /* If redeemTokensIn > 0: */\r\n        if (redeemTokensIn > 0) {\r\n            /*\r\n             * We calculate the exchange rate and the amount of underlying to be redeemed:\r\n             *  redeemTokens = redeemTokensIn\r\n             *  redeemAmount = redeemTokensIn x exchangeRateCurrent\r\n             */\r\n            redeemTokens = redeemTokensIn;\r\n        } else {\r\n            /*\r\n             * We get the current exchange rate and calculate the amount to be redeemed:\r\n             *  redeemTokens = redeemAmountIn / exchangeRate\r\n             *  redeemAmount = redeemAmountIn\r\n             */\r\n            redeemAmount = redeemAmountIn;\r\n        }\r\n\r\n        /* Fail if redeem not allowed */\r\n        uint allowed = comptroller.redeemAllowed(address(this), redeemer, redeemTokens);\r\n        require(allowed == 0, \"Redeem Not Allowed\");\r\n    \r\n        /* Verify market's block number equals current block number */\r\n        require(accrualBlockNumber == _getBlockNumber(), \"Current Block Number not equals\");\r\n\r\n        /* Fail gracefully if protocol has insufficient cash */\r\n        require(getCashPrior() > redeemAmount, \"Insufficient Cash into protocol\");\r\n\r\n        /////////////////////////\r\n        // EFFECTS & INTERACTIONS\r\n        // (No safe failures beyond this point)\r\n\r\n\r\n        /*\r\n         * We write the previously calculated values into storage.\r\n         *  Note: Avoid token reentrancy attacks by writing reduced supply before external transfer.\r\n         */\r\n        totalSupply = totalSupply - redeemTokens;\r\n        accountTokens[redeemer] = accountTokens[redeemer] - redeemTokens;\r\n\r\n        /*\r\n         * We invoke doTransferOut for the redeemer and the redeemAmount.\r\n         *  Note: The cToken must handle variations between ERC-20 and ETH underlying.\r\n         *  On success, the cToken has redeemAmount less of cash.\r\n         *  doTransferOut reverts if anything goes wrong, since we can't be sure if side effects occurred.\r\n         */\r\n        doTransferOut(redeemer, redeemAmount);\r\n\r\n        /* We emit a Transfer event, and a Redeem event */\r\n        emit Transfer(redeemer, address(this), redeemTokens);\r\n        emit Redeem(redeemer, redeemAmount, redeemTokens);\r\n\r\n        /* We call the defense hook */\r\n        comptroller.redeemVerify(address(this), redeemer, redeemAmount, redeemTokens);\r\n    }\r\n\r\n    /*** Safe Token ***/\r\n\r\n    /**\r\n     * @notice Gets balance of this contract in terms of the underlying\r\n     * @dev This excludes the value of the current message, if any\r\n     * @return The quantity of underlying tokens owned by this contract\r\n     */\r\n    function getCashPrior() virtual internal view returns (uint) {\r\n        IBEP20 token = IBEP20(underlying);\r\n        return token.balanceOf(address(this));\r\n    }\r\n\r\n    /**\r\n     *  Prevent This: https://medium.com/coinmonks/missing-return-value-bug-at-least-130-tokens-affected-d67bf08521ca\r\n     */\r\n    function doTransferIn(address from, uint amount) virtual internal returns (uint) {\r\n        // Read from storage once\r\n        address underlying_ = underlying;\r\n        IBEP20 token = IBEP20(underlying_);\r\n        uint balanceBefore = IBEP20(underlying_).balanceOf(address(this));\r\n        token.transferFrom(from, address(this), amount);\r\n\r\n        bool success;\r\n        assembly {\r\n            switch returndatasize()\r\n                case 0 {                       // This is a non-standard ERC-20\r\n                    success := not(0)          // set success to true\r\n                }\r\n                case 32 {                      // This is a compliant ERC-20\r\n                    returndatacopy(0, 0, 32)\r\n                    success := mload(0)        // Set `success = returndata` of override external call\r\n                }\r\n                default {                      // This is an excessively non-compliant ERC-20, revert.\r\n                    revert(0, 0)\r\n                }\r\n        }\r\n        require(success, \"TOKEN_TRANSFER_IN_FAILED\");\r\n\r\n        // Calculate the amount that was *actually* transferred\r\n        uint balanceAfter = IBEP20(underlying_).balanceOf(address(this));\r\n        return balanceAfter - balanceBefore;   // underflow already checked above, just subtract\r\n    }\r\n\r\n    /**\r\n     *  Prevent This: https://medium.com/coinmonks/missing-return-value-bug-at-least-130-tokens-affected-d67bf08521ca\r\n     */\r\n    function doTransferOut(address payable to, uint amount) virtual internal {\r\n        IBEP20 token = IBEP20(underlying);\r\n        token.transfer(to, amount);\r\n\r\n        bool success;\r\n        assembly {\r\n            switch returndatasize()\r\n                case 0 {                      // This is a non-standard ERC-20\r\n                    success := not(0)          // set success to true\r\n                }\r\n                case 32 {                     // This is a compliant ERC-20\r\n                    returndatacopy(0, 0, 32)\r\n                    success := mload(0)        // Set `success = returndata` of override external call\r\n                }\r\n                default {                     // This is an excessively non-compliant ERC-20, revert.\r\n                    revert(0, 0)\r\n                }\r\n        }\r\n        require(success, \"TOKEN_TRANSFER_OUT_FAILED\");\r\n    }\r\n\r\n\r\n\r\n\r\n    /**\r\n     * @notice Burn tokens for the minter\r\n     */\r\n    function burn(address burner, uint256 amount)\r\n        public\r\n        override\r\n        returns (bool)\r\n    {\r\n        require(amount > 0, \"amount must be greater than 0\");\r\n\r\n        IBEP20 tokenContract = IBEP20(underlyingContract);\r\n\r\n        bool success = tokenContract.transfer(burner, amount);\r\n\r\n        if (!success) {\r\n            return false;\r\n        }\r\n\r\n        accountTokens[burner] -= amount;\r\n        emit Burn(burner, amount, amount);\r\n        return true;\r\n    }\r\n\r\n     /**\r\n     * @notice Get a snapshot of the account's balances, and the cached exchange rate\r\n     * @dev This is used by comptroller to more efficiently perform liquidity checks.\r\n     * @param account Address of the account to snapshot\r\n     * @return (possible error, token balance, borrow balance, exchange rate mantissa)\r\n     */\r\n    function getAccountInfo(address account) override external view returns (uint, uint, uint, uint) {\r\n        return (\r\n            0,\r\n            accountTokens[account],\r\n            accountBorrows[account],\r\n            //TODO FOR RATE INTEREST\r\n            0\r\n        );\r\n    }\r\n\r\n\r\n\r\n\r\n\r\n\r\n\r\n     /**\r\n     * @dev Function to simply retrieve block number\r\n     *  This exists mainly for inheriting test contracts to stub this result.\r\n     */\r\n    function _getBlockNumber() virtual internal view returns (uint) {\r\n        return block.number;\r\n    }\r\n\r\n      /**\r\n      * @notice Sets a new comptroller for the market\r\n      * @dev Admin function to set a new comptroller\r\n      * @return uint 0=success, otherwise a failure (see ErrorReporter.sol for details)\r\n      */\r\n    function _setComptroller(ComptrollerInterface newComptroller) override public returns (uint) {\r\n        // Check caller is admin\r\n        require(msg.sender == admin);\r\n\r\n        ComptrollerInterface oldComptroller = comptroller;\r\n        // Ensure invoke comptroller.isComptroller() returns true\r\n        require(newComptroller.isComptroller(), \"marker method returned false\");\r\n\r\n        // Set market's comptroller to newComptroller\r\n        comptroller = newComptroller;\r\n\r\n        // Emit NewComptroller(oldComptroller, newComptroller)\r\n        emit NewComptroller(oldComptroller, newComptroller);\r\n\r\n        return 0;\r\n    }\r\n\r\n\r\n}\r\n",
  "sourcePath": "C:\\Lab\\Solidity\\BabyLoans-Protocol\\contracts\\BToken.sol",
  "compiler": {
    "name": "solc",
    "version": "0.8.12+commit.f00d7308.Emscripten.clang"
  },
  "schemaVersion": "3.4.7",
  "updatedAt": "2022-06-30T10:35:41.668Z",
  "devdoc": {
    "kind": "dev",
    "methods": {
      "_setComptroller(address)": {
        "details": "Admin function to set a new comptroller",
        "returns": {
          "_0": "uint 0=success, otherwise a failure (see ErrorReporter.sol for details)"
        }
      },
      "accrueInterest()": {
        "details": "This calculates interest accrued from the last checkpointed block   up to the current block and writes new checkpoint to storage."
      },
      "allowance(address,address)": {
        "params": {
          "owner": "The address of the account which owns the tokens to be spent",
          "spender": "The address of the account which may transfer tokens"
        },
        "returns": {
          "_0": "The number of tokens allowed to be spent (-1 means infinite)"
        }
      },
      "approve(address,uint256)": {
        "details": "This will overwrite the approval amount for `spender`  and is subject to issues noted [here](https://eips.ethereum.org/EIPS/eip-20#approve)",
        "params": {
          "amount": "The number of tokens that are approved (-1 means infinite)",
          "spender": "The address of the account which may transfer tokens"
        },
        "returns": {
          "_0": "Whether or not the approval succeeded"
        }
      },
      "balanceOf(address)": {
        "params": {
          "owner": "The address of the account to query"
        },
        "returns": {
          "_0": "The number of tokens owned by `owner`"
        }
      },
      "getAccountInfo(address)": {
        "details": "This is used by comptroller to more efficiently perform liquidity checks.",
        "params": {
          "account": "Address of the account to snapshot"
        },
        "returns": {
          "_0": "(possible error, token balance, borrow balance, exchange rate mantissa)"
        }
      },
      "mint(uint256)": {
        "details": "Accrues interest whether or not the operation succeeds, unless reverted",
        "params": {
          "mintAmount": "The amount of the underlying asset to supply"
        },
        "returns": {
          "_0": "uint 0=success, otherwise a failure (see ErrorReporter.sol for details)"
        }
      },
      "redeem(uint256)": {
        "details": "Accrues interest whether or not the operation succeeds, unless reverted",
        "params": {
          "redeemTokens": "The number of cTokens to redeem into underlying"
        },
        "returns": {
          "_0": "uint 0=success, otherwise a failure (see ErrorReporter.sol for details)"
        }
      }
    },
    "version": 1
  },
  "userdoc": {
    "events": {
      "AccrueInterest(uint256,uint256,uint256,uint256)": {
        "notice": "Event emitted when interest is accrued"
      },
      "Approval(address,address,uint256)": {
        "notice": "EIP20 Approval event"
      },
      "Borrow(address,uint256,uint256,uint256)": {
        "notice": "Event emitted when underlying is borrowed"
      },
      "Mint(address,uint256,uint256)": {
        "notice": "Event emitted when tokens are minted"
      },
      "NewComptroller(address,address)": {
        "notice": "Event emitted when comptroller is changed"
      },
      "Redeem(address,uint256,uint256)": {
        "notice": "Event emitted when tokens are redeemed"
      },
      "Transfer(address,address,uint256)": {
        "notice": "EIP20 Transfer event"
      }
    },
    "kind": "user",
    "methods": {
      "_setComptroller(address)": {
        "notice": "Sets a new comptroller for the market"
      },
      "accrualBlockNumber()": {
        "notice": "Block number that interest was last accrued at"
      },
      "accrueInterest()": {
        "notice": "Applies accrued interest to total borrows and reserves"
      },
      "admin()": {
        "notice": "Administrator for this contract"
      },
      "allowance(address,address)": {
        "notice": "Get the current allowance from `owner` for `spender`"
      },
      "approve(address,uint256)": {
        "notice": "Approve `spender` to transfer up to `amount` from `src`"
      },
      "balanceOf(address)": {
        "notice": "Get the token balance of the `owner`"
      },
      "borrowIndex()": {
        "notice": "Accumulator of the total earned interest rate since the opening of the market"
      },
      "burn(address,uint256)": {
        "notice": "Burn tokens for the minter"
      },
      "comptroller()": {
        "notice": "Contract which oversees inter-cToken operations"
      },
      "decimals()": {
        "notice": "EIP-20 token decimals for this token"
      },
      "getAccountInfo(address)": {
        "notice": "Get a snapshot of the account's balances, and the cached exchange rate"
      },
      "isBToken()": {
        "notice": "Indicator that this is a CToken contract (for inspection)"
      },
      "mint(uint256)": {
        "notice": "Sender supplies assets into the market and receives cTokens in exchange"
      },
      "name()": {
        "notice": "EIP-20 token name for this token"
      },
      "redeem(uint256)": {
        "notice": "Sender redeems cTokens in exchange for the underlying asset"
      },
      "symbol()": {
        "notice": "EIP-20 token symbol for this token"
      },
      "totalBorrows()": {
        "notice": "Total amount of outstanding borrows of the underlying in this market"
      },
      "totalReserves()": {
        "notice": "Total amount of reserves of the underlying held in this market"
      },
      "totalSupply()": {
        "notice": "Total number of tokens in circulation"
      },
      "transfer(address,uint256)": {
        "notice": "Users functions "
      },
      "underlying()": {
        "notice": "Underlying asset for this CToken"
      },
      "underlyingContract()": {
        "notice": "Underlyint contract address"
      }
    },
    "version": 1
  }
}