{
  "contractName": "BTokenImmutable",
  "abi": [
    {
      "inputs": [
        {
          "internalType": "address",
          "name": "underlying_",
          "type": "address"
        },
        {
          "internalType": "contract ComptrollerInterface",
          "name": "comptroller_",
          "type": "address"
        },
        {
          "internalType": "string",
          "name": "name_",
          "type": "string"
        },
        {
          "internalType": "string",
          "name": "symbol_",
          "type": "string"
        },
        {
          "internalType": "uint8",
          "name": "decimals_",
          "type": "uint8"
        },
        {
          "internalType": "address payable",
          "name": "admin_",
          "type": "address"
        }
      ],
      "stateMutability": "nonpayable",
      "type": "constructor"
    },
    {
      "anonymous": false,
      "inputs": [
        {
          "indexed": false,
          "internalType": "uint256",
          "name": "cashPrior",
          "type": "uint256"
        },
        {
          "indexed": false,
          "internalType": "uint256",
          "name": "interestAccumulated",
          "type": "uint256"
        },
        {
          "indexed": false,
          "internalType": "uint256",
          "name": "borrowIndex",
          "type": "uint256"
        },
        {
          "indexed": false,
          "internalType": "uint256",
          "name": "totalBorrows",
          "type": "uint256"
        }
      ],
      "name": "AccrueInterest",
      "type": "event"
    },
    {
      "anonymous": false,
      "inputs": [
        {
          "indexed": true,
          "internalType": "address",
          "name": "owner",
          "type": "address"
        },
        {
          "indexed": true,
          "internalType": "address",
          "name": "spender",
          "type": "address"
        },
        {
          "indexed": false,
          "internalType": "uint256",
          "name": "amount",
          "type": "uint256"
        }
      ],
      "name": "Approval",
      "type": "event"
    },
    {
      "anonymous": false,
      "inputs": [
        {
          "indexed": false,
          "internalType": "address",
          "name": "borrower",
          "type": "address"
        },
        {
          "indexed": false,
          "internalType": "uint256",
          "name": "borrowAmount",
          "type": "uint256"
        },
        {
          "indexed": false,
          "internalType": "uint256",
          "name": "accountBorrows",
          "type": "uint256"
        },
        {
          "indexed": false,
          "internalType": "uint256",
          "name": "totalBorrows",
          "type": "uint256"
        }
      ],
      "name": "Borrow",
      "type": "event"
    },
    {
      "anonymous": false,
      "inputs": [
        {
          "indexed": false,
          "internalType": "address",
          "name": "burner",
          "type": "address"
        },
        {
          "indexed": false,
          "internalType": "uint256",
          "name": "burnAmount",
          "type": "uint256"
        },
        {
          "indexed": false,
          "internalType": "uint256",
          "name": "redeemTokens",
          "type": "uint256"
        }
      ],
      "name": "Burn",
      "type": "event"
    },
    {
      "anonymous": false,
      "inputs": [
        {
          "indexed": false,
          "internalType": "address",
          "name": "minter",
          "type": "address"
        },
        {
          "indexed": false,
          "internalType": "uint256",
          "name": "mintAmount",
          "type": "uint256"
        },
        {
          "indexed": false,
          "internalType": "uint256",
          "name": "mintTokens",
          "type": "uint256"
        }
      ],
      "name": "Mint",
      "type": "event"
    },
    {
      "anonymous": false,
      "inputs": [
        {
          "indexed": false,
          "internalType": "contract ComptrollerInterface",
          "name": "oldComptroller",
          "type": "address"
        },
        {
          "indexed": false,
          "internalType": "contract ComptrollerInterface",
          "name": "newComptroller",
          "type": "address"
        }
      ],
      "name": "NewComptroller",
      "type": "event"
    },
    {
      "anonymous": false,
      "inputs": [
        {
          "indexed": false,
          "internalType": "address",
          "name": "redeemer",
          "type": "address"
        },
        {
          "indexed": false,
          "internalType": "uint256",
          "name": "redeemAmount",
          "type": "uint256"
        },
        {
          "indexed": false,
          "internalType": "uint256",
          "name": "redeemTokens",
          "type": "uint256"
        }
      ],
      "name": "Redeem",
      "type": "event"
    },
    {
      "anonymous": false,
      "inputs": [
        {
          "indexed": false,
          "internalType": "address",
          "name": "payer",
          "type": "address"
        },
        {
          "indexed": false,
          "internalType": "address",
          "name": "borrower",
          "type": "address"
        },
        {
          "indexed": false,
          "internalType": "uint256",
          "name": "repayAmount",
          "type": "uint256"
        },
        {
          "indexed": false,
          "internalType": "uint256",
          "name": "accountBorrows",
          "type": "uint256"
        },
        {
          "indexed": false,
          "internalType": "uint256",
          "name": "totalBorrows",
          "type": "uint256"
        }
      ],
      "name": "RepayBorrow",
      "type": "event"
    },
    {
      "anonymous": false,
      "inputs": [
        {
          "indexed": true,
          "internalType": "address",
          "name": "from",
          "type": "address"
        },
        {
          "indexed": true,
          "internalType": "address",
          "name": "to",
          "type": "address"
        },
        {
          "indexed": false,
          "internalType": "uint256",
          "name": "amount",
          "type": "uint256"
        }
      ],
      "name": "Transfer",
      "type": "event"
    },
    {
      "inputs": [
        {
          "internalType": "contract ComptrollerInterface",
          "name": "newComptroller",
          "type": "address"
        }
      ],
      "name": "_setComptroller",
      "outputs": [
        {
          "internalType": "uint256",
          "name": "",
          "type": "uint256"
        }
      ],
      "stateMutability": "nonpayable",
      "type": "function"
    },
    {
      "inputs": [],
      "name": "accrualBlockNumber",
      "outputs": [
        {
          "internalType": "uint256",
          "name": "",
          "type": "uint256"
        }
      ],
      "stateMutability": "view",
      "type": "function",
      "constant": true
    },
    {
      "inputs": [],
      "name": "accrueInterest",
      "outputs": [
        {
          "internalType": "uint256",
          "name": "",
          "type": "uint256"
        }
      ],
      "stateMutability": "nonpayable",
      "type": "function"
    },
    {
      "inputs": [],
      "name": "admin",
      "outputs": [
        {
          "internalType": "address payable",
          "name": "",
          "type": "address"
        }
      ],
      "stateMutability": "view",
      "type": "function",
      "constant": true
    },
    {
      "inputs": [
        {
          "internalType": "address",
          "name": "owner",
          "type": "address"
        },
        {
          "internalType": "address",
          "name": "spender",
          "type": "address"
        }
      ],
      "name": "allowance",
      "outputs": [
        {
          "internalType": "uint256",
          "name": "",
          "type": "uint256"
        }
      ],
      "stateMutability": "view",
      "type": "function",
      "constant": true
    },
    {
      "inputs": [
        {
          "internalType": "address",
          "name": "spender",
          "type": "address"
        },
        {
          "internalType": "uint256",
          "name": "amount",
          "type": "uint256"
        }
      ],
      "name": "approve",
      "outputs": [
        {
          "internalType": "bool",
          "name": "",
          "type": "bool"
        }
      ],
      "stateMutability": "nonpayable",
      "type": "function"
    },
    {
      "inputs": [
        {
          "internalType": "address",
          "name": "owner",
          "type": "address"
        }
      ],
      "name": "balanceOf",
      "outputs": [
        {
          "internalType": "uint256",
          "name": "",
          "type": "uint256"
        }
      ],
      "stateMutability": "view",
      "type": "function",
      "constant": true
    },
    {
      "inputs": [
        {
          "internalType": "uint256",
          "name": "borrowAmount",
          "type": "uint256"
        }
      ],
      "name": "borrow",
      "outputs": [
        {
          "internalType": "uint256",
          "name": "",
          "type": "uint256"
        }
      ],
      "stateMutability": "nonpayable",
      "type": "function"
    },
    {
      "inputs": [],
      "name": "borrowIndex",
      "outputs": [
        {
          "internalType": "uint256",
          "name": "",
          "type": "uint256"
        }
      ],
      "stateMutability": "view",
      "type": "function",
      "constant": true
    },
    {
      "inputs": [
        {
          "internalType": "address",
          "name": "burner",
          "type": "address"
        },
        {
          "internalType": "uint256",
          "name": "amount",
          "type": "uint256"
        }
      ],
      "name": "burn",
      "outputs": [
        {
          "internalType": "bool",
          "name": "",
          "type": "bool"
        }
      ],
      "stateMutability": "nonpayable",
      "type": "function"
    },
    {
      "inputs": [],
      "name": "comptroller",
      "outputs": [
        {
          "internalType": "contract ComptrollerInterface",
          "name": "",
          "type": "address"
        }
      ],
      "stateMutability": "view",
      "type": "function",
      "constant": true
    },
    {
      "inputs": [],
      "name": "decimals",
      "outputs": [
        {
          "internalType": "uint8",
          "name": "",
          "type": "uint8"
        }
      ],
      "stateMutability": "view",
      "type": "function",
      "constant": true
    },
    {
      "inputs": [
        {
          "internalType": "address",
          "name": "account",
          "type": "address"
        }
      ],
      "name": "getAccountInfo",
      "outputs": [
        {
          "internalType": "uint256",
          "name": "",
          "type": "uint256"
        },
        {
          "internalType": "uint256",
          "name": "",
          "type": "uint256"
        },
        {
          "internalType": "uint256",
          "name": "",
          "type": "uint256"
        },
        {
          "internalType": "uint256",
          "name": "",
          "type": "uint256"
        }
      ],
      "stateMutability": "view",
      "type": "function",
      "constant": true
    },
    {
      "inputs": [
        {
          "internalType": "address",
          "name": "underlyingContract_",
          "type": "address"
        },
        {
          "internalType": "contract ComptrollerInterface",
          "name": "comptroller_",
          "type": "address"
        },
        {
          "internalType": "string",
          "name": "name_",
          "type": "string"
        },
        {
          "internalType": "string",
          "name": "symbol_",
          "type": "string"
        },
        {
          "internalType": "uint8",
          "name": "decimal_",
          "type": "uint8"
        }
      ],
      "name": "initialize",
      "outputs": [],
      "stateMutability": "nonpayable",
      "type": "function"
    },
    {
      "inputs": [],
      "name": "isBToken",
      "outputs": [
        {
          "internalType": "bool",
          "name": "",
          "type": "bool"
        }
      ],
      "stateMutability": "view",
      "type": "function",
      "constant": true
    },
    {
      "inputs": [
        {
          "internalType": "uint256",
          "name": "mintAmount",
          "type": "uint256"
        }
      ],
      "name": "mint",
      "outputs": [
        {
          "internalType": "uint256",
          "name": "",
          "type": "uint256"
        }
      ],
      "stateMutability": "nonpayable",
      "type": "function"
    },
    {
      "inputs": [],
      "name": "name",
      "outputs": [
        {
          "internalType": "string",
          "name": "",
          "type": "string"
        }
      ],
      "stateMutability": "view",
      "type": "function",
      "constant": true
    },
    {
      "inputs": [
        {
          "internalType": "uint256",
          "name": "redeemTokens",
          "type": "uint256"
        }
      ],
      "name": "redeem",
      "outputs": [
        {
          "internalType": "uint256",
          "name": "",
          "type": "uint256"
        }
      ],
      "stateMutability": "nonpayable",
      "type": "function"
    },
    {
      "inputs": [
        {
          "internalType": "uint256",
          "name": "redeemAmount",
          "type": "uint256"
        }
      ],
      "name": "redeemUnderlying",
      "outputs": [
        {
          "internalType": "uint256",
          "name": "",
          "type": "uint256"
        }
      ],
      "stateMutability": "nonpayable",
      "type": "function"
    },
    {
      "inputs": [
        {
          "internalType": "uint256",
          "name": "repayAmount",
          "type": "uint256"
        }
      ],
      "name": "repayBorrow",
      "outputs": [
        {
          "internalType": "uint256",
          "name": "",
          "type": "uint256"
        }
      ],
      "stateMutability": "nonpayable",
      "type": "function"
    },
    {
      "inputs": [
        {
          "internalType": "address",
          "name": "borrower",
          "type": "address"
        },
        {
          "internalType": "uint256",
          "name": "repayAmount",
          "type": "uint256"
        }
      ],
      "name": "repayBorrowBehalf",
      "outputs": [
        {
          "internalType": "uint256",
          "name": "",
          "type": "uint256"
        }
      ],
      "stateMutability": "nonpayable",
      "type": "function"
    },
    {
      "inputs": [],
      "name": "symbol",
      "outputs": [
        {
          "internalType": "string",
          "name": "",
          "type": "string"
        }
      ],
      "stateMutability": "view",
      "type": "function",
      "constant": true
    },
    {
      "inputs": [],
      "name": "totalBorrows",
      "outputs": [
        {
          "internalType": "uint256",
          "name": "",
          "type": "uint256"
        }
      ],
      "stateMutability": "view",
      "type": "function",
      "constant": true
    },
    {
      "inputs": [],
      "name": "totalReserves",
      "outputs": [
        {
          "internalType": "uint256",
          "name": "",
          "type": "uint256"
        }
      ],
      "stateMutability": "view",
      "type": "function",
      "constant": true
    },
    {
      "inputs": [],
      "name": "totalSupply",
      "outputs": [
        {
          "internalType": "uint256",
          "name": "",
          "type": "uint256"
        }
      ],
      "stateMutability": "view",
      "type": "function",
      "constant": true
    },
    {
      "inputs": [
        {
          "internalType": "address",
          "name": "dst",
          "type": "address"
        },
        {
          "internalType": "uint256",
          "name": "amount",
          "type": "uint256"
        }
      ],
      "name": "transfer",
      "outputs": [
        {
          "internalType": "bool",
          "name": "success",
          "type": "bool"
        }
      ],
      "stateMutability": "nonpayable",
      "type": "function"
    },
    {
      "inputs": [
        {
          "internalType": "address",
          "name": "src",
          "type": "address"
        },
        {
          "internalType": "address",
          "name": "dst",
          "type": "address"
        },
        {
          "internalType": "uint256",
          "name": "amount",
          "type": "uint256"
        }
      ],
      "name": "transferFrom",
      "outputs": [
        {
          "internalType": "bool",
          "name": "success",
          "type": "bool"
        }
      ],
      "stateMutability": "nonpayable",
      "type": "function"
    },
    {
      "inputs": [],
      "name": "underlying",
      "outputs": [
        {
          "internalType": "address",
          "name": "",
          "type": "address"
        }
      ],
      "stateMutability": "view",
      "type": "function",
      "constant": true
    },
    {
      "inputs": [],
      "name": "underlyingContract",
      "outputs": [
        {
          "internalType": "address",
          "name": "",
          "type": "address"
        }
      ],
      "stateMutability": "view",
      "type": "function",
      "constant": true
    }
  ],
  "bytecode": "0x60806040523480156200001157600080fd5b5060405162004cec38038062004cec83398181016040528101906200003791906200094c565b33600060016101000a81548173ffffffffffffffffffffffffffffffffffffffff021916908373ffffffffffffffffffffffffffffffffffffffff160217905550620000968686868686620000e3640100000000026401000000009004565b80600060016101000a81548173ffffffffffffffffffffffffffffffffffffffff021916908373ffffffffffffffffffffffffffffffffffffffff16021790555050505050505062000e24565b600060019054906101000a900473ffffffffffffffffffffffffffffffffffffffff1673ffffffffffffffffffffffffffffffffffffffff163373ffffffffffffffffffffffffffffffffffffffff161462000176576040517f08c379a00000000000000000000000000000000000000000000000000000000081526004016200016d9062000aad565b60405180910390fd5b60006006541480156200018b57506000600754145b620001cd576040517f08c379a0000000000000000000000000000000000000000000000000000000008152600401620001c49062000b45565b60405180910390fd5b6000620001e985620003f2640100000000026401000000009004565b90506000811462000231576040517f08c379a0000000000000000000000000000000000000000000000000000000008152600401620002289062000bb7565b60405180910390fd5b84600260006101000a81548173ffffffffffffffffffffffffffffffffffffffff021916908373ffffffffffffffffffffffffffffffffffffffff1602179055506200028b620005ca640100000000026401000000009004565b6006819055508360039080519060200190620002a9929190620005d2565b508260049080519060200190620002c2929190620005d2565b5081600560006101000a81548160ff021916908360ff16021790555060016000806101000a81548160ff02191690831515021790555085600160006101000a81548173ffffffffffffffffffffffffffffffffffffffff021916908373ffffffffffffffffffffffffffffffffffffffff160217905550600160009054906101000a900473ffffffffffffffffffffffffffffffffffffffff1673ffffffffffffffffffffffffffffffffffffffff166318160ddd6040518163ffffffff167c0100000000000000000000000000000000000000000000000000000000028152600401602060405180830381865afa158015620003c3573d6000803e3d6000fd5b505050506040513d601f19601f82011682018060405250810190620003e9919062000c14565b50505050505050565b60008060019054906101000a900473ffffffffffffffffffffffffffffffffffffffff1673ffffffffffffffffffffffffffffffffffffffff163373ffffffffffffffffffffffffffffffffffffffff16146200044e57600080fd5b6000600260009054906101000a900473ffffffffffffffffffffffffffffffffffffffff1690508273ffffffffffffffffffffffffffffffffffffffff16627e3dd26040518163ffffffff167c0100000000000000000000000000000000000000000000000000000000028152600401602060405180830381865afa158015620004dc573d6000803e3d6000fd5b505050506040513d601f19601f8201168201806040525081019062000502919062000c83565b62000544576040517f08c379a00000000000000000000000000000000000000000000000000000000081526004016200053b9062000d05565b60405180910390fd5b82600260006101000a81548173ffffffffffffffffffffffffffffffffffffffff021916908373ffffffffffffffffffffffffffffffffffffffff1602179055507f7ac369dbd14fa5ea3f473ed67cc9d598964a77501540ba6751eb0b3decf5870d8184604051620005b892919062000d92565b60405180910390a16000915050919050565b600043905090565b828054620005e09062000dee565b90600052602060002090601f01602090048101928262000604576000855562000650565b82601f106200061f57805160ff191683800117855562000650565b8280016001018555821562000650579182015b828111156200064f57825182559160200191906001019062000632565b5b5090506200065f919062000663565b5090565b5b808211156200067e57600081600090555060010162000664565b5090565b6000604051905090565b600080fd5b600080fd5b600073ffffffffffffffffffffffffffffffffffffffff82169050919050565b6000620006c38262000696565b9050919050565b620006d581620006b6565b8114620006e157600080fd5b50565b600081519050620006f581620006ca565b92915050565b60006200070882620006b6565b9050919050565b6200071a81620006fb565b81146200072657600080fd5b50565b6000815190506200073a816200070f565b92915050565b600080fd5b600080fd5b6000601f19601f8301169050919050565b7f4e487b7100000000000000000000000000000000000000000000000000000000600052604160045260246000fd5b62000795826200074a565b810181811067ffffffffffffffff82111715620007b757620007b66200075b565b5b80604052505050565b6000620007cc62000682565b9050620007da82826200078a565b919050565b600067ffffffffffffffff821115620007fd57620007fc6200075b565b5b62000808826200074a565b9050602081019050919050565b60005b838110156200083557808201518184015260208101905062000818565b8381111562000845576000848401525b50505050565b6000620008626200085c84620007df565b620007c0565b90508281526020810184848401111562000881576200088062000745565b5b6200088e84828562000815565b509392505050565b600082601f830112620008ae57620008ad62000740565b5b8151620008c08482602086016200084b565b91505092915050565b600060ff82169050919050565b620008e181620008c9565b8114620008ed57600080fd5b50565b6000815190506200090181620008d6565b92915050565b6000620009148262000696565b9050919050565b620009268162000907565b81146200093257600080fd5b50565b60008151905062000946816200091b565b92915050565b60008060008060008060c087890312156200096c576200096b6200068c565b5b60006200097c89828a01620006e4565b96505060206200098f89828a0162000729565b955050604087015167ffffffffffffffff811115620009b357620009b262000691565b5b620009c189828a0162000896565b945050606087015167ffffffffffffffff811115620009e557620009e462000691565b5b620009f389828a0162000896565b935050608062000a0689828a01620008f0565b92505060a062000a1989828a0162000935565b9150509295509295509295565b600082825260208201905092915050565b7f6f6e6c792061646d696e206d617920696e697469616c697a6520746865206d6160008201527f726b657400000000000000000000000000000000000000000000000000000000602082015250565b600062000a9560248362000a26565b915062000aa28262000a37565b604082019050919050565b6000602082019050818103600083015262000ac88162000a86565b9050919050565b7f6d61726b6574206d6179206f6e6c7920626520696e697469616c697a6564206f60008201527f6e63650000000000000000000000000000000000000000000000000000000000602082015250565b600062000b2d60238362000a26565b915062000b3a8262000acf565b604082019050919050565b6000602082019050818103600083015262000b608162000b1e565b9050919050565b7f73657474696e6720636f6d7074726f6c6c6572206661696c6564000000000000600082015250565b600062000b9f601a8362000a26565b915062000bac8262000b67565b602082019050919050565b6000602082019050818103600083015262000bd28162000b90565b9050919050565b6000819050919050565b62000bee8162000bd9565b811462000bfa57600080fd5b50565b60008151905062000c0e8162000be3565b92915050565b60006020828403121562000c2d5762000c2c6200068c565b5b600062000c3d8482850162000bfd565b91505092915050565b60008115159050919050565b62000c5d8162000c46565b811462000c6957600080fd5b50565b60008151905062000c7d8162000c52565b92915050565b60006020828403121562000c9c5762000c9b6200068c565b5b600062000cac8482850162000c6c565b91505092915050565b7f6d61726b6572206d6574686f642072657475726e65642066616c736500000000600082015250565b600062000ced601c8362000a26565b915062000cfa8262000cb5565b602082019050919050565b6000602082019050818103600083015262000d208162000cde565b9050919050565b6000819050919050565b600062000d5262000d4c62000d468462000696565b62000d27565b62000696565b9050919050565b600062000d668262000d31565b9050919050565b600062000d7a8262000d59565b9050919050565b62000d8c8162000d6d565b82525050565b600060408201905062000da9600083018562000d81565b62000db8602083018462000d81565b9392505050565b7f4e487b7100000000000000000000000000000000000000000000000000000000600052602260045260246000fd5b6000600282049050600182168062000e0757607f821691505b6020821081141562000e1e5762000e1d62000dbf565b5b50919050565b613eb88062000e346000396000f3fe608060405234801561001057600080fd5b50600436106101ec576000357c0100000000000000000000000000000000000000000000000000000000900480637b510fe811610121578063a6afed95116100bf578063db006a751161008e578063db006a75146105b8578063dd62ed3e146105e8578063f851a44014610618578063fbb6233714610636576101ec565b8063a6afed951461051c578063a9059cbb1461053a578063aa5af0fd1461056a578063c5ebeaec14610588576101ec565b80638f840ddd116100fb5780638f840ddd1461048057806395d89b411461049e5780639dc29fac146104bc578063a0712d68146104ec576101ec565b80637b510fe8146104015780638420ce9914610434578063852a12e314610450576101ec565b8063313ce5671161018e5780635fe3b567116101685780635fe3b567146103775780636c540baf146103955780636f307dc3146103b357806370a08231146103d1576101ec565b8063313ce5671461030b5780634576b5db1461032957806347bd371814610359576101ec565b806310cfe906116101ca57806310cfe9061461026f57806318160ddd1461028d57806323b872dd146102ab5780632608f818146102db576101ec565b806306fdde03146101f1578063095ea7b31461020f5780630e7527021461023f575b600080fd5b6101f9610654565b6040516102069190612b29565b60405180910390f35b61022960048036038101906102249190612bf3565b6106e2565b6040516102369190612c4e565b60405180910390f35b61025960048036038101906102549190612c69565b6107d9565b6040516102669190612ca5565b60405180910390f35b6102776107ed565b6040516102849190612ccf565b60405180910390f35b610295610813565b6040516102a29190612ca5565b60405180910390f35b6102c560048036038101906102c09190612cea565b610819565b6040516102d29190612c4e565b60405180910390f35b6102f560048036038101906102f09190612bf3565b610b91565b6040516103029190612ca5565b60405180910390f35b610313610ba7565b6040516103209190612d59565b60405180910390f35b610343600480360381019061033e9190612db2565b610bba565b6040516103509190612ca5565b60405180910390f35b610361610d89565b60405161036e9190612ca5565b60405180910390f35b61037f610d8f565b60405161038c9190612e3e565b60405180910390f35b61039d610db5565b6040516103aa9190612ca5565b60405180910390f35b6103bb610dbb565b6040516103c89190612ccf565b60405180910390f35b6103eb60048036038101906103e69190612e59565b610de1565b6040516103f89190612ca5565b60405180910390f35b61041b60048036038101906104169190612e59565b610e2a565b60405161042b9493929190612e86565b60405180910390f35b61044e6004803603810190610449919061302c565b610e8c565b005b61046a60048036038101906104659190612c69565b611168565b6040516104779190612ca5565b60405180910390f35b61048861117c565b6040516104959190612ca5565b60405180910390f35b6104a6611182565b6040516104b39190612b29565b60405180910390f35b6104d660048036038101906104d19190612bf3565b611210565b6040516104e39190612c4e565b60405180910390f35b61050660048036038101906105019190612c69565b6113c7565b6040516105139190612ca5565b60405180910390f35b6105246113db565b6040516105319190612ca5565b60405180910390f35b610554600480360381019061054f9190612bf3565b611445565b6040516105619190612c4e565b60405180910390f35b61057261145a565b60405161057f9190612ca5565b60405180910390f35b6105a2600480360381019061059d9190612c69565b611460565b6040516105af9190612ca5565b60405180910390f35b6105d260048036038101906105cd9190612c69565b611474565b6040516105df9190612ca5565b60405180910390f35b61060260048036038101906105fd91906130df565b611488565b60405161060f9190612ca5565b60405180910390f35b61062061150f565b60405161062d9190613140565b60405180910390f35b61063e611535565b60405161064b9190612c4e565b60405180910390f35b600380546106619061318a565b80601f016020809104026020016040519081016040528092919081815260200182805461068d9061318a565b80156106da5780601f106106af576101008083540402835291602001916106da565b820191906000526020600020905b8154815290600101906020018083116106bd57829003601f168201915b505050505081565b60008033905082600d60008373ffffffffffffffffffffffffffffffffffffffff1673ffffffffffffffffffffffffffffffffffffffff16815260200190815260200160002060008673ffffffffffffffffffffffffffffffffffffffff1673ffffffffffffffffffffffffffffffffffffffff168152602001908152602001600020819055508373ffffffffffffffffffffffffffffffffffffffff168173ffffffffffffffffffffffffffffffffffffffff167f8c5be1e5ebec7d5bd14f71427d1e84f3dd0314c0f7b2291e5b200ac8c7c3b925856040516107c69190612ca5565b60405180910390a3600191505092915050565b60006107e48261153a565b60009050919050565b600b60009054906101000a900473ffffffffffffffffffffffffffffffffffffffff1681565b600a5481565b600080821161085d576040517f08c379a000000000000000000000000000000000000000000000000000000000815260040161085490613208565b60405180910390fd5b8273ffffffffffffffffffffffffffffffffffffffff168473ffffffffffffffffffffffffffffffffffffffff1614156108cc576040517f08c379a00000000000000000000000000000000000000000000000000000000081526004016108c390613274565b60405180910390fd5b60006108d785610de1565b90508281101561091c576040517f08c379a0000000000000000000000000000000000000000000000000000000008152600401610913906132e0565b60405180910390fd5b6000600d60008773ffffffffffffffffffffffffffffffffffffffff1673ffffffffffffffffffffffffffffffffffffffff16815260200190815260200160002060003373ffffffffffffffffffffffffffffffffffffffff1673ffffffffffffffffffffffffffffffffffffffff168152602001908152602001600020549050838110156109e0576040517f08c379a00000000000000000000000000000000000000000000000000000000081526004016109d79061334c565b60405180910390fd5b83600c60008873ffffffffffffffffffffffffffffffffffffffff1673ffffffffffffffffffffffffffffffffffffffff1681526020019081526020016000206000828254610a2f919061339b565b9250508190555083600c60008773ffffffffffffffffffffffffffffffffffffffff1673ffffffffffffffffffffffffffffffffffffffff1681526020019081526020016000206000828254610a8591906133cf565b9250508190555083600d60008873ffffffffffffffffffffffffffffffffffffffff1673ffffffffffffffffffffffffffffffffffffffff16815260200190815260200160002060003373ffffffffffffffffffffffffffffffffffffffff1673ffffffffffffffffffffffffffffffffffffffff1681526020019081526020016000206000828254610b18919061339b565b925050819055508473ffffffffffffffffffffffffffffffffffffffff168673ffffffffffffffffffffffffffffffffffffffff167fddf252ad1be2c89b69c2b068fc378daa952ba7f163c4a11628f55a4df523b3ef86604051610b7c9190612ca5565b60405180910390a36001925050509392505050565b6000610b9d83836115d3565b6000905092915050565b600560009054906101000a900460ff1681565b60008060019054906101000a900473ffffffffffffffffffffffffffffffffffffffff1673ffffffffffffffffffffffffffffffffffffffff163373ffffffffffffffffffffffffffffffffffffffff1614610c1557600080fd5b6000600260009054906101000a900473ffffffffffffffffffffffffffffffffffffffff1690508273ffffffffffffffffffffffffffffffffffffffff16627e3dd26040518163ffffffff167c0100000000000000000000000000000000000000000000000000000000028152600401602060405180830381865afa158015610ca2573d6000803e3d6000fd5b505050506040513d601f19601f82011682018060405250810190610cc69190613451565b610d05576040517f08c379a0000000000000000000000000000000000000000000000000000000008152600401610cfc906134ca565b60405180910390fd5b82600260006101000a81548173ffffffffffffffffffffffffffffffffffffffff021916908373ffffffffffffffffffffffffffffffffffffffff1602179055507f7ac369dbd14fa5ea3f473ed67cc9d598964a77501540ba6751eb0b3decf5870d8184604051610d779291906134ea565b60405180910390a16000915050919050565b60085481565b600260009054906101000a900473ffffffffffffffffffffffffffffffffffffffff1681565b60065481565b600160009054906101000a900473ffffffffffffffffffffffffffffffffffffffff1681565b6000600c60008373ffffffffffffffffffffffffffffffffffffffff1673ffffffffffffffffffffffffffffffffffffffff168152602001908152602001600020549050919050565b6000806000806000600c60008773ffffffffffffffffffffffffffffffffffffffff1673ffffffffffffffffffffffffffffffffffffffff16815260200190815260200160002054610e7b8761166d565b600093509350935093509193509193565b600060019054906101000a900473ffffffffffffffffffffffffffffffffffffffff1673ffffffffffffffffffffffffffffffffffffffff163373ffffffffffffffffffffffffffffffffffffffff1614610f1c576040517f08c379a0000000000000000000000000000000000000000000000000000000008152600401610f1390613585565b60405180910390fd5b6000600654148015610f3057506000600754145b610f6f576040517f08c379a0000000000000000000000000000000000000000000000000000000008152600401610f6690613617565b60405180910390fd5b6000610f7a85610bba565b905060008114610fbf576040517f08c379a0000000000000000000000000000000000000000000000000000000008152600401610fb690613683565b60405180910390fd5b84600260006101000a81548173ffffffffffffffffffffffffffffffffffffffff021916908373ffffffffffffffffffffffffffffffffffffffff1602179055506110086116f8565b60068190555083600390805190602001906110249291906129ed565b50826004908051906020019061103b9291906129ed565b5081600560006101000a81548160ff021916908360ff16021790555060016000806101000a81548160ff02191690831515021790555085600160006101000a81548173ffffffffffffffffffffffffffffffffffffffff021916908373ffffffffffffffffffffffffffffffffffffffff160217905550600160009054906101000a900473ffffffffffffffffffffffffffffffffffffffff1673ffffffffffffffffffffffffffffffffffffffff166318160ddd6040518163ffffffff167c0100000000000000000000000000000000000000000000000000000000028152600401602060405180830381865afa15801561113b573d6000803e3d6000fd5b505050506040513d601f19601f8201168201806040525081019061115f91906136b8565b50505050505050565b600061117382611700565b60009050919050565b60095481565b6004805461118f9061318a565b80601f01602080910402602001604051908101604052809291908181526020018280546111bb9061318a565b80156112085780601f106111dd57610100808354040283529160200191611208565b820191906000526020600020905b8154815290600101906020018083116111eb57829003601f168201915b505050505081565b6000808211611254576040517f08c379a000000000000000000000000000000000000000000000000000000000815260040161124b90613208565b60405180910390fd5b6000600b60009054906101000a900473ffffffffffffffffffffffffffffffffffffffff16905060008173ffffffffffffffffffffffffffffffffffffffff1663a9059cbb86866040518363ffffffff167c01000000000000000000000000000000000000000000000000000000000281526004016112d49291906136e5565b6020604051808303816000875af11580156112f3573d6000803e3d6000fd5b505050506040513d601f19601f820116820180604052508101906113179190613451565b905080611329576000925050506113c1565b83600c60008773ffffffffffffffffffffffffffffffffffffffff1673ffffffffffffffffffffffffffffffffffffffff1681526020019081526020016000206000828254611378919061339b565b925050819055507f49995e5dd6158cf69ad3e9777c46755a1a826a446c6416992167462dad033b2a8585866040516113b29392919061370e565b60405180910390a16001925050505b92915050565b60006113d282611799565b60009050919050565b6000806113e66116f8565b905060006006549050816006819055507f4dec04e750ca11537cabcd8a9eab06494de08da3735bc8871cd41250e190bc0461141f611830565b60008060006040516114349493929190613780565b60405180910390a160009250505090565b6000611452338484610819565b905092915050565b60075481565b600061146b826118f4565b60009050919050565b600061147f8261198b565b60009050919050565b6000600d60008473ffffffffffffffffffffffffffffffffffffffff1673ffffffffffffffffffffffffffffffffffffffff16815260200190815260200160002060008373ffffffffffffffffffffffffffffffffffffffff1673ffffffffffffffffffffffffffffffffffffffff16815260200190815260200160002054905092915050565b600060019054906101000a900473ffffffffffffffffffffffffffffffffffffffff1681565b600181565b60008054906101000a900460ff16611587576040517f08c379a000000000000000000000000000000000000000000000000000000000815260040161157e90613811565b60405180910390fd5b60008060006101000a81548160ff0219169083151502179055506115a96113db565b506115b5333383611a24565b5060016000806101000a81548160ff02191690831515021790555050565b60008054906101000a900460ff16611620576040517f08c379a000000000000000000000000000000000000000000000000000000000815260040161161790613811565b60405180910390fd5b60008060006101000a81548160ff0219169083151502179055506116426113db565b5061164e338383611a24565b5060016000806101000a81548160ff0219169083151502179055505050565b600080600e60008473ffffffffffffffffffffffffffffffffffffffff1673ffffffffffffffffffffffffffffffffffffffff16815260200190815260200160002090506000816000015414156116c85760009150506116f3565b600060075482600001546116dc9190613831565b90508160010154816116ee91906138ba565b925050505b919050565b600043905090565b60008054906101000a900460ff1661174d576040517f08c379a000000000000000000000000000000000000000000000000000000000815260040161174490613811565b60405180910390fd5b60008060006101000a81548160ff02191690831515021790555061176f6113db565b5061177c33600083611ccd565b60016000806101000a81548160ff02191690831515021790555050565b60008054906101000a900460ff166117e6576040517f08c379a00000000000000000000000000000000000000000000000000000000081526004016117dd90613811565b60405180910390fd5b60008060006101000a81548160ff0219169083151502179055506118086113db565b5061181333826120d6565b60016000806101000a81548160ff02191690831515021790555050565b600080600160009054906101000a900473ffffffffffffffffffffffffffffffffffffffff1690508073ffffffffffffffffffffffffffffffffffffffff166370a08231306040518263ffffffff167c01000000000000000000000000000000000000000000000000000000000281526004016118ad9190612ccf565b602060405180830381865afa1580156118ca573d6000803e3d6000fd5b505050506040513d601f19601f820116820180604052508101906118ee91906136b8565b91505090565b60008054906101000a900460ff16611941576040517f08c379a000000000000000000000000000000000000000000000000000000000815260040161193890613811565b60405180910390fd5b60008060006101000a81548160ff0219169083151502179055506119636113db565b5061196e3382612382565b60016000806101000a81548160ff02191690831515021790555050565b60008054906101000a900460ff166119d8576040517f08c379a00000000000000000000000000000000000000000000000000000000081526004016119cf90613811565b60405180910390fd5b60008060006101000a81548160ff0219169083151502179055506119fa6113db565b50611a0733826000611ccd565b60016000806101000a81548160ff02191690831515021790555050565b600080600260009054906101000a900473ffffffffffffffffffffffffffffffffffffffff1673ffffffffffffffffffffffffffffffffffffffff166324008a62308787876040518563ffffffff167c0100000000000000000000000000000000000000000000000000000000028152600401611aa494939291906138eb565b6020604051808303816000875af1158015611ac3573d6000803e3d6000fd5b505050506040513d601f19601f82011682018060405250810190611ae791906136b8565b905060008114611b2c576040517f08c379a0000000000000000000000000000000000000000000000000000000008152600401611b239061397c565b60405180910390fd5b611b346116f8565b60065414611b77576040517f08c379a0000000000000000000000000000000000000000000000000000000008152600401611b6e906139e8565b60405180910390fd5b6000611b828561166d565b905060007fffffffffffffffffffffffffffffffffffffffffffffffffffffffffffffffff8514611bb35784611bb5565b815b90506000611bc38883612630565b905060008184611bd3919061339b565b9050600082600854611be5919061339b565b905081600e60008b73ffffffffffffffffffffffffffffffffffffffff1673ffffffffffffffffffffffffffffffffffffffff16815260200190815260200160002060000181905550600754600e60008b73ffffffffffffffffffffffffffffffffffffffff1673ffffffffffffffffffffffffffffffffffffffff16815260200190815260200160002060010181905550806008819055507f1a2a22cb034d26d1854bdc6666a5b91fe25efbbb5dcad3b0355478d6f5c362a18a8a858585604051611cb5959493929190613a08565b60405180910390a18296505050505050509392505050565b6000821480611cdc5750600081145b611d1b576040517f08c379a0000000000000000000000000000000000000000000000000000000008152600401611d1290613acd565b60405180910390fd5b6000806000841115611d3257839150839050611d39565b8290508291505b6000600260009054906101000a900473ffffffffffffffffffffffffffffffffffffffff1673ffffffffffffffffffffffffffffffffffffffff1663eabe7d913088866040518463ffffffff167c0100000000000000000000000000000000000000000000000000000000028152600401611db693929190613b0e565b6020604051808303816000875af1158015611dd5573d6000803e3d6000fd5b505050506040513d601f19601f82011682018060405250810190611df991906136b8565b905060008114611e3e576040517f08c379a0000000000000000000000000000000000000000000000000000000008152600401611e359061397c565b60405180910390fd5b611e466116f8565b60065414611e89576040517f08c379a0000000000000000000000000000000000000000000000000000000008152600401611e80906139e8565b60405180910390fd5b81611e92611830565b1015611ed3576040517f08c379a0000000000000000000000000000000000000000000000000000000008152600401611eca90613b91565b60405180910390fd5b82600a54611ee1919061339b565b600a8190555082600c60008873ffffffffffffffffffffffffffffffffffffffff1673ffffffffffffffffffffffffffffffffffffffff16815260200190815260200160002054611f32919061339b565b600c60008873ffffffffffffffffffffffffffffffffffffffff1673ffffffffffffffffffffffffffffffffffffffff16815260200190815260200160002081905550611f7f86836128b6565b3073ffffffffffffffffffffffffffffffffffffffff168673ffffffffffffffffffffffffffffffffffffffff167fddf252ad1be2c89b69c2b068fc378daa952ba7f163c4a11628f55a4df523b3ef85604051611fdc9190612ca5565b60405180910390a37fe5b754fb1abb7f01b499791d0b820ae3b6af3424ac1c59768edb53f4ec31a92986838560405161201793929190613bb1565b60405180910390a1600260009054906101000a900473ffffffffffffffffffffffffffffffffffffffff1673ffffffffffffffffffffffffffffffffffffffff166351dff989308885876040518563ffffffff167c010000000000000000000000000000000000000000000000000000000002815260040161209c9493929190613be8565b600060405180830381600087803b1580156120b657600080fd5b505af11580156120ca573d6000803e3d6000fd5b50505050505050505050565b6000600260009054906101000a900473ffffffffffffffffffffffffffffffffffffffff1673ffffffffffffffffffffffffffffffffffffffff16634ef4c3e13085856040518463ffffffff167c010000000000000000000000000000000000000000000000000000000002815260040161215393929190613c2d565b6020604051808303816000875af1158015612172573d6000803e3d6000fd5b505050506040513d601f19601f8201168201806040525081019061219691906136b8565b9050600081146121db576040517f08c379a00000000000000000000000000000000000000000000000000000000081526004016121d290613cb0565b60405180910390fd5b6121e36116f8565b60065414612226576040517f08c379a000000000000000000000000000000000000000000000000000000000815260040161221d90613d1c565b60405180910390fd5b60006122328484612630565b9050600081905080600a5461224791906133cf565b600a8190555080600c60008773ffffffffffffffffffffffffffffffffffffffff1673ffffffffffffffffffffffffffffffffffffffff1681526020019081526020016000205461229891906133cf565b600c60008773ffffffffffffffffffffffffffffffffffffffff1673ffffffffffffffffffffffffffffffffffffffff168152602001908152602001600020819055507f4c209b5fc8ad50758f13e2e1088ba56a560dff690a1c6fef26394f4c03821c4f85838360405161230e9392919061370e565b60405180910390a18473ffffffffffffffffffffffffffffffffffffffff163073ffffffffffffffffffffffffffffffffffffffff167fddf252ad1be2c89b69c2b068fc378daa952ba7f163c4a11628f55a4df523b3ef836040516123739190612ca5565b60405180910390a35050505050565b6000600260009054906101000a900473ffffffffffffffffffffffffffffffffffffffff1673ffffffffffffffffffffffffffffffffffffffff1663da3d454c3085856040518463ffffffff167c01000000000000000000000000000000000000000000000000000000000281526004016123ff93929190613b0e565b6020604051808303816000875af115801561241e573d6000803e3d6000fd5b505050506040513d601f19601f8201168201806040525081019061244291906136b8565b905060008114612487576040517f08c379a000000000000000000000000000000000000000000000000000000000815260040161247e9061397c565b60405180910390fd5b61248f6116f8565b600654146124d2576040517f08c379a00000000000000000000000000000000000000000000000000000000081526004016124c9906139e8565b60405180910390fd5b816124db611830565b1161251b576040517f08c379a000000000000000000000000000000000000000000000000000000000815260040161251290613b91565b60405180910390fd5b60006125268461166d565b90506000838261253691906133cf565b905060008460085461254891906133cf565b905081600e60008873ffffffffffffffffffffffffffffffffffffffff1673ffffffffffffffffffffffffffffffffffffffff16815260200190815260200160002060000181905550600754600e60008873ffffffffffffffffffffffffffffffffffffffff1673ffffffffffffffffffffffffffffffffffffffff16815260200190815260200160002060010181905550806008819055506125eb86866128b6565b7f13ed6866d4e1ee6da46f845c46d7e54120883d75c5ea9a2dacc1c4ca8984ab80868684846040516126209493929190613d3c565b60405180910390a1505050505050565b600080600160009054906101000a900473ffffffffffffffffffffffffffffffffffffffff169050600081905060008273ffffffffffffffffffffffffffffffffffffffff166370a08231306040518263ffffffff167c01000000000000000000000000000000000000000000000000000000000281526004016126b49190612ccf565b602060405180830381865afa1580156126d1573d6000803e3d6000fd5b505050506040513d601f19601f820116820180604052508101906126f591906136b8565b90508173ffffffffffffffffffffffffffffffffffffffff166323b872dd8730886040518463ffffffff167c010000000000000000000000000000000000000000000000000000000002815260040161275093929190613c2d565b6020604051808303816000875af115801561276f573d6000803e3d6000fd5b505050506040513d601f19601f820116820180604052508101906127939190613451565b5060003d600081146127ac57602081146127b657600080fd5b60001991506127c2565b60206000803e60005191505b5080612803576040517f08c379a00000000000000000000000000000000000000000000000000000000081526004016127fa90613dcd565b60405180910390fd5b60008473ffffffffffffffffffffffffffffffffffffffff166370a08231306040518263ffffffff167c010000000000000000000000000000000000000000000000000000000002815260040161285a9190612ccf565b602060405180830381865afa158015612877573d6000803e3d6000fd5b505050506040513d601f19601f8201168201806040525081019061289b91906136b8565b905082816128a9919061339b565b9550505050505092915050565b6000600160009054906101000a900473ffffffffffffffffffffffffffffffffffffffff1690508073ffffffffffffffffffffffffffffffffffffffff1663a9059cbb84846040518363ffffffff167c0100000000000000000000000000000000000000000000000000000000028152600401612934929190613ded565b6020604051808303816000875af1158015612953573d6000803e3d6000fd5b505050506040513d601f19601f820116820180604052508101906129779190613451565b5060003d60008114612990576020811461299a57600080fd5b60001991506129a6565b60206000803e60005191505b50806129e7576040517f08c379a00000000000000000000000000000000000000000000000000000000081526004016129de90613e62565b60405180910390fd5b50505050565b8280546129f99061318a565b90600052602060002090601f016020900481019282612a1b5760008555612a62565b82601f10612a3457805160ff1916838001178555612a62565b82800160010185558215612a62579182015b82811115612a61578251825591602001919060010190612a46565b5b509050612a6f9190612a73565b5090565b5b80821115612a8c576000816000905550600101612a74565b5090565b600081519050919050565b600082825260208201905092915050565b60005b83811015612aca578082015181840152602081019050612aaf565b83811115612ad9576000848401525b50505050565b6000601f19601f8301169050919050565b6000612afb82612a90565b612b058185612a9b565b9350612b15818560208601612aac565b612b1e81612adf565b840191505092915050565b60006020820190508181036000830152612b438184612af0565b905092915050565b6000604051905090565b600080fd5b600080fd5b600073ffffffffffffffffffffffffffffffffffffffff82169050919050565b6000612b8a82612b5f565b9050919050565b612b9a81612b7f565b8114612ba557600080fd5b50565b600081359050612bb781612b91565b92915050565b6000819050919050565b612bd081612bbd565b8114612bdb57600080fd5b50565b600081359050612bed81612bc7565b92915050565b60008060408385031215612c0a57612c09612b55565b5b6000612c1885828601612ba8565b9250506020612c2985828601612bde565b9150509250929050565b60008115159050919050565b612c4881612c33565b82525050565b6000602082019050612c636000830184612c3f565b92915050565b600060208284031215612c7f57612c7e612b55565b5b6000612c8d84828501612bde565b91505092915050565b612c9f81612bbd565b82525050565b6000602082019050612cba6000830184612c96565b92915050565b612cc981612b7f565b82525050565b6000602082019050612ce46000830184612cc0565b92915050565b600080600060608486031215612d0357612d02612b55565b5b6000612d1186828701612ba8565b9350506020612d2286828701612ba8565b9250506040612d3386828701612bde565b9150509250925092565b600060ff82169050919050565b612d5381612d3d565b82525050565b6000602082019050612d6e6000830184612d4a565b92915050565b6000612d7f82612b7f565b9050919050565b612d8f81612d74565b8114612d9a57600080fd5b50565b600081359050612dac81612d86565b92915050565b600060208284031215612dc857612dc7612b55565b5b6000612dd684828501612d9d565b91505092915050565b6000819050919050565b6000612e04612dff612dfa84612b5f565b612ddf565b612b5f565b9050919050565b6000612e1682612de9565b9050919050565b6000612e2882612e0b565b9050919050565b612e3881612e1d565b82525050565b6000602082019050612e536000830184612e2f565b92915050565b600060208284031215612e6f57612e6e612b55565b5b6000612e7d84828501612ba8565b91505092915050565b6000608082019050612e9b6000830187612c96565b612ea86020830186612c96565b612eb56040830185612c96565b612ec26060830184612c96565b95945050505050565b600080fd5b600080fd5b7f4e487b7100000000000000000000000000000000000000000000000000000000600052604160045260246000fd5b612f0d82612adf565b810181811067ffffffffffffffff82111715612f2c57612f2b612ed5565b5b80604052505050565b6000612f3f612b4b565b9050612f4b8282612f04565b919050565b600067ffffffffffffffff821115612f6b57612f6a612ed5565b5b612f7482612adf565b9050602081019050919050565b82818337600083830152505050565b6000612fa3612f9e84612f50565b612f35565b905082815260208101848484011115612fbf57612fbe612ed0565b5b612fca848285612f81565b509392505050565b600082601f830112612fe757612fe6612ecb565b5b8135612ff7848260208601612f90565b91505092915050565b61300981612d3d565b811461301457600080fd5b50565b60008135905061302681613000565b92915050565b600080600080600060a0868803121561304857613047612b55565b5b600061305688828901612ba8565b955050602061306788828901612d9d565b945050604086013567ffffffffffffffff81111561308857613087612b5a565b5b61309488828901612fd2565b935050606086013567ffffffffffffffff8111156130b5576130b4612b5a565b5b6130c188828901612fd2565b92505060806130d288828901613017565b9150509295509295909350565b600080604083850312156130f6576130f5612b55565b5b600061310485828601612ba8565b925050602061311585828601612ba8565b9150509250929050565b600061312a82612b5f565b9050919050565b61313a8161311f565b82525050565b60006020820190506131556000830184613131565b92915050565b7f4e487b7100000000000000000000000000000000000000000000000000000000600052602260045260246000fd5b600060028204905060018216806131a257607f821691505b602082108114156131b6576131b561315b565b5b50919050565b7f616d6f756e74206d7573742062652067726561746572207468616e2030000000600082015250565b60006131f2601d83612a9b565b91506131fd826131bc565b602082019050919050565b60006020820190508181036000830152613221816131e5565b9050919050565b7f63616e6e6f74207472616e7366657220746f2073656c66000000000000000000600082015250565b600061325e601783612a9b565b915061326982613228565b602082019050919050565b6000602082019050818103600083015261328d81613251565b9050919050565b7f6e6f7420656e6f7567682062616c616e63650000000000000000000000000000600082015250565b60006132ca601283612a9b565b91506132d582613294565b602082019050919050565b600060208201905081810360008301526132f9816132bd565b9050919050565b7f6e6f7420656e6f75676820616c6c6f77616e6365000000000000000000000000600082015250565b6000613336601483612a9b565b915061334182613300565b602082019050919050565b6000602082019050818103600083015261336581613329565b9050919050565b7f4e487b7100000000000000000000000000000000000000000000000000000000600052601160045260246000fd5b60006133a682612bbd565b91506133b183612bbd565b9250828210156133c4576133c361336c565b5b828203905092915050565b60006133da82612bbd565b91506133e583612bbd565b9250827fffffffffffffffffffffffffffffffffffffffffffffffffffffffffffffffff0382111561341a5761341961336c565b5b828201905092915050565b61342e81612c33565b811461343957600080fd5b50565b60008151905061344b81613425565b92915050565b60006020828403121561346757613466612b55565b5b60006134758482850161343c565b91505092915050565b7f6d61726b6572206d6574686f642072657475726e65642066616c736500000000600082015250565b60006134b4601c83612a9b565b91506134bf8261347e565b602082019050919050565b600060208201905081810360008301526134e3816134a7565b9050919050565b60006040820190506134ff6000830185612e2f565b61350c6020830184612e2f565b9392505050565b7f6f6e6c792061646d696e206d617920696e697469616c697a6520746865206d6160008201527f726b657400000000000000000000000000000000000000000000000000000000602082015250565b600061356f602483612a9b565b915061357a82613513565b604082019050919050565b6000602082019050818103600083015261359e81613562565b9050919050565b7f6d61726b6574206d6179206f6e6c7920626520696e697469616c697a6564206f60008201527f6e63650000000000000000000000000000000000000000000000000000000000602082015250565b6000613601602383612a9b565b915061360c826135a5565b604082019050919050565b60006020820190508181036000830152613630816135f4565b9050919050565b7f73657474696e6720636f6d7074726f6c6c6572206661696c6564000000000000600082015250565b600061366d601a83612a9b565b915061367882613637565b602082019050919050565b6000602082019050818103600083015261369c81613660565b9050919050565b6000815190506136b281612bc7565b92915050565b6000602082840312156136ce576136cd612b55565b5b60006136dc848285016136a3565b91505092915050565b60006040820190506136fa6000830185612cc0565b6137076020830184612c96565b9392505050565b60006060820190506137236000830186612cc0565b6137306020830185612c96565b61373d6040830184612c96565b949350505050565b6000819050919050565b600061376a61376561376084613745565b612ddf565b612bbd565b9050919050565b61377a8161374f565b82525050565b60006080820190506137956000830187612c96565b6137a26020830186613771565b6137af6040830185613771565b6137bc6060830184613771565b95945050505050565b7f72652d656e746572656400000000000000000000000000000000000000000000600082015250565b60006137fb600a83612a9b565b9150613806826137c5565b602082019050919050565b6000602082019050818103600083015261382a816137ee565b9050919050565b600061383c82612bbd565b915061384783612bbd565b9250817fffffffffffffffffffffffffffffffffffffffffffffffffffffffffffffffff04831182151516156138805761387f61336c565b5b828202905092915050565b7f4e487b7100000000000000000000000000000000000000000000000000000000600052601260045260246000fd5b60006138c582612bbd565b91506138d083612bbd565b9250826138e0576138df61388b565b5b828204905092915050565b60006080820190506139006000830187612cc0565b61390d6020830186612cc0565b61391a6040830185612cc0565b6139276060830184612c96565b95945050505050565b7f52656465656d204e6f7420416c6c6f7765640000000000000000000000000000600082015250565b6000613966601283612a9b565b915061397182613930565b602082019050919050565b6000602082019050818103600083015261399581613959565b9050919050565b7f43757272656e7420426c6f636b204e756d626572206e6f7420657175616c7300600082015250565b60006139d2601f83612a9b565b91506139dd8261399c565b602082019050919050565b60006020820190508181036000830152613a01816139c5565b9050919050565b600060a082019050613a1d6000830188612cc0565b613a2a6020830187612cc0565b613a376040830186612c96565b613a446060830185612c96565b613a516080830184612c96565b9695505050505050565b7f6f6e65206f662072656465656d546f6b656e73496e206f722072656465656d4160008201527f6d6f756e74496e206d757374206265207a65726f000000000000000000000000602082015250565b6000613ab7603483612a9b565b9150613ac282613a5b565b604082019050919050565b60006020820190508181036000830152613ae681613aaa565b9050919050565b6000613af882612e0b565b9050919050565b613b0881613aed565b82525050565b6000606082019050613b236000830186612cc0565b613b306020830185613aff565b613b3d6040830184612c96565b949350505050565b7f496e73756666696369656e74204361736820696e746f2070726f746f636f6c00600082015250565b6000613b7b601f83612a9b565b9150613b8682613b45565b602082019050919050565b60006020820190508181036000830152613baa81613b6e565b9050919050565b6000606082019050613bc66000830186613aff565b613bd36020830185612c96565b613be06040830184612c96565b949350505050565b6000608082019050613bfd6000830187612cc0565b613c0a6020830186613aff565b613c176040830185612c96565b613c246060830184612c96565b95945050505050565b6000606082019050613c426000830186612cc0565b613c4f6020830185612cc0565b613c5c6040830184612c96565b949350505050565b7f4d494e54204e4f5420414c4c4f57454400000000000000000000000000000000600082015250565b6000613c9a601083612a9b565b9150613ca582613c64565b602082019050919050565b60006020820190508181036000830152613cc981613c8d565b9050919050565b7f4e4f54205448452053414d4520424c4f434b204e554d42455200000000000000600082015250565b6000613d06601983612a9b565b9150613d1182613cd0565b602082019050919050565b60006020820190508181036000830152613d3581613cf9565b9050919050565b6000608082019050613d516000830187613aff565b613d5e6020830186612c96565b613d6b6040830185612c96565b613d786060830184612c96565b95945050505050565b7f544f4b454e5f5452414e534645525f494e5f4641494c45440000000000000000600082015250565b6000613db7601883612a9b565b9150613dc282613d81565b602082019050919050565b60006020820190508181036000830152613de681613daa565b9050919050565b6000604082019050613e026000830185613aff565b613e0f6020830184612c96565b9392505050565b7f544f4b454e5f5452414e534645525f4f55545f4641494c454400000000000000600082015250565b6000613e4c601983612a9b565b9150613e5782613e16565b602082019050919050565b60006020820190508181036000830152613e7b81613e3f565b905091905056fea2646970667358221220af1a569718721ba7547e880cc0302716256b0d17bfc5a96d2922e198b02eb8f364736f6c634300080c0033",
  "immutableReferences": {},
  "source": "// SPDX-License-Identifier: UNLICENSED\r\npragma solidity >=0.7.0 <0.9.0;\r\n\r\nimport \"./BToken.sol\";\r\n\r\n/**\r\n * @title BabyLoans's BTokenImmutable Contract\r\n * @notice BToken which wrap an EIP-20 underlying and are immutable\r\n * @author Compound\r\n */\r\ncontract BTokenImmutable is BToken {\r\n    /**\r\n     * @notice Construct a new money market\r\n     * @param underlying_ The address of the underlying asset\r\n     * @param comptroller_ The address of the Comptroller\r\n     * @param name_ ERC-20 name of this token\r\n     * @param symbol_ ERC-20 symbol of this token\r\n     * @param decimals_ ERC-20 decimal precision of this token\r\n     * @param admin_ Address of the administrator of this token\r\n     */\r\n    constructor(address underlying_,\r\n                ComptrollerInterface comptroller_,\r\n                string memory name_,\r\n                string memory symbol_,\r\n                uint8 decimals_,\r\n                address payable admin_) {\r\n        // Creator of the contract is admin during initialization\r\n        admin = payable(msg.sender);\r\n\r\n        // Initialize the market\r\n        initialize(underlying_, comptroller_, name_, symbol_, decimals_);\r\n\r\n        // Set the proper admin now that initialization is done\r\n        admin = admin_;\r\n    }\r\n}",
  "sourcePath": "C:\\Lab\\Solidity\\BabyLoans-Protocol\\contracts\\BTokenImmutable.sol",
  "compiler": {
    "name": "solc",
    "version": "0.8.12+commit.f00d7308.Emscripten.clang"
  },
  "schemaVersion": "3.4.7",
  "updatedAt": "2022-06-30T21:43:24.438Z",
  "networkType": "ethereum",
  "devdoc": {
    "author": "Compound",
    "kind": "dev",
    "methods": {
      "_setComptroller(address)": {
        "details": "Admin function to set a new comptroller",
        "returns": {
          "_0": "uint 0=success, otherwise a failure (see ErrorReporter.sol for details)"
        }
      },
      "accrueInterest()": {
        "details": "This calculates interest accrued from the last checkpointed block   up to the current block and writes new checkpoint to storage."
      },
      "allowance(address,address)": {
        "params": {
          "owner": "The address of the account which owns the tokens to be spent",
          "spender": "The address of the account which may transfer tokens"
        },
        "returns": {
          "_0": "The number of tokens allowed to be spent (-1 means infinite)"
        }
      },
      "approve(address,uint256)": {
        "details": "This will overwrite the approval amount for `spender`  and is subject to issues noted [here](https://eips.ethereum.org/EIPS/eip-20#approve)",
        "params": {
          "amount": "The number of tokens that are approved (-1 means infinite)",
          "spender": "The address of the account which may transfer tokens"
        },
        "returns": {
          "_0": "Whether or not the approval succeeded"
        }
      },
      "balanceOf(address)": {
        "params": {
          "owner": "The address of the account to query"
        },
        "returns": {
          "_0": "The number of tokens owned by `owner`"
        }
      },
      "borrow(uint256)": {
        "params": {
          "borrowAmount": "The amount of the underlying asset to borrow"
        },
        "returns": {
          "_0": "uint 0=success, otherwise a failure (see ErrorReporter.sol for details)"
        }
      },
      "constructor": {
        "params": {
          "admin_": "Address of the administrator of this token",
          "comptroller_": "The address of the Comptroller",
          "decimals_": "ERC-20 decimal precision of this token",
          "name_": "ERC-20 name of this token",
          "symbol_": "ERC-20 symbol of this token",
          "underlying_": "The address of the underlying asset"
        }
      },
      "getAccountInfo(address)": {
        "details": "This is used by comptroller to more efficiently perform liquidity checks.",
        "params": {
          "account": "Address of the account to snapshot"
        },
        "returns": {
          "_0": "(possible error, token balance, borrow balance, exchange rate mantissa)"
        }
      },
      "mint(uint256)": {
        "details": "Accrues interest whether or not the operation succeeds, unless reverted",
        "params": {
          "mintAmount": "The amount of the underlying asset to supply"
        },
        "returns": {
          "_0": "uint 0=success, otherwise a failure (see ErrorReporter.sol for details)"
        }
      },
      "redeem(uint256)": {
        "details": "Accrues interest whether or not the operation succeeds, unless reverted",
        "params": {
          "redeemTokens": "The number of cTokens to redeem into underlying"
        },
        "returns": {
          "_0": "uint 0=success, otherwise a failure (see ErrorReporter.sol for details)"
        }
      },
      "redeemUnderlying(uint256)": {
        "details": "Accrues interest whether or not the operation succeeds, unless reverted",
        "params": {
          "redeemAmount": "The number of cTokens to redeem into underlying"
        },
        "returns": {
          "_0": "uint 0=success, otherwise a failure (see ErrorReporter.sol for details)"
        }
      },
      "repayBorrow(uint256)": {
        "params": {
          "repayAmount": "The amount to repay, or -1 for the full outstanding amount"
        },
        "returns": {
          "_0": "uint 0=success, otherwise a failure (see ErrorReporter.sol for details)"
        }
      },
      "repayBorrowBehalf(address,uint256)": {
        "params": {
          "borrower": "the account with the debt being payed off",
          "repayAmount": "The amount to repay, or -1 for the full outstanding amount"
        },
        "returns": {
          "_0": "uint 0=success, otherwise a failure (see ErrorReporter.sol for details)"
        }
      }
    },
    "title": "BabyLoans's BTokenImmutable Contract",
    "version": 1
  },
  "userdoc": {
    "events": {
      "AccrueInterest(uint256,uint256,uint256,uint256)": {
        "notice": "Event emitted when interest is accrued"
      },
      "Approval(address,address,uint256)": {
        "notice": "EIP20 Approval event"
      },
      "Borrow(address,uint256,uint256,uint256)": {
        "notice": "Event emitted when underlying is borrowed"
      },
      "Mint(address,uint256,uint256)": {
        "notice": "Event emitted when tokens are minted"
      },
      "NewComptroller(address,address)": {
        "notice": "Event emitted when comptroller is changed"
      },
      "Redeem(address,uint256,uint256)": {
        "notice": "Event emitted when tokens are redeemed"
      },
      "RepayBorrow(address,address,uint256,uint256,uint256)": {
        "notice": "Event emitted when a borrow is repaid"
      },
      "Transfer(address,address,uint256)": {
        "notice": "EIP20 Transfer event"
      }
    },
    "kind": "user",
    "methods": {
      "_setComptroller(address)": {
        "notice": "Sets a new comptroller for the market"
      },
      "accrualBlockNumber()": {
        "notice": "Block number that interest was last accrued at"
      },
      "accrueInterest()": {
        "notice": "Applies accrued interest to total borrows and reserves"
      },
      "admin()": {
        "notice": "Administrator for this contract"
      },
      "allowance(address,address)": {
        "notice": "Get the current allowance from `owner` for `spender`"
      },
      "approve(address,uint256)": {
        "notice": "Approve `spender` to transfer up to `amount` from `src`"
      },
      "balanceOf(address)": {
        "notice": "Get the token balance of the `owner`"
      },
      "borrow(uint256)": {
        "notice": "Sender borrows assets from the protocol to their own address"
      },
      "borrowIndex()": {
        "notice": "Accumulator of the total earned interest rate since the opening of the market"
      },
      "burn(address,uint256)": {
        "notice": "Burn tokens for the minter"
      },
      "comptroller()": {
        "notice": "Contract which oversees inter-cToken operations"
      },
      "constructor": {
        "notice": "Construct a new money market"
      },
      "decimals()": {
        "notice": "EIP-20 token decimals for this token"
      },
      "getAccountInfo(address)": {
        "notice": "Get a snapshot of the account's balances, and the cached exchange rate"
      },
      "isBToken()": {
        "notice": "Indicator that this is a CToken contract (for inspection)"
      },
      "mint(uint256)": {
        "notice": "Sender supplies assets into the market and receives cTokens in exchange"
      },
      "name()": {
        "notice": "EIP-20 token name for this token"
      },
      "redeem(uint256)": {
        "notice": "Sender redeems cTokens in exchange for the underlying asset"
      },
      "redeemUnderlying(uint256)": {
        "notice": "Sender redeems cTokens in exchange for the underlying asset"
      },
      "repayBorrow(uint256)": {
        "notice": "Sender repays their own borrow"
      },
      "repayBorrowBehalf(address,uint256)": {
        "notice": "Sender repays a borrow belonging to borrower"
      },
      "symbol()": {
        "notice": "EIP-20 token symbol for this token"
      },
      "totalBorrows()": {
        "notice": "Total amount of outstanding borrows of the underlying in this market"
      },
      "totalReserves()": {
        "notice": "Total amount of reserves of the underlying held in this market"
      },
      "totalSupply()": {
        "notice": "Total number of tokens in circulation"
      },
      "transfer(address,uint256)": {
        "notice": "Users functions "
      },
      "underlying()": {
        "notice": "Underlying asset for this CToken"
      },
      "underlyingContract()": {
        "notice": "Underlyint contract address"
      }
    },
    "notice": "BToken which wrap an EIP-20 underlying and are immutable",
    "version": 1
  }
}