{
  "contractName": "ComptrollerStorage",
  "abi": [
    {
      "inputs": [
        {
          "internalType": "address",
          "name": "",
          "type": "address"
        },
        {
          "internalType": "uint256",
          "name": "",
          "type": "uint256"
        }
      ],
      "name": "accountAssets",
      "outputs": [
        {
          "internalType": "contract BToken",
          "name": "",
          "type": "address"
        }
      ],
      "stateMutability": "view",
      "type": "function"
    },
    {
      "inputs": [],
      "name": "admin",
      "outputs": [
        {
          "internalType": "address",
          "name": "",
          "type": "address"
        }
      ],
      "stateMutability": "view",
      "type": "function"
    },
    {
      "inputs": [
        {
          "internalType": "uint256",
          "name": "",
          "type": "uint256"
        }
      ],
      "name": "allMarkets",
      "outputs": [
        {
          "internalType": "contract BToken",
          "name": "",
          "type": "address"
        }
      ],
      "stateMutability": "view",
      "type": "function"
    },
    {
      "inputs": [
        {
          "internalType": "address",
          "name": "",
          "type": "address"
        }
      ],
      "name": "borrowCaps",
      "outputs": [
        {
          "internalType": "uint256",
          "name": "",
          "type": "uint256"
        }
      ],
      "stateMutability": "view",
      "type": "function"
    },
    {
      "inputs": [
        {
          "internalType": "address",
          "name": "",
          "type": "address"
        }
      ],
      "name": "markets",
      "outputs": [
        {
          "internalType": "bool",
          "name": "isListed",
          "type": "bool"
        },
        {
          "internalType": "uint256",
          "name": "collateralFactorMantissa",
          "type": "uint256"
        },
        {
          "internalType": "bool",
          "name": "isComped",
          "type": "bool"
        }
      ],
      "stateMutability": "view",
      "type": "function"
    }
  ],
  "bytecode": "0x608060405234801561001057600080fd5b506104f1806100206000396000f3fe608060405234801561001057600080fd5b5060043610610074576000357c0100000000000000000000000000000000000000000000000000000000900480634a5844321461007957806352d84d1e146100a95780638e8f294b146100d9578063dce154491461010b578063f851a4401461013b575b600080fd5b610093600480360381019061008e91906102cb565b610159565b6040516100a09190610311565b60405180910390f35b6100c360048036038101906100be9190610358565b610171565b6040516100d091906103e4565b60405180910390f35b6100f360048036038101906100ee91906102cb565b6101b0565b6040516101029392919061041a565b60405180910390f35b61012560048036038101906101209190610451565b6101f4565b60405161013291906103e4565b60405180910390f35b610143610242565b60405161015091906104a0565b60405180910390f35b60036020528060005260406000206000915090505481565b6004818154811061018157600080fd5b906000526020600020016000915054906101000a900473ffffffffffffffffffffffffffffffffffffffff1681565b60026020528060005260406000206000915090508060000160009054906101000a900460ff16908060010154908060030160009054906101000a900460ff16905083565b6000602052816000526040600020818154811061021057600080fd5b906000526020600020016000915091509054906101000a900473ffffffffffffffffffffffffffffffffffffffff1681565b600160009054906101000a900473ffffffffffffffffffffffffffffffffffffffff1681565b600080fd5b600073ffffffffffffffffffffffffffffffffffffffff82169050919050565b60006102988261026d565b9050919050565b6102a88161028d565b81146102b357600080fd5b50565b6000813590506102c58161029f565b92915050565b6000602082840312156102e1576102e0610268565b5b60006102ef848285016102b6565b91505092915050565b6000819050919050565b61030b816102f8565b82525050565b60006020820190506103266000830184610302565b92915050565b610335816102f8565b811461034057600080fd5b50565b6000813590506103528161032c565b92915050565b60006020828403121561036e5761036d610268565b5b600061037c84828501610343565b91505092915050565b6000819050919050565b60006103aa6103a56103a08461026d565b610385565b61026d565b9050919050565b60006103bc8261038f565b9050919050565b60006103ce826103b1565b9050919050565b6103de816103c3565b82525050565b60006020820190506103f960008301846103d5565b92915050565b60008115159050919050565b610414816103ff565b82525050565b600060608201905061042f600083018661040b565b61043c6020830185610302565b610449604083018461040b565b949350505050565b6000806040838503121561046857610467610268565b5b6000610476858286016102b6565b925050602061048785828601610343565b9150509250929050565b61049a8161028d565b82525050565b60006020820190506104b56000830184610491565b9291505056fea26469706673582212202c1e2eeda34f8e8cb69b02a0c0c3525858ed76a0aaf89959d53c2d8a017dc47b64736f6c634300080c0033",
  "immutableReferences": {},
  "source": "// SPDX-License-Identifier: UNLICENSED\r\npragma solidity >=0.7.0 <0.9.0;\r\n\r\nimport \"./BToken.sol\";\r\n\r\ncontract ComptrollerStorage {\r\n    /**\r\n     * @notice Per-account mapping of \"assets you are in\", capped by maxAssets\r\n     */\r\n    mapping(address => BToken[]) public accountAssets;\r\n\r\n    address public admin;\r\n\r\n    struct Market {\r\n        // Whether or not this market is listed\r\n        bool isListed;\r\n        //  Multiplier representing the most one can borrow against their collateral in this market.\r\n        //  For instance, 0.9 to allow borrowing 90% of collateral value.\r\n        //  Must be between 0 and 1, and stored as a mantissa.\r\n        uint256 collateralFactorMantissa;\r\n        // Per-market mapping of \"accounts in this asset\"\r\n        mapping(address => bool) accountMembership;\r\n        // Whether or not this market receives COMP\r\n        bool isComped;\r\n    }\r\n\r\n    /**\r\n     * @notice Official mapping of BTokens -> Market metadata\r\n     * @dev Used e.g. to determine if a market is supported\r\n     */\r\n    mapping(address => Market) public markets;\r\n\r\n    // @notice Borrow caps enforced by borrowAllowed for each cToken address. Defaults to zero which corresponds to unlimited borrowing.\r\n    mapping(address => uint256) public borrowCaps;\r\n\r\n    /// @notice A list of all markets\r\n    BToken[] public allMarkets;\r\n\r\n    enum Error {\r\n        NO_ERROR,\r\n        MARKET_NOT_LISTED,\r\n        MARKET_ALREADY_LISTED,\r\n        GET_ACCOUNT_INFO_ERROR,\r\n        INSUFFICIENT_LIQUIDITY,\r\n        NONZERO_BORROW_BALANCE,\r\n        REJECTION,\r\n        UNAUTHORIZED\r\n    }\r\n}\r\n\r\nabstract contract ComptrollerInterface is ComptrollerStorage {\r\n    /// @notice Indicator that this is a Comptroller contract (for inspection)\r\n    bool public constant isComptroller = true;\r\n\r\n    /*** Assets You Are In ***/\r\n\r\n    function enterMarkets(address[] calldata bTokens)\r\n        external\r\n        virtual\r\n        returns (uint256[] memory);\r\n\r\n    function exitMarket(address bToken) external virtual returns (uint256);\r\n\r\n    /*** Policy Hooks ***/\r\n\r\n    function mintAllowed(\r\n        address bToken,\r\n        address minter,\r\n        uint256 mintAmount\r\n    ) external virtual returns (uint256);\r\n\r\n    function redeemAllowed(\r\n        address bToken,\r\n        address redeemer,\r\n        uint256 redeemTokens\r\n    ) external virtual returns (uint256);\r\n\r\n    function redeemVerify(\r\n        address cToken,\r\n        address redeemer,\r\n        uint256 redeemAmount,\r\n        uint256 redeemTokens\r\n    ) external virtual;\r\n\r\n    function borrowAllowed(\r\n        address bToken,\r\n        address borrower,\r\n        uint256 borrowAmount\r\n    ) external virtual returns (uint256);\r\n\r\n    function repayBorrowAllowed(\r\n        address bToken,\r\n        address payer,\r\n        address borrower,\r\n        uint256 repayAmount\r\n    ) external virtual returns (uint256);\r\n\r\n    // function liquidateBorrowAllowed(\r\n    //     address bTokenBorrowed,\r\n    //     address bTokenCollateral,\r\n    //     address liquidator,\r\n    //     address borrower,\r\n    //     uint repayAmount) virtual external returns (uint);\r\n\r\n    // function seizeAllowed(\r\n    //     address bTokenCollateral,\r\n    //     address bTokenBorrowed,\r\n    //     address liquidator,\r\n    //     address borrower,\r\n    //     uint seizeTokens) virtual external returns (uint);\r\n\r\n    function transferAllowed(\r\n        address bToken,\r\n        address src,\r\n        address dst,\r\n        uint256 transferTokens\r\n    ) external virtual returns (uint256);\r\n\r\n    /*** Liquidity/Liquidation Calculations ***/\r\n\r\n    //     function liquidateCalculateSeizeTokens(\r\n    //         address bTokenBorrowed,\r\n    //         address bTokenCollateral,\r\n    //         uint repayAmount) virtual external view returns (uint, uint);\r\n    //\r\n}\r\n",
  "sourcePath": "C:\\Lab\\Solidity\\BabyLoans-Protocol\\contracts\\ComptrollerInterface.sol",
  "compiler": {
    "name": "solc",
    "version": "0.8.12+commit.f00d7308.Emscripten.clang"
  },
  "schemaVersion": "3.4.7",
  "updatedAt": "2022-06-30T10:35:41.941Z",
  "devdoc": {
    "kind": "dev",
    "methods": {},
    "stateVariables": {
      "markets": {
        "details": "Used e.g. to determine if a market is supported"
      }
    },
    "version": 1
  },
  "userdoc": {
    "kind": "user",
    "methods": {
      "accountAssets(address,uint256)": {
        "notice": "Per-account mapping of \"assets you are in\", capped by maxAssets"
      },
      "allMarkets(uint256)": {
        "notice": "A list of all markets"
      },
      "markets(address)": {
        "notice": "Official mapping of BTokens -> Market metadata"
      }
    },
    "version": 1
  }
}