{
  "contractName": "Comptroller",
  "abi": [
    {
      "inputs": [],
      "stateMutability": "nonpayable",
      "type": "constructor"
    },
    {
      "anonymous": false,
      "inputs": [
        {
          "indexed": false,
          "internalType": "contract BToken",
          "name": "bToken",
          "type": "address"
        },
        {
          "indexed": false,
          "internalType": "address",
          "name": "account",
          "type": "address"
        }
      ],
      "name": "MarketEntered",
      "type": "event"
    },
    {
      "anonymous": false,
      "inputs": [
        {
          "indexed": false,
          "internalType": "contract BToken",
          "name": "bToken",
          "type": "address"
        },
        {
          "indexed": false,
          "internalType": "address",
          "name": "account",
          "type": "address"
        }
      ],
      "name": "MarketExited",
      "type": "event"
    },
    {
      "anonymous": false,
      "inputs": [
        {
          "indexed": false,
          "internalType": "contract BToken",
          "name": "bToken",
          "type": "address"
        }
      ],
      "name": "MarketListed",
      "type": "event"
    },
    {
      "inputs": [
        {
          "internalType": "address",
          "name": "",
          "type": "address"
        },
        {
          "internalType": "uint256",
          "name": "",
          "type": "uint256"
        }
      ],
      "name": "accountAssets",
      "outputs": [
        {
          "internalType": "contract BToken",
          "name": "",
          "type": "address"
        }
      ],
      "stateMutability": "view",
      "type": "function",
      "constant": true
    },
    {
      "inputs": [],
      "name": "admin",
      "outputs": [
        {
          "internalType": "address",
          "name": "",
          "type": "address"
        }
      ],
      "stateMutability": "view",
      "type": "function",
      "constant": true
    },
    {
      "inputs": [
        {
          "internalType": "uint256",
          "name": "",
          "type": "uint256"
        }
      ],
      "name": "allMarkets",
      "outputs": [
        {
          "internalType": "contract BToken",
          "name": "",
          "type": "address"
        }
      ],
      "stateMutability": "view",
      "type": "function",
      "constant": true
    },
    {
      "inputs": [
        {
          "internalType": "address",
          "name": "",
          "type": "address"
        }
      ],
      "name": "borrowCaps",
      "outputs": [
        {
          "internalType": "uint256",
          "name": "",
          "type": "uint256"
        }
      ],
      "stateMutability": "view",
      "type": "function",
      "constant": true
    },
    {
      "inputs": [],
      "name": "isComptroller",
      "outputs": [
        {
          "internalType": "bool",
          "name": "",
          "type": "bool"
        }
      ],
      "stateMutability": "view",
      "type": "function",
      "constant": true
    },
    {
      "inputs": [
        {
          "internalType": "address",
          "name": "",
          "type": "address"
        }
      ],
      "name": "markets",
      "outputs": [
        {
          "internalType": "bool",
          "name": "isListed",
          "type": "bool"
        },
        {
          "internalType": "uint256",
          "name": "collateralFactorMantissa",
          "type": "uint256"
        },
        {
          "internalType": "bool",
          "name": "isComped",
          "type": "bool"
        }
      ],
      "stateMutability": "view",
      "type": "function",
      "constant": true
    },
    {
      "inputs": [
        {
          "internalType": "address",
          "name": "account",
          "type": "address"
        }
      ],
      "name": "getAssetsIn",
      "outputs": [
        {
          "internalType": "contract BToken[]",
          "name": "",
          "type": "address[]"
        }
      ],
      "stateMutability": "view",
      "type": "function",
      "constant": true
    },
    {
      "inputs": [
        {
          "internalType": "address",
          "name": "account",
          "type": "address"
        },
        {
          "internalType": "contract BToken",
          "name": "bToken",
          "type": "address"
        }
      ],
      "name": "checkMembership",
      "outputs": [
        {
          "internalType": "bool",
          "name": "",
          "type": "bool"
        }
      ],
      "stateMutability": "view",
      "type": "function",
      "constant": true
    },
    {
      "inputs": [
        {
          "internalType": "address[]",
          "name": "bTokens",
          "type": "address[]"
        }
      ],
      "name": "enterMarkets",
      "outputs": [
        {
          "internalType": "uint256[]",
          "name": "",
          "type": "uint256[]"
        }
      ],
      "stateMutability": "nonpayable",
      "type": "function"
    },
    {
      "inputs": [
        {
          "internalType": "address",
          "name": "bTokenAddress",
          "type": "address"
        }
      ],
      "name": "exitMarket",
      "outputs": [
        {
          "internalType": "uint256",
          "name": "",
          "type": "uint256"
        }
      ],
      "stateMutability": "nonpayable",
      "type": "function"
    },
    {
      "inputs": [
        {
          "internalType": "address",
          "name": "bToken",
          "type": "address"
        },
        {
          "internalType": "address",
          "name": "minter",
          "type": "address"
        },
        {
          "internalType": "uint256",
          "name": "mintAmount",
          "type": "uint256"
        }
      ],
      "name": "mintAllowed",
      "outputs": [
        {
          "internalType": "uint256",
          "name": "",
          "type": "uint256"
        }
      ],
      "stateMutability": "nonpayable",
      "type": "function"
    },
    {
      "inputs": [
        {
          "internalType": "address",
          "name": "bToken",
          "type": "address"
        },
        {
          "internalType": "address",
          "name": "redeemer",
          "type": "address"
        },
        {
          "internalType": "uint256",
          "name": "redeemTokens",
          "type": "uint256"
        }
      ],
      "name": "redeemAllowed",
      "outputs": [
        {
          "internalType": "uint256",
          "name": "",
          "type": "uint256"
        }
      ],
      "stateMutability": "nonpayable",
      "type": "function"
    },
    {
      "inputs": [
        {
          "internalType": "address",
          "name": "bToken",
          "type": "address"
        },
        {
          "internalType": "address",
          "name": "redeemer",
          "type": "address"
        },
        {
          "internalType": "uint256",
          "name": "redeemAmount",
          "type": "uint256"
        },
        {
          "internalType": "uint256",
          "name": "redeemTokens",
          "type": "uint256"
        }
      ],
      "name": "redeemVerify",
      "outputs": [],
      "stateMutability": "nonpayable",
      "type": "function"
    },
    {
      "inputs": [
        {
          "internalType": "address",
          "name": "bToken",
          "type": "address"
        },
        {
          "internalType": "address",
          "name": "borrower",
          "type": "address"
        },
        {
          "internalType": "uint256",
          "name": "borrowAmount",
          "type": "uint256"
        }
      ],
      "name": "borrowAllowed",
      "outputs": [
        {
          "internalType": "uint256",
          "name": "",
          "type": "uint256"
        }
      ],
      "stateMutability": "nonpayable",
      "type": "function"
    },
    {
      "inputs": [
        {
          "internalType": "address",
          "name": "bToken",
          "type": "address"
        },
        {
          "internalType": "address",
          "name": "payer",
          "type": "address"
        },
        {
          "internalType": "address",
          "name": "borrower",
          "type": "address"
        },
        {
          "internalType": "uint256",
          "name": "repayAmount",
          "type": "uint256"
        }
      ],
      "name": "repayBorrowAllowed",
      "outputs": [
        {
          "internalType": "uint256",
          "name": "",
          "type": "uint256"
        }
      ],
      "stateMutability": "nonpayable",
      "type": "function"
    },
    {
      "inputs": [
        {
          "internalType": "address",
          "name": "bToken",
          "type": "address"
        },
        {
          "internalType": "address",
          "name": "src",
          "type": "address"
        },
        {
          "internalType": "address",
          "name": "dst",
          "type": "address"
        },
        {
          "internalType": "uint256",
          "name": "transferTokens",
          "type": "uint256"
        }
      ],
      "name": "transferAllowed",
      "outputs": [
        {
          "internalType": "uint256",
          "name": "",
          "type": "uint256"
        }
      ],
      "stateMutability": "nonpayable",
      "type": "function"
    },
    {
      "inputs": [],
      "name": "getAllMarkets",
      "outputs": [
        {
          "internalType": "contract BToken[]",
          "name": "",
          "type": "address[]"
        }
      ],
      "stateMutability": "view",
      "type": "function",
      "constant": true
    },
    {
      "inputs": [],
      "name": "_isAdmin",
      "outputs": [
        {
          "internalType": "bool",
          "name": "",
          "type": "bool"
        }
      ],
      "stateMutability": "view",
      "type": "function",
      "constant": true
    },
    {
      "inputs": [
        {
          "internalType": "contract BToken",
          "name": "bToken",
          "type": "address"
        }
      ],
      "name": "_supportMarket",
      "outputs": [
        {
          "internalType": "uint256",
          "name": "",
          "type": "uint256"
        }
      ],
      "stateMutability": "nonpayable",
      "type": "function"
    }
  ],
  "bytecode": "0x608060405234801561001057600080fd5b5033600160006101000a81548173ffffffffffffffffffffffffffffffffffffffff021916908373ffffffffffffffffffffffffffffffffffffffff160217905550612b5a806100616000396000f3fe608060405234801561001057600080fd5b506004361061013d576000357c010000000000000000000000000000000000000000000000000000000090048063abfceffc116100ca578063dce154491161008e578063dce15449146103ac578063eabe7d91146103dc578063ede4edd01461040c578063f851a4401461043c578063fc6019021461045a5761013d565b8063abfceffc146102ce578063b0772d0b146102fe578063bdcdc2581461031c578063c29982381461034c578063da3d454c1461037c5761013d565b806351dff9891161011157806351dff989146101f057806352d84d1e1461020c5780638e8f294b1461023c578063929fe9a11461026e578063a76b3fda1461029e5761013d565b80627e3dd21461014257806324008a62146101605780634a584432146101905780634ef4c3e1146101c0575b600080fd5b61014a610478565b6040516101579190611e58565b60405180910390f35b61017a60048036038101906101759190611f1b565b61047d565b6040516101879190611f91565b60405180910390f35b6101aa60048036038101906101a59190611fac565b61050d565b6040516101b79190611f91565b60405180910390f35b6101da60048036038101906101d59190611fd9565b610525565b6040516101e79190611f91565b60405180910390f35b61020a6004803603810190610205919061202c565b6105b4565b005b61022660048036038101906102219190612093565b61060a565b604051610233919061211f565b60405180910390f35b61025660048036038101906102519190611fac565b610649565b6040516102659392919061213a565b60405180910390f35b610288600480360381019061028391906121af565b61068d565b6040516102959190611e58565b60405180910390f35b6102b860048036038101906102b391906121ef565b610724565b6040516102c59190611f91565b60405180910390f35b6102e860048036038101906102e39190611fac565b610975565b6040516102f591906122da565b60405180910390f35b610306610a47565b60405161031391906122da565b60405180910390f35b61033660048036038101906103319190611f1b565b610ad5565b6040516103439190611f91565b60405180910390f35b61036660048036038101906103619190612455565b610b28565b604051610373919061255c565b60405180910390f35b61039660048036038101906103919190611fd9565b610c01565b6040516103a39190611f91565b60405180910390f35b6103c660048036038101906103c1919061257e565b611038565b6040516103d3919061211f565b60405180910390f35b6103f660048036038101906103f19190611fd9565b611086565b6040516104039190611f91565b60405180910390f35b61042660048036038101906104219190611fac565b6110d8565b6040516104339190611f91565b60405180910390f35b610444611610565b60405161045191906125cd565b60405180910390f35b610462611636565b60405161046f9190611e58565b60405180910390f35b600181565b6000600260008673ffffffffffffffffffffffffffffffffffffffff1673ffffffffffffffffffffffffffffffffffffffff16815260200190815260200160002060000160009054906101000a900460ff166104ee57600160078111156104e7576104e66125e8565b5b9050610505565b60006007811115610502576105016125e8565b5b90505b949350505050565b60036020528060005260406000206000915090505481565b6000600260008573ffffffffffffffffffffffffffffffffffffffff1673ffffffffffffffffffffffffffffffffffffffff16815260200190815260200160002060000160009054906101000a900460ff16610596576001600781111561058f5761058e6125e8565b5b90506105ad565b600060078111156105aa576105a96125e8565b5b90505b9392505050565b6000811480156105c45750600082115b15610604576040517f08c379a00000000000000000000000000000000000000000000000000000000081526004016105fb90612674565b60405180910390fd5b50505050565b6004818154811061061a57600080fd5b906000526020600020016000915054906101000a900473ffffffffffffffffffffffffffffffffffffffff1681565b60026020528060005260406000206000915090508060000160009054906101000a900460ff16908060010154908060030160009054906101000a900460ff16905083565b6000600260008373ffffffffffffffffffffffffffffffffffffffff1673ffffffffffffffffffffffffffffffffffffffff16815260200190815260200160002060020160008473ffffffffffffffffffffffffffffffffffffffff1673ffffffffffffffffffffffffffffffffffffffff16815260200190815260200160002060009054906101000a900460ff16905092915050565b6000600160009054906101000a900473ffffffffffffffffffffffffffffffffffffffff1673ffffffffffffffffffffffffffffffffffffffff163373ffffffffffffffffffffffffffffffffffffffff16146107955760078081111561078e5761078d6125e8565b5b9050610970565b600260008373ffffffffffffffffffffffffffffffffffffffff1673ffffffffffffffffffffffffffffffffffffffff16815260200190815260200160002060000160009054906101000a900460ff161561080557600260078111156107fe576107fd6125e8565b5b9050610970565b8173ffffffffffffffffffffffffffffffffffffffff1663fbb623376040518163ffffffff167c0100000000000000000000000000000000000000000000000000000000028152600401602060405180830381865afa15801561086c573d6000803e3d6000fd5b505050506040513d601f19601f8201168201806040525081019061089091906126c0565b506000600260008473ffffffffffffffffffffffffffffffffffffffff1673ffffffffffffffffffffffffffffffffffffffff168152602001908152602001600020905060018160000160006101000a81548160ff02191690831515021790555060008160030160006101000a81548160ff021916908315150217905550600081600101819055506109218361168e565b7fcf583bb0c569eb967f806b11601c4cb93c10310485c67add5f8362c2f212321f83604051610950919061211f565b60405180910390a16000600781111561096c5761096b6125e8565b5b9150505b919050565b606060008060008473ffffffffffffffffffffffffffffffffffffffff1673ffffffffffffffffffffffffffffffffffffffff168152602001908152602001600020805480602002602001604051908101604052809291908181526020018280548015610a3757602002820191906000526020600020905b8160009054906101000a900473ffffffffffffffffffffffffffffffffffffffff1673ffffffffffffffffffffffffffffffffffffffff16815260200190600101908083116109ed575b5050505050905080915050919050565b60606004805480602002602001604051908101604052809291908181526020018280548015610acb57602002820191906000526020600020905b8160009054906101000a900473ffffffffffffffffffffffffffffffffffffffff1673ffffffffffffffffffffffffffffffffffffffff1681526020019060010190808311610a81575b5050505050905090565b600080610ae38686856117c5565b905060006007811115610af957610af86125e8565b5b8114610b085780915050610b20565b60006007811115610b1c57610b1b6125e8565b5b9150505b949350505050565b606060008251905060008167ffffffffffffffff811115610b4c57610b4b612312565b5b604051908082528060200260200182016040528015610b7a5781602001602082028036833780820191505090505b50905060005b82811015610bf6576000858281518110610b9d57610b9c6126ed565b5b60200260200101519050610bb18133611985565b6007811115610bc357610bc26125e8565b5b838381518110610bd657610bd56126ed565b5b602002602001018181525050508080610bee9061274b565b915050610b80565b508092505050919050565b6000600260008573ffffffffffffffffffffffffffffffffffffffff1673ffffffffffffffffffffffffffffffffffffffff16815260200190815260200160002060000160009054906101000a900460ff16610c725760016007811115610c6b57610c6a6125e8565b5b9050611031565b600260008573ffffffffffffffffffffffffffffffffffffffff1673ffffffffffffffffffffffffffffffffffffffff16815260200190815260200160002060020160008473ffffffffffffffffffffffffffffffffffffffff1673ffffffffffffffffffffffffffffffffffffffff16815260200190815260200160002060009054906101000a900460ff16610e62578373ffffffffffffffffffffffffffffffffffffffff163373ffffffffffffffffffffffffffffffffffffffff1614610d71576040517f08c379a0000000000000000000000000000000000000000000000000000000008152600401610d68906127e0565b60405180910390fd5b6000610d7d3385611985565b905060006007811115610d9357610d926125e8565b5b816007811115610da657610da56125e8565b5b14610dc657806007811115610dbe57610dbd6125e8565b5b915050611031565b600260008673ffffffffffffffffffffffffffffffffffffffff1673ffffffffffffffffffffffffffffffffffffffff16815260200190815260200160002060020160008573ffffffffffffffffffffffffffffffffffffffff1673ffffffffffffffffffffffffffffffffffffffff16815260200190815260200160002060009054906101000a900460ff16610e6057610e5f612800565b5b505b6000600360008673ffffffffffffffffffffffffffffffffffffffff1673ffffffffffffffffffffffffffffffffffffffff16815260200190815260200160002054905060008114610f925760008573ffffffffffffffffffffffffffffffffffffffff166347bd37186040518163ffffffff167c0100000000000000000000000000000000000000000000000000000000028152600401602060405180830381865afa158015610f17573d6000803e3d6000fd5b505050506040513d601f19601f82011682018060405250810190610f3b9190612844565b905060008482610f4b9190612871565b9050828110610f8f576040517f08c379a0000000000000000000000000000000000000000000000000000000008152600401610f8690612913565b60405180910390fd5b50505b600080610fa28688600088611b8c565b925050915060006007811115610fbb57610fba6125e8565b5b826007811115610fce57610fcd6125e8565b5b14610ff057816007811115610fe657610fe56125e8565b5b9350505050611031565b6000811115611017576004600781111561100d5761100c6125e8565b5b9350505050611031565b6000600781111561102b5761102a6125e8565b5b93505050505b9392505050565b6000602052816000526040600020818154811061105457600080fd5b906000526020600020016000915091509054906101000a900473ffffffffffffffffffffffffffffffffffffffff1681565b6000806110948585856117c5565b9050600060078111156110aa576110a96125e8565b5b81146110b957809150506110d1565b600060078111156110cd576110cc6125e8565b5b9150505b9392505050565b60008082905060008060008373ffffffffffffffffffffffffffffffffffffffff16637b510fe8336040518263ffffffff167c010000000000000000000000000000000000000000000000000000000002815260040161113891906125cd565b608060405180830381865afa158015611155573d6000803e3d6000fd5b505050506040513d601f19601f820116820180604052508101906111799190612933565b50925092509250600083146111c3576040517f08c379a00000000000000000000000000000000000000000000000000000000081526004016111ba90612a0c565b60405180910390fd5b600081146111ea57600560078111156111df576111de6125e8565b5b94505050505061160b565b60006111f78733856117c5565b9050600081146112215760066007811115611215576112146125e8565b5b9550505050505061160b565b6000600260008773ffffffffffffffffffffffffffffffffffffffff1673ffffffffffffffffffffffffffffffffffffffff16815260200190815260200160002090508060020160003373ffffffffffffffffffffffffffffffffffffffff1673ffffffffffffffffffffffffffffffffffffffff16815260200190815260200160002060009054906101000a900460ff166112d857600060078111156112cb576112ca6125e8565b5b965050505050505061160b565b8060020160003373ffffffffffffffffffffffffffffffffffffffff1673ffffffffffffffffffffffffffffffffffffffff16815260200190815260200160002060006101000a81549060ff021916905560008060003373ffffffffffffffffffffffffffffffffffffffff1673ffffffffffffffffffffffffffffffffffffffff1681526020019081526020016000208054806020026020016040519081016040528092919081815260200182805480156113e957602002820191906000526020600020905b8160009054906101000a900473ffffffffffffffffffffffffffffffffffffffff1673ffffffffffffffffffffffffffffffffffffffff168152602001906001019080831161139f575b50505050509050600081519050600081905060005b8281101561146f578973ffffffffffffffffffffffffffffffffffffffff168482815181106114305761142f6126ed565b5b602002602001015173ffffffffffffffffffffffffffffffffffffffff16141561145c5780915061146f565b80806114679061274b565b9150506113fe565b508181106114805761147f612800565b5b60008060003373ffffffffffffffffffffffffffffffffffffffff1673ffffffffffffffffffffffffffffffffffffffff168152602001908152602001600020905080600182805490506114d49190612a2c565b815481106114e5576114e46126ed565b5b9060005260206000200160009054906101000a900473ffffffffffffffffffffffffffffffffffffffff16818381548110611523576115226126ed565b5b9060005260206000200160006101000a81548173ffffffffffffffffffffffffffffffffffffffff021916908373ffffffffffffffffffffffffffffffffffffffff1602179055508080548061157c5761157b612a60565b5b6001900381819060005260206000200160006101000a81549073ffffffffffffffffffffffffffffffffffffffff021916905590557fe699a64c18b07ac5b7301aa273f36a2287239eb9501d81950672794afba29a0d8a336040516115e2929190612a8f565b60405180910390a1600060078111156115fe576115fd6125e8565b5b9a50505050505050505050505b919050565b600160009054906101000a900473ffffffffffffffffffffffffffffffffffffffff1681565b6000600160009054906101000a900473ffffffffffffffffffffffffffffffffffffffff1673ffffffffffffffffffffffffffffffffffffffff163373ffffffffffffffffffffffffffffffffffffffff1614905090565b60005b60048054905081101561175e578173ffffffffffffffffffffffffffffffffffffffff16600482815481106116c9576116c86126ed565b5b9060005260206000200160009054906101000a900473ffffffffffffffffffffffffffffffffffffffff1673ffffffffffffffffffffffffffffffffffffffff16141561174b576040517f08c379a000000000000000000000000000000000000000000000000000000000815260040161174290612b04565b60405180910390fd5b80806117569061274b565b915050611691565b506004819080600181540180825580915050600190039060005260206000200160009091909190916101000a81548173ffffffffffffffffffffffffffffffffffffffff021916908373ffffffffffffffffffffffffffffffffffffffff16021790555050565b6000600260008573ffffffffffffffffffffffffffffffffffffffff1673ffffffffffffffffffffffffffffffffffffffff16815260200190815260200160002060000160009054906101000a900460ff16611836576001600781111561182f5761182e6125e8565b5b905061197e565b600260008573ffffffffffffffffffffffffffffffffffffffff1673ffffffffffffffffffffffffffffffffffffffff16815260200190815260200160002060020160008473ffffffffffffffffffffffffffffffffffffffff1673ffffffffffffffffffffffffffffffffffffffff16815260200190815260200160002060009054906101000a900460ff166118e257600060078111156118db576118da6125e8565b5b905061197e565b6000806118f28587866000611b8c565b92505091506000600781111561190b5761190a6125e8565b5b82600781111561191e5761191d6125e8565b5b1461193f57816007811115611936576119356125e8565b5b9250505061197e565b6000811115611965576004600781111561195c5761195b6125e8565b5b9250505061197e565b60006007811115611979576119786125e8565b5b925050505b9392505050565b600080600260008573ffffffffffffffffffffffffffffffffffffffff1673ffffffffffffffffffffffffffffffffffffffff16815260200190815260200160002090508060000160009054906101000a900460ff166119e9576001915050611b86565b600115158160020160008573ffffffffffffffffffffffffffffffffffffffff1673ffffffffffffffffffffffffffffffffffffffff16815260200190815260200160002060009054906101000a900460ff1615151415611a4e576000915050611b86565b60018160020160008573ffffffffffffffffffffffffffffffffffffffff1673ffffffffffffffffffffffffffffffffffffffff16815260200190815260200160002060006101000a81548160ff0219169083151502179055506000808473ffffffffffffffffffffffffffffffffffffffff1673ffffffffffffffffffffffffffffffffffffffff168152602001908152602001600020849080600181540180825580915050600190039060005260206000200160009091909190916101000a81548173ffffffffffffffffffffffffffffffffffffffff021916908373ffffffffffffffffffffffffffffffffffffffff1602179055507f3ab23ab0d51cccc0c3085aec51f99228625aa1a922b3a8ca89a26b0f2027a1a58484604051611b78929190612a8f565b60405180910390a160009150505b92915050565b6000806000611b99611e0e565b6000806000808b73ffffffffffffffffffffffffffffffffffffffff1673ffffffffffffffffffffffffffffffffffffffff168152602001908152602001600020805480602002602001604051908101604052809291908181526020018280548015611c5a57602002820191906000526020600020905b8160009054906101000a900473ffffffffffffffffffffffffffffffffffffffff1673ffffffffffffffffffffffffffffffffffffffff1681526020019060010190808311611c10575b5050505050905060005b8151811015611dac576000828281518110611c8257611c816126ed565b5b602002602001015190508073ffffffffffffffffffffffffffffffffffffffff16637b510fe88d6040518263ffffffff167c0100000000000000000000000000000000000000000000000000000000028152600401611ce191906125cd565b608060405180830381865afa158015611cfe573d6000803e3d6000fd5b505050506040513d601f19601f82011682018060405250810190611d229190612933565b88604001896060018a6080018381525083815250838152508397505050505060008414611d5e5760036000809750975097505050505050611e04565b846040015185600001818151611d749190612871565b91508181525050846060015185602001818151611d919190612871565b91508181525050508080611da49061274b565b915050611c64565b50826020015183600001511115611de357600083602001518460000151611dd39190612a2c565b6000955095509550505050611e04565b60008084600001518560200151611dfa9190612a2c565b9550955095505050505b9450945094915050565b6040518060a0016040528060008152602001600081526020016000815260200160008152602001600081525090565b60008115159050919050565b611e5281611e3d565b82525050565b6000602082019050611e6d6000830184611e49565b92915050565b6000604051905090565b600080fd5b600080fd5b600073ffffffffffffffffffffffffffffffffffffffff82169050919050565b6000611eb282611e87565b9050919050565b611ec281611ea7565b8114611ecd57600080fd5b50565b600081359050611edf81611eb9565b92915050565b6000819050919050565b611ef881611ee5565b8114611f0357600080fd5b50565b600081359050611f1581611eef565b92915050565b60008060008060808587031215611f3557611f34611e7d565b5b6000611f4387828801611ed0565b9450506020611f5487828801611ed0565b9350506040611f6587828801611ed0565b9250506060611f7687828801611f06565b91505092959194509250565b611f8b81611ee5565b82525050565b6000602082019050611fa66000830184611f82565b92915050565b600060208284031215611fc257611fc1611e7d565b5b6000611fd084828501611ed0565b91505092915050565b600080600060608486031215611ff257611ff1611e7d565b5b600061200086828701611ed0565b935050602061201186828701611ed0565b925050604061202286828701611f06565b9150509250925092565b6000806000806080858703121561204657612045611e7d565b5b600061205487828801611ed0565b945050602061206587828801611ed0565b935050604061207687828801611f06565b925050606061208787828801611f06565b91505092959194509250565b6000602082840312156120a9576120a8611e7d565b5b60006120b784828501611f06565b91505092915050565b6000819050919050565b60006120e56120e06120db84611e87565b6120c0565b611e87565b9050919050565b60006120f7826120ca565b9050919050565b6000612109826120ec565b9050919050565b612119816120fe565b82525050565b60006020820190506121346000830184612110565b92915050565b600060608201905061214f6000830186611e49565b61215c6020830185611f82565b6121696040830184611e49565b949350505050565b600061217c82611ea7565b9050919050565b61218c81612171565b811461219757600080fd5b50565b6000813590506121a981612183565b92915050565b600080604083850312156121c6576121c5611e7d565b5b60006121d485828601611ed0565b92505060206121e58582860161219a565b9150509250929050565b60006020828403121561220557612204611e7d565b5b60006122138482850161219a565b91505092915050565b600081519050919050565b600082825260208201905092915050565b6000819050602082019050919050565b612251816120fe565b82525050565b60006122638383612248565b60208301905092915050565b6000602082019050919050565b60006122878261221c565b6122918185612227565b935061229c83612238565b8060005b838110156122cd5781516122b48882612257565b97506122bf8361226f565b9250506001810190506122a0565b5085935050505092915050565b600060208201905081810360008301526122f4818461227c565b905092915050565b600080fd5b6000601f19601f8301169050919050565b7f4e487b7100000000000000000000000000000000000000000000000000000000600052604160045260246000fd5b61234a82612301565b810181811067ffffffffffffffff8211171561236957612368612312565b5b80604052505050565b600061237c611e73565b90506123888282612341565b919050565b600067ffffffffffffffff8211156123a8576123a7612312565b5b602082029050602081019050919050565b600080fd5b60006123d16123cc8461238d565b612372565b905080838252602082019050602084028301858111156123f4576123f36123b9565b5b835b8181101561241d57806124098882611ed0565b8452602084019350506020810190506123f6565b5050509392505050565b600082601f83011261243c5761243b6122fc565b5b813561244c8482602086016123be565b91505092915050565b60006020828403121561246b5761246a611e7d565b5b600082013567ffffffffffffffff81111561248957612488611e82565b5b61249584828501612427565b91505092915050565b600081519050919050565b600082825260208201905092915050565b6000819050602082019050919050565b6124d381611ee5565b82525050565b60006124e583836124ca565b60208301905092915050565b6000602082019050919050565b60006125098261249e565b61251381856124a9565b935061251e836124ba565b8060005b8381101561254f57815161253688826124d9565b9750612541836124f1565b925050600181019050612522565b5085935050505092915050565b6000602082019050818103600083015261257681846124fe565b905092915050565b6000806040838503121561259557612594611e7d565b5b60006125a385828601611ed0565b92505060206125b485828601611f06565b9150509250929050565b6125c781611ea7565b82525050565b60006020820190506125e260008301846125be565b92915050565b7f4e487b7100000000000000000000000000000000000000000000000000000000600052602160045260246000fd5b600082825260208201905092915050565b7f72656465656d546f6b656e73207a65726f000000000000000000000000000000600082015250565b600061265e601183612617565b915061266982612628565b602082019050919050565b6000602082019050818103600083015261268d81612651565b9050919050565b61269d81611e3d565b81146126a857600080fd5b50565b6000815190506126ba81612694565b92915050565b6000602082840312156126d6576126d5611e7d565b5b60006126e4848285016126ab565b91505092915050565b7f4e487b7100000000000000000000000000000000000000000000000000000000600052603260045260246000fd5b7f4e487b7100000000000000000000000000000000000000000000000000000000600052601160045260246000fd5b600061275682611ee5565b91507fffffffffffffffffffffffffffffffffffffffffffffffffffffffffffffffff8214156127895761278861271c565b5b600182019050919050565b7f73656e646572206d7573742062652062546f6b656e0000000000000000000000600082015250565b60006127ca601583612617565b91506127d582612794565b602082019050919050565b600060208201905081810360008301526127f9816127bd565b9050919050565b7f4e487b7100000000000000000000000000000000000000000000000000000000600052600160045260246000fd5b60008151905061283e81611eef565b92915050565b60006020828403121561285a57612859611e7d565b5b60006128688482850161282f565b91505092915050565b600061287c82611ee5565b915061288783611ee5565b9250827fffffffffffffffffffffffffffffffffffffffffffffffffffffffffffffffff038211156128bc576128bb61271c565b5b828201905092915050565b7f6d61726b657420626f72726f7720636170207265616368656400000000000000600082015250565b60006128fd601983612617565b9150612908826128c7565b602082019050919050565b6000602082019050818103600083015261292c816128f0565b9050919050565b6000806000806080858703121561294d5761294c611e7d565b5b600061295b8782880161282f565b945050602061296c8782880161282f565b935050604061297d8782880161282f565b925050606061298e8782880161282f565b91505092959194509250565b7f657869744d61726b65743a206765744163636f756e74496e666f206661696c6560008201527f6400000000000000000000000000000000000000000000000000000000000000602082015250565b60006129f6602183612617565b9150612a018261299a565b604082019050919050565b60006020820190508181036000830152612a25816129e9565b9050919050565b6000612a3782611ee5565b9150612a4283611ee5565b925082821015612a5557612a5461271c565b5b828203905092915050565b7f4e487b7100000000000000000000000000000000000000000000000000000000600052603160045260246000fd5b6000604082019050612aa46000830185612110565b612ab160208301846125be565b9392505050565b7f6d61726b657420616c7265616479206164646564000000000000000000000000600082015250565b6000612aee601483612617565b9150612af982612ab8565b602082019050919050565b60006020820190508181036000830152612b1d81612ae1565b905091905056fea26469706673582212200d7972a0ba434d76c9bc85d17939da9971fea9ed66740925fa15918477ab3f9d64736f6c634300080c0033",
  "immutableReferences": {},
  "source": "// SPDX-License-Identifier: UNLICENSED\r\npragma solidity >=0.7.0 <0.9.0;\r\n\r\nimport \"./BToken.sol\";\r\nimport \"./ComptrollerInterface.sol\";\r\nimport \"@openzeppelin/contracts/access/Ownable.sol\";\r\n\r\ncontract Comptroller is ComptrollerInterface {\r\n    constructor() {\r\n        admin = msg.sender;\r\n    }\r\n\r\n    /*** EVENT ***/\r\n\r\n    /// @notice Emitted when an admin supports a market\r\n    event MarketListed(BToken bToken);\r\n\r\n    /// @notice Emitted when an account enters a market\r\n    event MarketEntered(BToken bToken, address account);\r\n\r\n    /// @notice Emitted when an account exits a market\r\n    event MarketExited(BToken bToken, address account);\r\n\r\n    /*** Assets You Are In ***/\r\n\r\n    /**\r\n     * @notice Returns the assets an account has entered\r\n     * @param account The address of the account to pull assets for\r\n     * @return A dynamic list with the assets the account has entered\r\n     */\r\n    function getAssetsIn(address account)\r\n        external\r\n        view\r\n        returns (BToken[] memory)\r\n    {\r\n        BToken[] memory assetsIn = accountAssets[account];\r\n\r\n        return assetsIn;\r\n    }\r\n\r\n    /**\r\n     * @notice Returns whether the given account is entered in the given asset\r\n     * @param account The address of the account to check\r\n     * @param bToken The bToken to check\r\n     * @return True if the account is in the asset, otherwise false.\r\n     */\r\n    function checkMembership(address account, BToken bToken)\r\n        external\r\n        view\r\n        returns (bool)\r\n    {\r\n        return markets[address(bToken)].accountMembership[account];\r\n    }\r\n\r\n    /**\r\n     * @notice Add assets to be included in account liquidity calculation\r\n     * @param bTokens The list of addresses of the cToken markets to be enabled\r\n     * @return Success indicator for whether each corresponding market was entered\r\n     */\r\n    function enterMarkets(address[] memory bTokens)\r\n        public\r\n        override\r\n        returns (uint256[] memory)\r\n    {\r\n        uint256 len = bTokens.length;\r\n\r\n        uint256[] memory results = new uint256[](len);\r\n        for (uint256 i = 0; i < len; i++) {\r\n            BToken bToken = BToken(bTokens[i]);\r\n\r\n            results[i] = uint256(addToMarketInternal(bToken, msg.sender));\r\n        }\r\n\r\n        return results;\r\n    }\r\n\r\n    /**\r\n     * @notice Add the market to the borrower's \"assets in\" for liquidity calculations\r\n     * @param bToken The market to enter\r\n     * @param borrower The address of the account to modify\r\n     * @return Success indicator for whether the market was entered\r\n     */\r\n    function addToMarketInternal(BToken bToken, address borrower)\r\n        internal\r\n        returns (Error)\r\n    {\r\n        Market storage marketToJoin = markets[address(bToken)];\r\n\r\n        if (!marketToJoin.isListed) {\r\n            // market is not listed, cannot join\r\n            return Error.MARKET_NOT_LISTED;\r\n        }\r\n\r\n        if (marketToJoin.accountMembership[borrower] == true) {\r\n            // already joined\r\n            return Error.NO_ERROR;\r\n        }\r\n\r\n        marketToJoin.accountMembership[borrower] = true;\r\n        accountAssets[borrower].push(bToken);\r\n\r\n        emit MarketEntered(bToken, borrower);\r\n\r\n        return Error.NO_ERROR;\r\n    }\r\n\r\n    /**\r\n     * @notice Removes asset from sender's account liquidity calculation\r\n     * @dev Sender must not have an outstanding borrow balance in the asset,\r\n     *  or be providing necessary collateral for an outstanding borrow.\r\n     * @param bTokenAddress The address of the asset to be removed\r\n     * @return Whether or not the account successfully exited the market\r\n     */\r\n    function exitMarket(address bTokenAddress)\r\n        external\r\n        override\r\n        returns (uint256)\r\n    {\r\n        BToken bToken = BToken(bTokenAddress);\r\n        /* Get sender tokensHeld and amountOwed underlying from the btoken */\r\n        //call betoken for get tokensHeld\r\n        (uint256 oErr, uint256 tokensHeld, uint256 borrowBalance, ) = bToken\r\n            .getAccountInfo(msg.sender);\r\n        require(oErr == 0, \"exitMarket: getAccountInfo failed\"); // semi-opaque error code\r\n\r\n        /* Fail if the sender has a borrow balance */\r\n        if (borrowBalance != 0) {\r\n            return uint256(Error.NONZERO_BORROW_BALANCE);\r\n        }\r\n\r\n        /* Fail if the sender is not permitted to redeem all of their tokens */\r\n        uint256 allowed = redeemAllowedInternal(\r\n            bTokenAddress,\r\n            msg.sender,\r\n            tokensHeld\r\n        );\r\n        if (allowed != 0) {\r\n            return uint256(Error.REJECTION);\r\n        }\r\n\r\n        Market storage marketToExit = markets[address(bToken)];\r\n\r\n        /* Return true if the sender is not already in the market */\r\n        if (!marketToExit.accountMembership[msg.sender]) {\r\n            return uint256(Error.NO_ERROR);\r\n        }\r\n\r\n        /* Set bToken account membership to false */\r\n        delete marketToExit.accountMembership[msg.sender];\r\n\r\n        /* Delete bToken from the accounts list of assets */\r\n        // load into memory for faster iteration\r\n        BToken[] memory userAssetList = accountAssets[msg.sender];\r\n        uint256 len = userAssetList.length;\r\n        uint256 assetIndex = len;\r\n        for (uint256 i = 0; i < len; i++) {\r\n            if (userAssetList[i] == bToken) {\r\n                assetIndex = i;\r\n                break;\r\n            }\r\n        }\r\n\r\n        // We *must* have found the asset in the list or our redundant data structure is broken\r\n        assert(assetIndex < len);\r\n\r\n        // copy last item in list to location of item to be removed, reduce length by 1\r\n        BToken[] storage storedList = accountAssets[msg.sender];\r\n        storedList[assetIndex] = storedList[storedList.length - 1];\r\n        storedList.pop();\r\n\r\n        emit MarketExited(bToken, msg.sender);\r\n\r\n        return uint256(Error.NO_ERROR);\r\n    }\r\n\r\n    /*** Policy Hooks ***/\r\n\r\n    /**\r\n     * @notice Checks if the account should be allowed to mint tokens in the given market\r\n     * @param bToken The market to verify the mint against\r\n     * @param minter The account which would get the minted tokens\r\n     * @param mintAmount The amount of underlying being supplied to the market in exchange for tokens\r\n     * @return 0 if the mint is allowed, otherwise a semi-opaque error code (See ErrorReporter.sol)\r\n     */\r\n    function mintAllowed(\r\n        address bToken,\r\n        address minter,\r\n        uint256 mintAmount\r\n    ) external override returns (uint256) {\r\n        // Pausing is a very serious situation - we revert to sound the alarms\r\n        //TODO ADMIN FUNCTION TO MAINTAIN\r\n        //require(!mintGuardianPaused[bToken], \"mint is paused\");\r\n\r\n        // Shh - currently unused\r\n        minter;\r\n        mintAmount;\r\n\r\n        if (!markets[bToken].isListed) {\r\n            return uint256(Error.MARKET_NOT_LISTED);\r\n        }\r\n\r\n        // Keep the flywheel moving\r\n        // TODO UPDATE SUPPLY INDEX FOR INTEREST RATE\r\n        // updateCompSupplyIndex(bToken);\r\n        // distributeSupplierComp(bToken, minter);\r\n\r\n        return uint256(Error.NO_ERROR);\r\n    }\r\n\r\n    /**\r\n     * @notice Checks if the account should be allowed to redeem tokens in the given market\r\n     * @param bToken The market to verify the redeem against\r\n     * @param redeemer The account which would redeem the tokens\r\n     * @param redeemTokens The number of bTokens to exchange for the underlying asset in the market\r\n     * @return 0 if the redeem is allowed, otherwise a semi-opaque error code (See ErrorReporter.sol)\r\n     */\r\n    function redeemAllowed(\r\n        address bToken,\r\n        address redeemer,\r\n        uint256 redeemTokens\r\n    ) external override returns (uint256) {\r\n        uint256 allowed = redeemAllowedInternal(bToken, redeemer, redeemTokens);\r\n        if (allowed != uint256(Error.NO_ERROR)) {\r\n            return allowed;\r\n        }\r\n\r\n        // Keep the flywheel moving\r\n        // TODO UPDATE SUPPLY INDEX FOR INTEREST RATE\r\n        // updateCompSupplyIndex(cToken);\r\n        // distributeSupplierComp(cToken, redeemer);\r\n\r\n        return uint256(Error.NO_ERROR);\r\n    }\r\n\r\n    function redeemAllowedInternal(\r\n        address bToken,\r\n        address redeemer,\r\n        uint256 redeemTokens\r\n    ) internal view returns (uint256) {\r\n        if (!markets[bToken].isListed) {\r\n            return uint256(Error.MARKET_NOT_LISTED);\r\n        }\r\n\r\n        /* If the redeemer is not 'in' the market, then we can bypass the liquidity check */\r\n        if (!markets[bToken].accountMembership[redeemer]) {\r\n            return uint256(Error.NO_ERROR);\r\n        }\r\n\r\n        /* Otherwise, perform a hypothetical liquidity check to guard against shortfall */\r\n        (\r\n            Error err,\r\n            ,\r\n            uint256 shortfall\r\n        ) = getHypotheticalAccountLiquidityInternal(\r\n                redeemer,\r\n                BToken(bToken),\r\n                redeemTokens,\r\n                0\r\n            );\r\n        if (err != Error.NO_ERROR) {\r\n            return uint256(err);\r\n        }\r\n        if (shortfall > 0) {\r\n            return uint256(Error.INSUFFICIENT_LIQUIDITY);\r\n        }\r\n\r\n        return uint256(Error.NO_ERROR);\r\n    }\r\n\r\n    /**\r\n     * @notice Validates redeem and reverts on rejection. May emit logs.\r\n     * @param bToken Asset being redeemed\r\n     * @param redeemer The address redeeming the tokens\r\n     * @param redeemAmount The amount of the underlying asset being redeemed\r\n     * @param redeemTokens The number of tokens being redeemed\r\n     */\r\n    function redeemVerify(\r\n        address bToken,\r\n        address redeemer,\r\n        uint256 redeemAmount,\r\n        uint256 redeemTokens\r\n    ) external override {\r\n        // Shh - currently unused\r\n        bToken;\r\n        redeemer;\r\n\r\n        // Require tokens is zero or amount is also zero\r\n        if (redeemTokens == 0 && redeemAmount > 0) {\r\n            revert(\"redeemTokens zero\");\r\n        }\r\n    }\r\n\r\n    /**\r\n     * @notice Checks if the account should be allowed to borrow the underlying asset of the given market\r\n     * @param bToken The market to verify the borrow against\r\n     * @param borrower The account which would borrow the asset\r\n     * @param borrowAmount The amount of underlying the account would borrow\r\n     * @return 0 if the borrow is allowed, otherwise a semi-opaque error code (See ErrorReporter.sol)\r\n     */\r\n    function borrowAllowed(\r\n        address bToken,\r\n        address borrower,\r\n        uint256 borrowAmount\r\n    ) external override returns (uint256) {\r\n        // Pausing is a very serious situation - we revert to sound the alarms\r\n        // TODO ADMIN FUNCTION TO MAINTAIN\r\n        // require(!borrowGuardianPaused[bToken], \"borrow is paused\");\r\n\r\n        if (!markets[bToken].isListed) {\r\n            return uint256(Error.MARKET_NOT_LISTED);\r\n        }\r\n\r\n        if (!markets[bToken].accountMembership[borrower]) {\r\n            // only cTokens may call borrowAllowed if borrower not in market\r\n            require(msg.sender == bToken, \"sender must be bToken\");\r\n\r\n            // attempt to add borrower to the market\r\n            Error err = addToMarketInternal(BToken(msg.sender), borrower);\r\n            if (err != Error.NO_ERROR) {\r\n                return uint256(err);\r\n            }\r\n\r\n            // it should be impossible to break the important invariant\r\n            assert(markets[bToken].accountMembership[borrower]);\r\n        }\r\n\r\n        uint256 borrowCap = borrowCaps[bToken];\r\n        // Borrow cap of 0 corresponds to unlimited borrowing\r\n        if (borrowCap != 0) {\r\n            uint256 totalBorrows = BToken(bToken).totalBorrows();\r\n\r\n            // TODO SAFE MATH EXPNOERROR.SOL add_()\r\n            // uint nextTotalBorrows = add_(totalBorrows, borrowAmount);\r\n            uint256 nextTotalBorrows = totalBorrows + borrowAmount;\r\n\r\n            require(nextTotalBorrows < borrowCap, \"market borrow cap reached\");\r\n        }\r\n\r\n        (\r\n            Error err,\r\n            ,\r\n            uint256 shortfall\r\n        ) = getHypotheticalAccountLiquidityInternal(\r\n                borrower,\r\n                BToken(bToken),\r\n                0,\r\n                borrowAmount\r\n            );\r\n        if (err != Error.NO_ERROR) {\r\n            return uint256(err);\r\n        }\r\n        if (shortfall > 0) {\r\n            return uint256(Error.INSUFFICIENT_LIQUIDITY);\r\n        }\r\n\r\n        // Keep the flywheel moving\r\n        // TODO UPDATE SUPPLY INDEX FOR INTEREST RATE\r\n        // Exp memory borrowIndex = Exp({mantissa: CToken(cToken).borrowIndex()});\r\n        // updateCompBorrowIndex(cToken, borrowIndex);\r\n        // distributeBorrowerComp(cToken, borrower, borrowIndex);\r\n\r\n        return uint256(Error.NO_ERROR);\r\n    }\r\n\r\n    /**\r\n     * @notice Checks if the account should be allowed to repay a borrow in the given market\r\n     * @param bToken The market to verify the repay against\r\n     * @param payer The account which would repay the asset\r\n     * @param borrower The account which would borrowed the asset\r\n     * @param repayAmount The amount of the underlying asset the account would repay\r\n     * @return 0 if the repay is allowed, otherwise a semi-opaque error code (See ErrorReporter.sol)\r\n     */\r\n    function repayBorrowAllowed(\r\n        address bToken,\r\n        address payer,\r\n        address borrower,\r\n        uint256 repayAmount\r\n    ) external override returns (uint256) {\r\n        // Shh - currently unused\r\n        payer;\r\n        borrower;\r\n        repayAmount;\r\n\r\n        if (!markets[bToken].isListed) {\r\n            return uint256(Error.MARKET_NOT_LISTED);\r\n        }\r\n\r\n        // Keep the flywheel moving\r\n        // TODO UPDATE SUPPLY INDEX FOR INTEREST RATE\r\n        //Exp memory borrowIndex = Exp({mantissa: BToken(bToken).borrowIndex()});\r\n        //updateCompBorrowIndex(bToken, borrowIndex);\r\n        //distributeBorrowerComp(bToken, borrower, borrowIndex);\r\n\r\n        return uint256(Error.NO_ERROR);\r\n    }\r\n\r\n    /**\r\n     * @notice Checks if the account should be allowed to transfer tokens in the given market\r\n     * @param bToken The market to verify the transfer against\r\n     * @param src The account which sources the tokens\r\n     * @param dst The account which receives the tokens\r\n     * @param transferTokens The number of cTokens to transfer\r\n     * @return 0 if the transfer is allowed, otherwise a semi-opaque error code (See ErrorReporter.sol)\r\n     */\r\n    function transferAllowed(\r\n        address bToken,\r\n        address src,\r\n        address dst,\r\n        uint256 transferTokens\r\n    ) external override returns (uint256) {\r\n        // Pausing is a very serious situation - we revert to sound the alarms\r\n        // TODO ADMIN FUNCTION GUARDIAN\r\n        // require(!transferGuardianPaused, \"transfer is paused\");\r\n\r\n        // Currently the only consideration is whether or not\r\n        //  the src is allowed to redeem this many tokens\r\n        uint256 allowed = redeemAllowedInternal(bToken, src, transferTokens);\r\n        if (allowed != uint256(Error.NO_ERROR)) {\r\n            return allowed;\r\n        }\r\n\r\n        // Keep the flywheel moving\r\n        // TODO UPDATE SUPPLY INDEX FOR INTEREST RATE\r\n        // updateCompSupplyIndex(bToken);\r\n        // distributeSupplierComp(bToken, src);\r\n        // distributeSupplierComp(bToken, dst);\r\n\r\n        return uint256(Error.NO_ERROR);\r\n    }\r\n\r\n    function getAllMarkets() public view returns (BToken[] memory) {\r\n        return allMarkets;\r\n    }\r\n\r\n    /*** Liquidity/Liquidation Calculations ***/\r\n\r\n    /**\r\n     * @dev Local vars for avoiding stack-depth limits in calculating account liquidity.\r\n     *  Note that `bTokenBalance` is the number of bTokens the account owns in the market,\r\n     *  whereas `borrowBalance` is the amount of underlying that the account has borrowed.\r\n     */\r\n    struct AccountLiquidityLocalVars {\r\n        uint256 sumCollateral;\r\n        uint256 sumBorrowPlusEffects;\r\n        uint256 bTokenBalance;\r\n        uint256 borrowBalance;\r\n        uint256 exchangeMantissa;\r\n    }\r\n\r\n    /**\r\n     * @notice Determine what the account liquidity would be if the given amounts were redeemed/borrowed\r\n     * @param bTokenModify The market to hypothetically redeem/borrow in\r\n     * @param account The account to determine liquidity for\r\n     * @param redeemTokens The number of tokens to hypothetically redeem\r\n     * @param borrowAmount The amount of underlying to hypothetically borrow\r\n     * @dev Note that we calculate the exchangeRateStored for each collateral bToken using stored data,\r\n     *  without calculating accumulated interest.\r\n     * @return (possible error code,\r\n                hypothetical account liquidity in excess of collateral requirements,\r\n     *          hypothetical account shortfall below collateral requirements)\r\n     */\r\n    function getHypotheticalAccountLiquidityInternal(\r\n        address account,\r\n        BToken bTokenModify,\r\n        uint256 redeemTokens,\r\n        uint256 borrowAmount\r\n    )\r\n        internal\r\n        view\r\n        returns (\r\n            Error,\r\n            uint256,\r\n            uint256\r\n        )\r\n    {\r\n        AccountLiquidityLocalVars memory vars; // Holds all our calculation results\r\n\r\n        uint256 oErr;\r\n\r\n        // For each asset the account is in\r\n        BToken[] memory assets = accountAssets[account];\r\n        for (uint256 i = 0; i < assets.length; i++) {\r\n            BToken asset = assets[i];\r\n\r\n            // Read the balances and exchange rate from the cToken\r\n            (\r\n                oErr,\r\n                vars.bTokenBalance,\r\n                vars.borrowBalance,\r\n                vars.exchangeMantissa\r\n            ) = asset.getAccountInfo(account);\r\n            if (oErr != 0) {\r\n                // semi-opaque error code, we assume NO_ERROR == 0 is invariant between upgrades\r\n                return (Error.GET_ACCOUNT_INFO_ERROR, 0, 0);\r\n            }\r\n\r\n            //TODO CALCULATE COLLATERAL AND OTHER THING TO SEIZE\r\n            vars.sumCollateral += vars.bTokenBalance;\r\n            vars.sumBorrowPlusEffects += vars.borrowBalance;\r\n        }\r\n\r\n        if (vars.sumCollateral > vars.sumBorrowPlusEffects) {\r\n            return (\r\n                Error.NO_ERROR,\r\n                vars.sumCollateral - vars.sumBorrowPlusEffects,\r\n                0\r\n            );\r\n        } else {\r\n            return (\r\n                Error.NO_ERROR,\r\n                0,\r\n                vars.sumBorrowPlusEffects - vars.sumCollateral\r\n            );\r\n        }\r\n    }\r\n\r\n    /*** Admin Functions ***/\r\n\r\n    /**\r\n     * @notice Checks caller is admin, or this contract is becoming the new implementation\r\n     */\r\n    function _isAdmin() external view returns (bool) {\r\n        return msg.sender == admin;\r\n    }\r\n\r\n    /**\r\n     * @notice Add the market to the markets mapping and set it as listed\r\n     * @dev Admin function to set isListed and add support for the market\r\n     * @param bToken The address of the market (token) to list\r\n     * @return uint 0=success, otherwise a failure. (See enum Error for details)\r\n     */\r\n    function _supportMarket(BToken bToken) external returns (uint256) {\r\n        if (msg.sender != admin) {\r\n            return uint256(Error.UNAUTHORIZED);\r\n        }\r\n\r\n        if (markets[address(bToken)].isListed) {\r\n            return uint256(Error.MARKET_ALREADY_LISTED);\r\n        }\r\n\r\n        bToken.isBToken(); // Sanity check to make sure its really a BToken\r\n\r\n        // Note that isComped is not in active use anymore\r\n        Market storage market = markets[address(bToken)];\r\n        market.isListed = true;\r\n        market.isComped = false;\r\n        market.collateralFactorMantissa = 0;\r\n\r\n        _addMarketInternal(address(bToken));\r\n\r\n        emit MarketListed(bToken);\r\n\r\n        return uint256(Error.NO_ERROR);\r\n    }\r\n\r\n    function _addMarketInternal(address bToken) internal {\r\n        for (uint256 i = 0; i < allMarkets.length; i++) {\r\n            require(allMarkets[i] != BToken(bToken), \"market already added\");\r\n        }\r\n        allMarkets.push(BToken(bToken));\r\n    }\r\n}\r\n",
  "sourcePath": "C:\\Lab\\Solidity\\BabyLoans-Protocol\\contracts\\Comptroller.sol",
  "compiler": {
    "name": "solc",
    "version": "0.8.12+commit.f00d7308.Emscripten.clang"
  },
  "schemaVersion": "3.4.7",
  "updatedAt": "2022-06-30T10:36:15.404Z",
  "networkType": "ethereum",
  "devdoc": {
    "kind": "dev",
    "methods": {
      "_supportMarket(address)": {
        "details": "Admin function to set isListed and add support for the market",
        "params": {
          "bToken": "The address of the market (token) to list"
        },
        "returns": {
          "_0": "uint 0=success, otherwise a failure. (See enum Error for details)"
        }
      },
      "borrowAllowed(address,address,uint256)": {
        "params": {
          "bToken": "The market to verify the borrow against",
          "borrowAmount": "The amount of underlying the account would borrow",
          "borrower": "The account which would borrow the asset"
        },
        "returns": {
          "_0": "0 if the borrow is allowed, otherwise a semi-opaque error code (See ErrorReporter.sol)"
        }
      },
      "checkMembership(address,address)": {
        "params": {
          "account": "The address of the account to check",
          "bToken": "The bToken to check"
        },
        "returns": {
          "_0": "True if the account is in the asset, otherwise false."
        }
      },
      "enterMarkets(address[])": {
        "params": {
          "bTokens": "The list of addresses of the cToken markets to be enabled"
        },
        "returns": {
          "_0": "Success indicator for whether each corresponding market was entered"
        }
      },
      "exitMarket(address)": {
        "details": "Sender must not have an outstanding borrow balance in the asset,  or be providing necessary collateral for an outstanding borrow.",
        "params": {
          "bTokenAddress": "The address of the asset to be removed"
        },
        "returns": {
          "_0": "Whether or not the account successfully exited the market"
        }
      },
      "getAssetsIn(address)": {
        "params": {
          "account": "The address of the account to pull assets for"
        },
        "returns": {
          "_0": "A dynamic list with the assets the account has entered"
        }
      },
      "mintAllowed(address,address,uint256)": {
        "params": {
          "bToken": "The market to verify the mint against",
          "mintAmount": "The amount of underlying being supplied to the market in exchange for tokens",
          "minter": "The account which would get the minted tokens"
        },
        "returns": {
          "_0": "0 if the mint is allowed, otherwise a semi-opaque error code (See ErrorReporter.sol)"
        }
      },
      "redeemAllowed(address,address,uint256)": {
        "params": {
          "bToken": "The market to verify the redeem against",
          "redeemTokens": "The number of bTokens to exchange for the underlying asset in the market",
          "redeemer": "The account which would redeem the tokens"
        },
        "returns": {
          "_0": "0 if the redeem is allowed, otherwise a semi-opaque error code (See ErrorReporter.sol)"
        }
      },
      "redeemVerify(address,address,uint256,uint256)": {
        "params": {
          "bToken": "Asset being redeemed",
          "redeemAmount": "The amount of the underlying asset being redeemed",
          "redeemTokens": "The number of tokens being redeemed",
          "redeemer": "The address redeeming the tokens"
        }
      },
      "repayBorrowAllowed(address,address,address,uint256)": {
        "params": {
          "bToken": "The market to verify the repay against",
          "borrower": "The account which would borrowed the asset",
          "payer": "The account which would repay the asset",
          "repayAmount": "The amount of the underlying asset the account would repay"
        },
        "returns": {
          "_0": "0 if the repay is allowed, otherwise a semi-opaque error code (See ErrorReporter.sol)"
        }
      },
      "transferAllowed(address,address,address,uint256)": {
        "params": {
          "bToken": "The market to verify the transfer against",
          "dst": "The account which receives the tokens",
          "src": "The account which sources the tokens",
          "transferTokens": "The number of cTokens to transfer"
        },
        "returns": {
          "_0": "0 if the transfer is allowed, otherwise a semi-opaque error code (See ErrorReporter.sol)"
        }
      }
    },
    "version": 1
  },
  "userdoc": {
    "events": {
      "MarketEntered(address,address)": {
        "notice": "Emitted when an account enters a market"
      },
      "MarketExited(address,address)": {
        "notice": "Emitted when an account exits a market"
      },
      "MarketListed(address)": {
        "notice": "Emitted when an admin supports a market"
      }
    },
    "kind": "user",
    "methods": {
      "_isAdmin()": {
        "notice": "Checks caller is admin, or this contract is becoming the new implementation"
      },
      "_supportMarket(address)": {
        "notice": "Add the market to the markets mapping and set it as listed"
      },
      "accountAssets(address,uint256)": {
        "notice": "Per-account mapping of \"assets you are in\", capped by maxAssets"
      },
      "allMarkets(uint256)": {
        "notice": "A list of all markets"
      },
      "borrowAllowed(address,address,uint256)": {
        "notice": "Checks if the account should be allowed to borrow the underlying asset of the given market"
      },
      "checkMembership(address,address)": {
        "notice": "Returns whether the given account is entered in the given asset"
      },
      "enterMarkets(address[])": {
        "notice": "Add assets to be included in account liquidity calculation"
      },
      "exitMarket(address)": {
        "notice": "Removes asset from sender's account liquidity calculation"
      },
      "getAssetsIn(address)": {
        "notice": "Returns the assets an account has entered"
      },
      "isComptroller()": {
        "notice": "Indicator that this is a Comptroller contract (for inspection)"
      },
      "markets(address)": {
        "notice": "Official mapping of BTokens -> Market metadata"
      },
      "mintAllowed(address,address,uint256)": {
        "notice": "Checks if the account should be allowed to mint tokens in the given market"
      },
      "redeemAllowed(address,address,uint256)": {
        "notice": "Checks if the account should be allowed to redeem tokens in the given market"
      },
      "redeemVerify(address,address,uint256,uint256)": {
        "notice": "Validates redeem and reverts on rejection. May emit logs."
      },
      "repayBorrowAllowed(address,address,address,uint256)": {
        "notice": "Checks if the account should be allowed to repay a borrow in the given market"
      },
      "transferAllowed(address,address,address,uint256)": {
        "notice": "Checks if the account should be allowed to transfer tokens in the given market"
      }
    },
    "version": 1
  }
}