{
  "contractName": "TokenLending",
  "abi": [
    {
      "anonymous": false,
      "inputs": [
        {
          "indexed": true,
          "internalType": "address",
          "name": "previousOwner",
          "type": "address"
        },
        {
          "indexed": true,
          "internalType": "address",
          "name": "newOwner",
          "type": "address"
        }
      ],
      "name": "OwnershipTransferred",
      "type": "event"
    },
    {
      "inputs": [
        {
          "internalType": "string",
          "name": "",
          "type": "string"
        }
      ],
      "name": "bTokens",
      "outputs": [
        {
          "internalType": "contract BToken",
          "name": "",
          "type": "address"
        }
      ],
      "stateMutability": "view",
      "type": "function",
      "constant": true
    },
    {
      "inputs": [
        {
          "internalType": "string",
          "name": "",
          "type": "string"
        }
      ],
      "name": "existingBTokens",
      "outputs": [
        {
          "internalType": "bool",
          "name": "",
          "type": "bool"
        }
      ],
      "stateMutability": "view",
      "type": "function",
      "constant": true
    },
    {
      "inputs": [],
      "name": "owner",
      "outputs": [
        {
          "internalType": "address",
          "name": "",
          "type": "address"
        }
      ],
      "stateMutability": "view",
      "type": "function",
      "constant": true
    },
    {
      "inputs": [],
      "name": "renounceOwnership",
      "outputs": [],
      "stateMutability": "nonpayable",
      "type": "function"
    },
    {
      "inputs": [
        {
          "internalType": "address",
          "name": "newOwner",
          "type": "address"
        }
      ],
      "name": "transferOwnership",
      "outputs": [],
      "stateMutability": "nonpayable",
      "type": "function"
    },
    {
      "inputs": [
        {
          "internalType": "address",
          "name": "underlyingContract",
          "type": "address"
        },
        {
          "internalType": "string",
          "name": "name",
          "type": "string"
        },
        {
          "internalType": "string",
          "name": "symbol",
          "type": "string"
        },
        {
          "internalType": "uint8",
          "name": "decimals",
          "type": "uint8"
        }
      ],
      "name": "addBToken",
      "outputs": [],
      "stateMutability": "nonpayable",
      "type": "function"
    },
    {
      "inputs": [
        {
          "internalType": "string",
          "name": "entry",
          "type": "string"
        },
        {
          "internalType": "uint256",
          "name": "amount",
          "type": "uint256"
        }
      ],
      "name": "mint",
      "outputs": [],
      "stateMutability": "nonpayable",
      "type": "function"
    },
    {
      "inputs": [
        {
          "internalType": "string",
          "name": "entry",
          "type": "string"
        },
        {
          "internalType": "uint256",
          "name": "amount",
          "type": "uint256"
        }
      ],
      "name": "redeem",
      "outputs": [],
      "stateMutability": "nonpayable",
      "type": "function"
    }
  ],
  "bytecode": "0x608060405234801561001057600080fd5b5061003f61002b610044640100000000026401000000009004565b61004c640100000000026401000000009004565b610110565b600033905090565b60008060009054906101000a900473ffffffffffffffffffffffffffffffffffffffff169050816000806101000a81548173ffffffffffffffffffffffffffffffffffffffff021916908373ffffffffffffffffffffffffffffffffffffffff1602179055508173ffffffffffffffffffffffffffffffffffffffff168173ffffffffffffffffffffffffffffffffffffffff167f8be0079c531659141344cd1fd0a4f28419497f9722a3daafe3b4186f6b6457e060405160405180910390a35050565b6132ee8061011f6000396000f3fe60806040523480156200001157600080fd5b5060043610620000b1576000357c0100000000000000000000000000000000000000000000000000000000900480638da5cb5b11620000805780638da5cb5b1462000138578063b1b86b13146200015a578063cf805e60146200017a578063f2fde38b14620001b057620000b1565b8063056b01ce14620000b657806333614f5514620000d65780635177464914620000f6578063715018a6146200012c575b600080fd5b620000d46004803603810190620000ce919062000a07565b620001d0565b005b620000f46004803603810190620000ee919062000b10565b62000293565b005b6200011460048036038101906200010e919062000bc0565b620003fa565b60405162000123919062000c2e565b60405180910390f35b6200013662000430565b005b62000142620004c1565b60405162000151919062000c5c565b60405180910390f35b62000178600480360381019062000172919062000a07565b620004ea565b005b62000198600480360381019062000192919062000bc0565b620005ad565b604051620001a7919062000ce4565b60405180910390f35b620001ce6004803603810190620001c8919062000d01565b620005f6565b005b6000620001dd83620006fa565b905060008173ffffffffffffffffffffffffffffffffffffffff166340c10f1933856040518363ffffffff167c01000000000000000000000000000000000000000000000000000000000281526004016200023a92919062000d44565b6020604051808303816000875af11580156200025a573d6000803e3d6000fd5b505050506040513d601f19601f8201168201806040525081019062000280919062000da2565b9050806200028d57600080fd5b50505050565b6200029d6200077c565b73ffffffffffffffffffffffffffffffffffffffff16620002bd620004c1565b73ffffffffffffffffffffffffffffffffffffffff161462000316576040517f08c379a00000000000000000000000000000000000000000000000000000000081526004016200030d9062000e35565b60405180910390fd5b600084848484306040516200032b9062000848565b6200033b95949392919062000eea565b604051809103906000f08015801562000358573d6000803e3d6000fd5b509050806001856040516200036e919062000f97565b908152602001604051809103902060006101000a81548173ffffffffffffffffffffffffffffffffffffffff021916908373ffffffffffffffffffffffffffffffffffffffff1602179055506001600285604051620003ce919062000f97565b908152602001604051809103902060006101000a81548160ff0219169083151502179055505050505050565b6002818051602081018201805184825260208301602085012081835280955050505050506000915054906101000a900460ff1681565b6200043a6200077c565b73ffffffffffffffffffffffffffffffffffffffff166200045a620004c1565b73ffffffffffffffffffffffffffffffffffffffff1614620004b3576040517f08c379a0000000000000000000000000000000000000000000000000000000008152600401620004aa9062000e35565b60405180910390fd5b620004bf600062000784565b565b60008060009054906101000a900473ffffffffffffffffffffffffffffffffffffffff16905090565b6000620004f783620006fa565b905060008173ffffffffffffffffffffffffffffffffffffffff16639dc29fac33856040518363ffffffff167c01000000000000000000000000000000000000000000000000000000000281526004016200055492919062000d44565b6020604051808303816000875af115801562000574573d6000803e3d6000fd5b505050506040513d601f19601f820116820180604052508101906200059a919062000da2565b905080620005a757600080fd5b50505050565b6001818051602081018201805184825260208301602085012081835280955050505050506000915054906101000a900473ffffffffffffffffffffffffffffffffffffffff1681565b620006006200077c565b73ffffffffffffffffffffffffffffffffffffffff1662000620620004c1565b73ffffffffffffffffffffffffffffffffffffffff161462000679576040517f08c379a0000000000000000000000000000000000000000000000000000000008152600401620006709062000e35565b60405180910390fd5b600073ffffffffffffffffffffffffffffffffffffffff168173ffffffffffffffffffffffffffffffffffffffff161415620006ec576040517f08c379a0000000000000000000000000000000000000000000000000000000008152600401620006e39062001026565b60405180910390fd5b620006f78162000784565b50565b60006002826040516200070e919062000f97565b908152602001604051809103902060009054906101000a900460ff166200073457600080fd5b60018260405162000746919062000f97565b908152602001604051809103902060009054906101000a900473ffffffffffffffffffffffffffffffffffffffff169050919050565b600033905090565b60008060009054906101000a900473ffffffffffffffffffffffffffffffffffffffff169050816000806101000a81548173ffffffffffffffffffffffffffffffffffffffff021916908373ffffffffffffffffffffffffffffffffffffffff1602179055508173ffffffffffffffffffffffffffffffffffffffff168173ffffffffffffffffffffffffffffffffffffffff167f8be0079c531659141344cd1fd0a4f28419497f9722a3daafe3b4186f6b6457e060405160405180910390a35050565b612270806200104983390190565b6000604051905090565b600080fd5b600080fd5b600080fd5b600080fd5b6000601f19601f8301169050919050565b7f4e487b7100000000000000000000000000000000000000000000000000000000600052604160045260246000fd5b620008bf8262000874565b810181811067ffffffffffffffff82111715620008e157620008e062000885565b5b80604052505050565b6000620008f662000856565b9050620009048282620008b4565b919050565b600067ffffffffffffffff82111562000927576200092662000885565b5b620009328262000874565b9050602081019050919050565b82818337600083830152505050565b6000620009656200095f8462000909565b620008ea565b9050828152602081018484840111156200098457620009836200086f565b5b620009918482856200093f565b509392505050565b600082601f830112620009b157620009b06200086a565b5b8135620009c38482602086016200094e565b91505092915050565b6000819050919050565b620009e181620009cc565b8114620009ed57600080fd5b50565b60008135905062000a0181620009d6565b92915050565b6000806040838503121562000a215762000a2062000860565b5b600083013567ffffffffffffffff81111562000a425762000a4162000865565b5b62000a508582860162000999565b925050602062000a6385828601620009f0565b9150509250929050565b600073ffffffffffffffffffffffffffffffffffffffff82169050919050565b600062000a9a8262000a6d565b9050919050565b62000aac8162000a8d565b811462000ab857600080fd5b50565b60008135905062000acc8162000aa1565b92915050565b600060ff82169050919050565b62000aea8162000ad2565b811462000af657600080fd5b50565b60008135905062000b0a8162000adf565b92915050565b6000806000806080858703121562000b2d5762000b2c62000860565b5b600062000b3d8782880162000abb565b945050602085013567ffffffffffffffff81111562000b615762000b6062000865565b5b62000b6f8782880162000999565b935050604085013567ffffffffffffffff81111562000b935762000b9262000865565b5b62000ba18782880162000999565b925050606062000bb48782880162000af9565b91505092959194509250565b60006020828403121562000bd95762000bd862000860565b5b600082013567ffffffffffffffff81111562000bfa5762000bf962000865565b5b62000c088482850162000999565b91505092915050565b60008115159050919050565b62000c288162000c11565b82525050565b600060208201905062000c45600083018462000c1d565b92915050565b62000c568162000a8d565b82525050565b600060208201905062000c73600083018462000c4b565b92915050565b6000819050919050565b600062000ca462000c9e62000c988462000a6d565b62000c79565b62000a6d565b9050919050565b600062000cb88262000c83565b9050919050565b600062000ccc8262000cab565b9050919050565b62000cde8162000cbf565b82525050565b600060208201905062000cfb600083018462000cd3565b92915050565b60006020828403121562000d1a5762000d1962000860565b5b600062000d2a8482850162000abb565b91505092915050565b62000d3e81620009cc565b82525050565b600060408201905062000d5b600083018562000c4b565b62000d6a602083018462000d33565b9392505050565b62000d7c8162000c11565b811462000d8857600080fd5b50565b60008151905062000d9c8162000d71565b92915050565b60006020828403121562000dbb5762000dba62000860565b5b600062000dcb8482850162000d8b565b91505092915050565b600082825260208201905092915050565b7f4f776e61626c653a2063616c6c6572206973206e6f7420746865206f776e6572600082015250565b600062000e1d60208362000dd4565b915062000e2a8262000de5565b602082019050919050565b6000602082019050818103600083015262000e508162000e0e565b9050919050565b600081519050919050565b60005b8381101562000e8257808201518184015260208101905062000e65565b8381111562000e92576000848401525b50505050565b600062000ea58262000e57565b62000eb1818562000dd4565b935062000ec381856020860162000e62565b62000ece8162000874565b840191505092915050565b62000ee48162000ad2565b82525050565b600060a08201905062000f01600083018862000c4b565b818103602083015262000f15818762000e98565b9050818103604083015262000f2b818662000e98565b905062000f3c606083018562000ed9565b62000f4b608083018462000c4b565b9695505050505050565b600081905092915050565b600062000f6d8262000e57565b62000f79818562000f55565b935062000f8b81856020860162000e62565b80840191505092915050565b600062000fa5828462000f60565b915081905092915050565b7f4f776e61626c653a206e6577206f776e657220697320746865207a65726f206160008201527f6464726573730000000000000000000000000000000000000000000000000000602082015250565b60006200100e60268362000dd4565b91506200101b8262000fb0565b604082019050919050565b60006020820190508181036000830152620010418162000fff565b905091905056fe60806040523480156200001157600080fd5b5060405162002270380380620022708339818101604052810190620000379190620004ff565b620000696200005462000143640100000000026401000000009004565b6200014b640100000000026401000000009004565b84600860006101000a81548173ffffffffffffffffffffffffffffffffffffffff021916908373ffffffffffffffffffffffffffffffffffffffff1602179055508360019080519060200190620000c29291906200020f565b508260029080519060200190620000db9291906200020f565b5081600360006101000a81548160ff021916908360ff16021790555080600960006101000a81548173ffffffffffffffffffffffffffffffffffffffff021916908373ffffffffffffffffffffffffffffffffffffffff16021790555050505050506200062a565b600033905090565b60008060009054906101000a900473ffffffffffffffffffffffffffffffffffffffff169050816000806101000a81548173ffffffffffffffffffffffffffffffffffffffff021916908373ffffffffffffffffffffffffffffffffffffffff1602179055508173ffffffffffffffffffffffffffffffffffffffff168173ffffffffffffffffffffffffffffffffffffffff167f8be0079c531659141344cd1fd0a4f28419497f9722a3daafe3b4186f6b6457e060405160405180910390a35050565b8280546200021d90620005f4565b90600052602060002090601f0160209004810192826200024157600085556200028d565b82601f106200025c57805160ff19168380011785556200028d565b828001600101855582156200028d579182015b828111156200028c5782518255916020019190600101906200026f565b5b5090506200029c9190620002a0565b5090565b5b80821115620002bb576000816000905550600101620002a1565b5090565b6000604051905090565b600080fd5b600080fd5b600073ffffffffffffffffffffffffffffffffffffffff82169050919050565b60006200030082620002d3565b9050919050565b6200031281620002f3565b81146200031e57600080fd5b50565b600081519050620003328162000307565b92915050565b600080fd5b600080fd5b6000601f19601f8301169050919050565b7f4e487b7100000000000000000000000000000000000000000000000000000000600052604160045260246000fd5b6200038d8262000342565b810181811067ffffffffffffffff82111715620003af57620003ae62000353565b5b80604052505050565b6000620003c4620002bf565b9050620003d2828262000382565b919050565b600067ffffffffffffffff821115620003f557620003f462000353565b5b620004008262000342565b9050602081019050919050565b60005b838110156200042d57808201518184015260208101905062000410565b838111156200043d576000848401525b50505050565b60006200045a6200045484620003d7565b620003b8565b9050828152602081018484840111156200047957620004786200033d565b5b620004868482856200040d565b509392505050565b600082601f830112620004a657620004a562000338565b5b8151620004b884826020860162000443565b91505092915050565b600060ff82169050919050565b620004d981620004c1565b8114620004e557600080fd5b50565b600081519050620004f981620004ce565b92915050565b600080600080600060a086880312156200051e576200051d620002c9565b5b60006200052e8882890162000321565b955050602086015167ffffffffffffffff811115620005525762000551620002ce565b5b62000560888289016200048e565b945050604086015167ffffffffffffffff811115620005845762000583620002ce565b5b62000592888289016200048e565b9350506060620005a588828901620004e8565b9250506080620005b88882890162000321565b9150509295509295909350565b7f4e487b7100000000000000000000000000000000000000000000000000000000600052602260045260246000fd5b600060028204905060018216806200060d57607f821691505b60208210811415620006245762000623620005c5565b5b50919050565b611c36806200063a6000396000f3fe608060405234801561001057600080fd5b5060043610610154576000357c010000000000000000000000000000000000000000000000000000000090048063715018a6116100d557806395d89b411161009957806395d89b411461034d5780639b5447fb1461036b5780639dc29fac14610387578063a9059cbb146103b7578063dd62ed3e146103e7578063f2fde38b1461041757610154565b8063715018a6146102cd57806371c5e675146102d75780637b356d7d146102f35780638da5cb5b146103115780638f840ddd1461032f57610154565b8063313ce5671161011c578063313ce5671461021357806340c10f191461023157806347bd3718146102615780636c540baf1461027f57806370a082311461029d57610154565b806306fdde0314610159578063095ea7b31461017757806310cfe906146101a757806318160ddd146101c557806323b872dd146101e3575b600080fd5b610161610433565b60405161016e919061143a565b60405180910390f35b610191600480360381019061018c91906114f5565b6104c1565b60405161019e9190611550565b60405180910390f35b6101af6105b8565b6040516101bc919061157a565b60405180910390f35b6101cd6105de565b6040516101da91906115a4565b60405180910390f35b6101fd60048036038101906101f891906115bf565b6105e4565b60405161020a9190611550565b60405180910390f35b61021b61095c565b604051610228919061162e565b60405180910390f35b61024b600480360381019061024691906114f5565b61096f565b6040516102589190611550565b60405180910390f35b610269610bb9565b60405161027691906115a4565b60405180910390f35b610287610bbf565b60405161029491906115a4565b60405180910390f35b6102b760048036038101906102b29190611649565b610bc5565b6040516102c491906115a4565b60405180910390f35b6102d5610c0e565b005b6102f160048036038101906102ec9190611649565b610c96565b005b6102fb610d56565b604051610308919061157a565b60405180910390f35b610319610d7c565b604051610326919061157a565b60405180910390f35b610337610da5565b60405161034491906115a4565b60405180910390f35b610355610dab565b604051610362919061143a565b60405180910390f35b61038560048036038101906103809190611649565b610e39565b005b6103a1600480360381019061039c91906114f5565b610ef9565b6040516103ae9190611550565b60405180910390f35b6103d160048036038101906103cc91906114f5565b611141565b6040516103de9190611550565b60405180910390f35b61040160048036038101906103fc9190611676565b611156565b60405161040e91906115a4565b60405180910390f35b610431600480360381019061042c9190611649565b6111dd565b005b60018054610440906116e5565b80601f016020809104026020016040519081016040528092919081815260200182805461046c906116e5565b80156104b95780601f1061048e576101008083540402835291602001916104b9565b820191906000526020600020905b81548152906001019060200180831161049c57829003601f168201915b505050505081565b60008033905082600b60008373ffffffffffffffffffffffffffffffffffffffff1673ffffffffffffffffffffffffffffffffffffffff16815260200190815260200160002060008673ffffffffffffffffffffffffffffffffffffffff1673ffffffffffffffffffffffffffffffffffffffff168152602001908152602001600020819055508373ffffffffffffffffffffffffffffffffffffffff168173ffffffffffffffffffffffffffffffffffffffff167f8c5be1e5ebec7d5bd14f71427d1e84f3dd0314c0f7b2291e5b200ac8c7c3b925856040516105a591906115a4565b60405180910390a3600191505092915050565b600860009054906101000a900473ffffffffffffffffffffffffffffffffffffffff1681565b60075481565b6000808211610628576040517f08c379a000000000000000000000000000000000000000000000000000000000815260040161061f90611763565b60405180910390fd5b8273ffffffffffffffffffffffffffffffffffffffff168473ffffffffffffffffffffffffffffffffffffffff161415610697576040517f08c379a000000000000000000000000000000000000000000000000000000000815260040161068e906117cf565b60405180910390fd5b60006106a285610bc5565b9050828110156106e7576040517f08c379a00000000000000000000000000000000000000000000000000000000081526004016106de9061183b565b60405180910390fd5b6000600b60008773ffffffffffffffffffffffffffffffffffffffff1673ffffffffffffffffffffffffffffffffffffffff16815260200190815260200160002060003373ffffffffffffffffffffffffffffffffffffffff1673ffffffffffffffffffffffffffffffffffffffff168152602001908152602001600020549050838110156107ab576040517f08c379a00000000000000000000000000000000000000000000000000000000081526004016107a2906118a7565b60405180910390fd5b83600a60008873ffffffffffffffffffffffffffffffffffffffff1673ffffffffffffffffffffffffffffffffffffffff16815260200190815260200160002060008282546107fa91906118f6565b9250508190555083600a60008773ffffffffffffffffffffffffffffffffffffffff1673ffffffffffffffffffffffffffffffffffffffff1681526020019081526020016000206000828254610850919061192a565b9250508190555083600b60008873ffffffffffffffffffffffffffffffffffffffff1673ffffffffffffffffffffffffffffffffffffffff16815260200190815260200160002060003373ffffffffffffffffffffffffffffffffffffffff1673ffffffffffffffffffffffffffffffffffffffff16815260200190815260200160002060008282546108e391906118f6565b925050819055508473ffffffffffffffffffffffffffffffffffffffff168673ffffffffffffffffffffffffffffffffffffffff167fddf252ad1be2c89b69c2b068fc378daa952ba7f163c4a11628f55a4df523b3ef8660405161094791906115a4565b60405180910390a36001925050509392505050565b600360009054906101000a900460ff1681565b6000600960009054906101000a900473ffffffffffffffffffffffffffffffffffffffff1673ffffffffffffffffffffffffffffffffffffffff163373ffffffffffffffffffffffffffffffffffffffff1614610a01576040517f08c379a00000000000000000000000000000000000000000000000000000000081526004016109f8906119f2565b60405180910390fd5b60008211610a44576040517f08c379a0000000000000000000000000000000000000000000000000000000008152600401610a3b90611763565b60405180910390fd5b6000600860009054906101000a900473ffffffffffffffffffffffffffffffffffffffff16905060008173ffffffffffffffffffffffffffffffffffffffff166323b872dd8630876040518463ffffffff167c0100000000000000000000000000000000000000000000000000000000028152600401610ac693929190611a12565b6020604051808303816000875af1158015610ae5573d6000803e3d6000fd5b505050506040513d601f19601f82011682018060405250810190610b099190611a75565b905080610b1b57600092505050610bb3565b83600a60008773ffffffffffffffffffffffffffffffffffffffff1673ffffffffffffffffffffffffffffffffffffffff1681526020019081526020016000206000828254610b6a919061192a565b925050819055507f4c209b5fc8ad50758f13e2e1088ba56a560dff690a1c6fef26394f4c03821c4f858586604051610ba493929190611aa2565b60405180910390a16001925050505b92915050565b60055481565b60045481565b6000600a60008373ffffffffffffffffffffffffffffffffffffffff1673ffffffffffffffffffffffffffffffffffffffff168152602001908152602001600020549050919050565b610c166112d5565b73ffffffffffffffffffffffffffffffffffffffff16610c34610d7c565b73ffffffffffffffffffffffffffffffffffffffff1614610c8a576040517f08c379a0000000000000000000000000000000000000000000000000000000008152600401610c8190611b25565b60405180910390fd5b610c9460006112dd565b565b610c9e6112d5565b73ffffffffffffffffffffffffffffffffffffffff16610cbc610d7c565b73ffffffffffffffffffffffffffffffffffffffff1614610d12576040517f08c379a0000000000000000000000000000000000000000000000000000000008152600401610d0990611b25565b60405180910390fd5b80600860006101000a81548173ffffffffffffffffffffffffffffffffffffffff021916908373ffffffffffffffffffffffffffffffffffffffff16021790555050565b600960009054906101000a900473ffffffffffffffffffffffffffffffffffffffff1681565b60008060009054906101000a900473ffffffffffffffffffffffffffffffffffffffff16905090565b60065481565b60028054610db8906116e5565b80601f0160208091040260200160405190810160405280929190818152602001828054610de4906116e5565b8015610e315780601f10610e0657610100808354040283529160200191610e31565b820191906000526020600020905b815481529060010190602001808311610e1457829003601f168201915b505050505081565b610e416112d5565b73ffffffffffffffffffffffffffffffffffffffff16610e5f610d7c565b73ffffffffffffffffffffffffffffffffffffffff1614610eb5576040517f08c379a0000000000000000000000000000000000000000000000000000000008152600401610eac90611b25565b60405180910390fd5b80600960006101000a81548173ffffffffffffffffffffffffffffffffffffffff021916908373ffffffffffffffffffffffffffffffffffffffff16021790555050565b6000600960009054906101000a900473ffffffffffffffffffffffffffffffffffffffff1673ffffffffffffffffffffffffffffffffffffffff163373ffffffffffffffffffffffffffffffffffffffff1614610f8b576040517f08c379a0000000000000000000000000000000000000000000000000000000008152600401610f82906119f2565b60405180910390fd5b60008211610fce576040517f08c379a0000000000000000000000000000000000000000000000000000000008152600401610fc590611763565b60405180910390fd5b6000600860009054906101000a900473ffffffffffffffffffffffffffffffffffffffff16905060008173ffffffffffffffffffffffffffffffffffffffff1663a9059cbb86866040518363ffffffff167c010000000000000000000000000000000000000000000000000000000002815260040161104e929190611b45565b6020604051808303816000875af115801561106d573d6000803e3d6000fd5b505050506040513d601f19601f820116820180604052508101906110919190611a75565b9050806110a35760009250505061113b565b83600a60008773ffffffffffffffffffffffffffffffffffffffff1673ffffffffffffffffffffffffffffffffffffffff16815260200190815260200160002060008282546110f291906118f6565b925050819055507f49995e5dd6158cf69ad3e9777c46755a1a826a446c6416992167462dad033b2a85858660405161112c93929190611aa2565b60405180910390a16001925050505b92915050565b600061114e3384846105e4565b905092915050565b6000600b60008473ffffffffffffffffffffffffffffffffffffffff1673ffffffffffffffffffffffffffffffffffffffff16815260200190815260200160002060008373ffffffffffffffffffffffffffffffffffffffff1673ffffffffffffffffffffffffffffffffffffffff16815260200190815260200160002054905092915050565b6111e56112d5565b73ffffffffffffffffffffffffffffffffffffffff16611203610d7c565b73ffffffffffffffffffffffffffffffffffffffff1614611259576040517f08c379a000000000000000000000000000000000000000000000000000000000815260040161125090611b25565b60405180910390fd5b600073ffffffffffffffffffffffffffffffffffffffff168173ffffffffffffffffffffffffffffffffffffffff1614156112c9576040517f08c379a00000000000000000000000000000000000000000000000000000000081526004016112c090611be0565b60405180910390fd5b6112d2816112dd565b50565b600033905090565b60008060009054906101000a900473ffffffffffffffffffffffffffffffffffffffff169050816000806101000a81548173ffffffffffffffffffffffffffffffffffffffff021916908373ffffffffffffffffffffffffffffffffffffffff1602179055508173ffffffffffffffffffffffffffffffffffffffff168173ffffffffffffffffffffffffffffffffffffffff167f8be0079c531659141344cd1fd0a4f28419497f9722a3daafe3b4186f6b6457e060405160405180910390a35050565b600081519050919050565b600082825260208201905092915050565b60005b838110156113db5780820151818401526020810190506113c0565b838111156113ea576000848401525b50505050565b6000601f19601f8301169050919050565b600061140c826113a1565b61141681856113ac565b93506114268185602086016113bd565b61142f816113f0565b840191505092915050565b600060208201905081810360008301526114548184611401565b905092915050565b600080fd5b600073ffffffffffffffffffffffffffffffffffffffff82169050919050565b600061148c82611461565b9050919050565b61149c81611481565b81146114a757600080fd5b50565b6000813590506114b981611493565b92915050565b6000819050919050565b6114d2816114bf565b81146114dd57600080fd5b50565b6000813590506114ef816114c9565b92915050565b6000806040838503121561150c5761150b61145c565b5b600061151a858286016114aa565b925050602061152b858286016114e0565b9150509250929050565b60008115159050919050565b61154a81611535565b82525050565b60006020820190506115656000830184611541565b92915050565b61157481611481565b82525050565b600060208201905061158f600083018461156b565b92915050565b61159e816114bf565b82525050565b60006020820190506115b96000830184611595565b92915050565b6000806000606084860312156115d8576115d761145c565b5b60006115e6868287016114aa565b93505060206115f7868287016114aa565b9250506040611608868287016114e0565b9150509250925092565b600060ff82169050919050565b61162881611612565b82525050565b6000602082019050611643600083018461161f565b92915050565b60006020828403121561165f5761165e61145c565b5b600061166d848285016114aa565b91505092915050565b6000806040838503121561168d5761168c61145c565b5b600061169b858286016114aa565b92505060206116ac858286016114aa565b9150509250929050565b7f4e487b7100000000000000000000000000000000000000000000000000000000600052602260045260246000fd5b600060028204905060018216806116fd57607f821691505b60208210811415611711576117106116b6565b5b50919050565b7f616d6f756e74206d7573742062652067726561746572207468616e2030000000600082015250565b600061174d601d836113ac565b915061175882611717565b602082019050919050565b6000602082019050818103600083015261177c81611740565b9050919050565b7f63616e6e6f74207472616e7366657220746f2073656c66000000000000000000600082015250565b60006117b96017836113ac565b91506117c482611783565b602082019050919050565b600060208201905081810360008301526117e8816117ac565b9050919050565b7f6e6f7420656e6f7567682062616c616e63650000000000000000000000000000600082015250565b60006118256012836113ac565b9150611830826117ef565b602082019050919050565b6000602082019050818103600083015261185481611818565b9050919050565b7f6e6f7420656e6f75676820616c6c6f77616e6365000000000000000000000000600082015250565b60006118916014836113ac565b915061189c8261185b565b602082019050919050565b600060208201905081810360008301526118c081611884565b9050919050565b7f4e487b7100000000000000000000000000000000000000000000000000000000600052601160045260246000fd5b6000611901826114bf565b915061190c836114bf565b92508282101561191f5761191e6118c7565b5b828203905092915050565b6000611935826114bf565b9150611940836114bf565b9250827fffffffffffffffffffffffffffffffffffffffffffffffffffffffffffffffff03821115611975576119746118c7565b5b828201905092915050565b7f4572726f722c206f6e6c792074686520546f6b656e4c656e64696e6720636f6e60008201527f74726163742063616e2075736520746869732066756e6374696f6e0000000000602082015250565b60006119dc603b836113ac565b91506119e782611980565b604082019050919050565b60006020820190508181036000830152611a0b816119cf565b9050919050565b6000606082019050611a27600083018661156b565b611a34602083018561156b565b611a416040830184611595565b949350505050565b611a5281611535565b8114611a5d57600080fd5b50565b600081519050611a6f81611a49565b92915050565b600060208284031215611a8b57611a8a61145c565b5b6000611a9984828501611a60565b91505092915050565b6000606082019050611ab7600083018661156b565b611ac46020830185611595565b611ad16040830184611595565b949350505050565b7f4f776e61626c653a2063616c6c6572206973206e6f7420746865206f776e6572600082015250565b6000611b0f6020836113ac565b9150611b1a82611ad9565b602082019050919050565b60006020820190508181036000830152611b3e81611b02565b9050919050565b6000604082019050611b5a600083018561156b565b611b676020830184611595565b9392505050565b7f4f776e61626c653a206e6577206f776e657220697320746865207a65726f206160008201527f6464726573730000000000000000000000000000000000000000000000000000602082015250565b6000611bca6026836113ac565b9150611bd582611b6e565b604082019050919050565b60006020820190508181036000830152611bf981611bbd565b905091905056fea2646970667358221220fdc3629a779f3d72c92dd25d7be3edfee7c47b4c25368bbc33b4e8f011cbba6b64736f6c634300080c0033a264697066735822122003b5f7f2549a600ba7dc456d657d5b178b1cb910bbaefd1bc4349ee1c939f75464736f6c634300080c0033",
  "immutableReferences": {},
  "source": "// SPDX-License-Identifier: UNLICENSED\r\npragma solidity >=0.7.0 <0.9.0;\r\n\r\nimport \"./BToken.sol\";\r\nimport \"@openzeppelin/contracts/access/Ownable.sol\";\r\n\r\ncontract TokenLending is Ownable {\r\n    mapping(string => BToken) public bTokens;\r\n    mapping(string => bool) public existingBTokens;\r\n\r\n    /** Admin functions */\r\n\r\n    function addBToken(\r\n        address underlyingContract,\r\n        string memory name,\r\n        string memory symbol,\r\n        uint8 decimals\r\n    ) external onlyOwner {\r\n        BToken bToken = new BToken(\r\n            underlyingContract,\r\n            name,\r\n            symbol,\r\n            decimals,\r\n            address(this)\r\n        );\r\n        bTokens[name] = bToken;\r\n        existingBTokens[name] = true;\r\n    }\r\n\r\n    /** Users functions */\r\n\r\n    /**\r\n     * @notice supply token to a given address\r\n     */\r\n    function mint(string memory entry, uint256 amount) external {\r\n        BToken bToken = getBToken(entry);\r\n\r\n        bool success = bToken.mint(msg.sender, amount);\r\n        require(success);\r\n    }\r\n\r\n    function redeem(string memory entry, uint256 amount) external {\r\n        BToken bToken = getBToken(entry);\r\n\r\n        bool success = bToken.burn(msg.sender, amount);\r\n        require(success);\r\n    }\r\n\r\n    /** Private function */\r\n    function getBToken(string memory entry) private view returns (BToken) {\r\n        require(existingBTokens[entry]);\r\n        return bTokens[entry];\r\n    }\r\n}\r\n",
  "sourcePath": "C:\\Lab\\Solidity\\BabyLoans-Protocol\\contracts\\TokenLending.sol",
  "compiler": {
    "name": "solc",
    "version": "0.8.12+commit.f00d7308.Emscripten.clang"
  },
  "schemaVersion": "3.4.7",
  "updatedAt": "2022-06-29T12:59:22.095Z",
  "networkType": "ethereum",
  "devdoc": {
    "kind": "dev",
    "methods": {
      "owner()": {
        "details": "Returns the address of the current owner."
      },
      "renounceOwnership()": {
        "details": "Leaves the contract without owner. It will not be possible to call `onlyOwner` functions anymore. Can only be called by the current owner. NOTE: Renouncing ownership will leave the contract without an owner, thereby removing any functionality that is only available to the owner."
      },
      "transferOwnership(address)": {
        "details": "Transfers ownership of the contract to a new account (`newOwner`). Can only be called by the current owner."
      }
    },
    "version": 1
  },
  "userdoc": {
    "kind": "user",
    "methods": {
      "addBToken(address,string,string,uint8)": {
        "notice": "Admin functions "
      },
      "mint(string,uint256)": {
        "notice": "supply token to a given address"
      }
    },
    "version": 1
  }
}